{
  "contractName": "Bank",
  "abi": [
    {
      "anonymous": false,
      "inputs": [
        {
          "indexed": true,
          "internalType": "address",
          "name": "previousOwner",
          "type": "address"
        },
        {
          "indexed": true,
          "internalType": "address",
          "name": "newOwner",
          "type": "address"
        }
      ],
      "name": "OwnershipTransferred",
      "type": "event"
    },
    {
      "anonymous": false,
      "inputs": [
        {
          "indexed": false,
          "internalType": "uint256",
          "name": "_coinID",
          "type": "uint256"
        },
        {
          "indexed": false,
          "internalType": "address",
          "name": "_owner",
          "type": "address"
        }
      ],
      "name": "coinMinted",
      "type": "event"
    },
    {
      "anonymous": false,
      "inputs": [
        {
          "indexed": false,
          "internalType": "uint256",
          "name": "_coinID",
          "type": "uint256"
        }
      ],
      "name": "coinPermitted",
      "type": "event"
    },
    {
      "anonymous": false,
      "inputs": [
        {
          "indexed": false,
          "internalType": "uint256",
          "name": "_coinID",
          "type": "uint256"
        }
      ],
      "name": "coinTransfer",
      "type": "event"
    },
    {
      "inputs": [
        {
          "internalType": "uint256",
          "name": "",
          "type": "uint256"
        }
      ],
      "name": "allowed",
      "outputs": [
        {
          "internalType": "address",
          "name": "",
          "type": "address"
        }
      ],
      "stateMutability": "view",
      "type": "function",
      "constant": true
    },
    {
      "inputs": [],
      "name": "coinID",
      "outputs": [
        {
          "internalType": "uint256",
          "name": "",
          "type": "uint256"
        }
      ],
      "stateMutability": "view",
      "type": "function",
      "constant": true
    },
    {
      "inputs": [
        {
          "internalType": "uint256",
          "name": "",
          "type": "uint256"
        }
      ],
      "name": "coins",
      "outputs": [
        {
          "internalType": "uint256",
          "name": "coinID",
          "type": "uint256"
        }
      ],
      "stateMutability": "view",
      "type": "function",
      "constant": true
    },
    {
      "inputs": [],
      "name": "owner",
      "outputs": [
        {
          "internalType": "address",
          "name": "",
          "type": "address"
        }
      ],
      "stateMutability": "view",
      "type": "function",
      "constant": true
    },
    {
      "inputs": [
        {
          "internalType": "uint256",
          "name": "",
          "type": "uint256"
        }
      ],
      "name": "owners",
      "outputs": [
        {
          "internalType": "address",
          "name": "",
          "type": "address"
        }
      ],
      "stateMutability": "view",
      "type": "function",
      "constant": true
    },
    {
      "inputs": [],
      "name": "renounceOwnership",
      "outputs": [],
      "stateMutability": "nonpayable",
      "type": "function"
    },
    {
      "inputs": [
        {
          "internalType": "address",
          "name": "newOwner",
          "type": "address"
        }
      ],
      "name": "transferOwnership",
      "outputs": [],
      "stateMutability": "nonpayable",
      "type": "function"
    },
    {
      "inputs": [
        {
          "internalType": "address",
          "name": "_verifier",
          "type": "address"
        }
      ],
      "name": "setVerifier",
      "outputs": [],
      "stateMutability": "nonpayable",
      "type": "function"
    },
    {
      "inputs": [
        {
          "internalType": "address",
          "name": "_owner",
          "type": "address"
        },
        {
          "internalType": "uint256",
          "name": "_amount",
          "type": "uint256"
        },
        {
          "internalType": "string[]",
          "name": "_senderConditions",
          "type": "string[]"
        },
        {
          "internalType": "string[]",
          "name": "_receiverConditions",
          "type": "string[]"
        }
      ],
      "name": "mint",
      "outputs": [],
      "stateMutability": "nonpayable",
      "type": "function"
    },
    {
      "inputs": [
        {
          "internalType": "address",
          "name": "_receiver",
          "type": "address"
        },
        {
          "internalType": "uint256[]",
          "name": "_payment",
          "type": "uint256[]"
        }
      ],
      "name": "normalTransfer",
      "outputs": [],
      "stateMutability": "nonpayable",
      "type": "function"
    },
    {
      "inputs": [
        {
          "internalType": "address",
          "name": "_receiver",
          "type": "address"
        },
        {
          "internalType": "uint256[]",
          "name": "_payment",
          "type": "uint256[]"
        },
        {
          "internalType": "string[]",
          "name": "senderConditions",
          "type": "string[]"
        },
        {
          "internalType": "string[]",
          "name": "receiverConditions",
          "type": "string[]"
        }
      ],
      "name": "attachTransfer",
      "outputs": [],
      "stateMutability": "nonpayable",
      "type": "function"
    },
    {
      "inputs": [
        {
          "internalType": "address",
          "name": "_target",
          "type": "address"
        },
        {
          "internalType": "uint256[]",
          "name": "_coins",
          "type": "uint256[]"
        }
      ],
      "name": "permit",
      "outputs": [],
      "stateMutability": "nonpayable",
      "type": "function"
    },
    {
      "inputs": [],
      "name": "wallet",
      "outputs": [
        {
          "components": [
            {
              "internalType": "uint256",
              "name": "coinID",
              "type": "uint256"
            },
            {
              "internalType": "string[]",
              "name": "senderConditions",
              "type": "string[]"
            },
            {
              "internalType": "string[]",
              "name": "receiverConditions",
              "type": "string[]"
            }
          ],
          "internalType": "struct Bank.Coin[]",
          "name": "",
          "type": "tuple[]"
        }
      ],
      "stateMutability": "view",
      "type": "function",
      "constant": true
    }
  ],
  "bytecode": "0x60806040523480156200001157600080fd5b5062000032620000266200003860201b60201c565b6200004060201b60201c565b62000104565b600033905090565b60008060009054906101000a900473ffffffffffffffffffffffffffffffffffffffff169050816000806101000a81548173ffffffffffffffffffffffffffffffffffffffff021916908373ffffffffffffffffffffffffffffffffffffffff1602179055508173ffffffffffffffffffffffffffffffffffffffff168173ffffffffffffffffffffffffffffffffffffffff167f8be0079c531659141344cd1fd0a4f28419497f9722a3daafe3b4186f6b6457e060405160405180910390a35050565b61349480620001146000396000f3fe608060405234801561001057600080fd5b50600436106100cf5760003560e01c80638da5cb5b1161008c578063c661065711610066578063c6610657146101ea578063d714e8e91461021a578063d91bb26c14610236578063f2fde38b14610254576100cf565b80638da5cb5b14610194578063a0a88c94146101b2578063a4acb5b4146101ce576100cf565b8063025e7c27146100d4578063214296e814610104578063521eb273146101345780635437988d146101525780636aa2932c1461016e578063715018a61461018a575b600080fd5b6100ee60048036038101906100e99190612375565b610270565b6040516100fb91906123e3565b60405180910390f35b61011e60048036038101906101199190612375565b6102af565b60405161012b91906123e3565b60405180910390f35b61013c6102ee565b6040516101499190612681565b60405180910390f35b61016c600480360381019061016791906126cf565b6107de565b005b61018860048036038101906101839190612844565b61089e565b005b610192611134565b005b61019c6111bc565b6040516101a991906123e3565b60405180910390f35b6101cc60048036038101906101c79190612a36565b6111e5565b005b6101e860048036038101906101e39190612844565b6114e0565b005b61020460048036038101906101ff9190612375565b611717565b6040516102119190612ae4565b60405180910390f35b610234600480360381019061022f9190612aff565b611745565b005b61023e611fda565b60405161024b9190612ae4565b60405180910390f35b61026e600480360381019061026991906126cf565b611fe0565b005b6003818154811061028057600080fd5b906000526020600020016000915054906101000a900473ffffffffffffffffffffffffffffffffffffffff1681565b600481815481106102bf57600080fd5b906000526020600020016000915054906101000a900473ffffffffffffffffffffffffffffffffffffffff1681565b6060600060015467ffffffffffffffff81111561030e5761030d612701565b5b60405190808252806020026020018201604052801561034757816020015b6103346121a3565b81526020019060019003908161032c5790505b50905060006040518060600160405280600180546103659190612be9565b81526020016006805480602002602001604051908101604052809291908181526020016000905b828210156104385783829060005260206000200180546103ab90612c6e565b80601f01602080910402602001604051908101604052809291908181526020018280546103d790612c6e565b80156104245780601f106103f957610100808354040283529160200191610424565b820191906000526020600020905b81548152906001019060200180831161040757829003601f168201915b50505050508152602001906001019061038c565b5050505081526020016006805480602002602001604051908101604052809291908181526020016000905b8282101561050f57838290600052602060002001805461048290612c6e565b80601f01602080910402602001604051908101604052809291908181526020018280546104ae90612c6e565b80156104fb5780601f106104d0576101008083540402835291602001916104fb565b820191906000526020600020905b8154815290600101906020018083116104de57829003601f168201915b505050505081526020019060010190610463565b50505050815250905060005b6001548110156107d5573373ffffffffffffffffffffffffffffffffffffffff16600382815481106105505761054f612c9f565b5b9060005260206000200160009054906101000a900473ffffffffffffffffffffffffffffffffffffffff1673ffffffffffffffffffffffffffffffffffffffff16036107a257600281815481106105aa576105a9612c9f565b5b90600052602060002090600302016040518060600160405290816000820154815260200160018201805480602002602001604051908101604052809291908181526020016000905b8282101561069e57838290600052602060002001805461061190612c6e565b80601f016020809104026020016040519081016040528092919081815260200182805461063d90612c6e565b801561068a5780601f1061065f5761010080835404028352916020019161068a565b820191906000526020600020905b81548152906001019060200180831161066d57829003601f168201915b5050505050815260200190600101906105f2565b50505050815260200160028201805480602002602001604051908101604052809291908181526020016000905b828210156107775783829060005260206000200180546106ea90612c6e565b80601f016020809104026020016040519081016040528092919081815260200182805461071690612c6e565b80156107635780601f1061073857610100808354040283529160200191610763565b820191906000526020600020905b81548152906001019060200180831161074657829003601f168201915b5050505050815260200190600101906106cb565b505050508152505083828151811061079257610791612c9f565b5b60200260200101819052506107c2565b818382815181106107b6576107b5612c9f565b5b60200260200101819052505b80806107cd90612cce565b91505061051b565b50819250505090565b6107e66120d7565b73ffffffffffffffffffffffffffffffffffffffff166108046111bc565b73ffffffffffffffffffffffffffffffffffffffff161461085a576040517f08c379a000000000000000000000000000000000000000000000000000000000815260040161085190612d73565b60405180910390fd5b80600560006101000a81548173ffffffffffffffffffffffffffffffffffffffff021916908373ffffffffffffffffffffffffffffffffffffffff16021790555050565b600073ffffffffffffffffffffffffffffffffffffffff168273ffffffffffffffffffffffffffffffffffffffff160361090d576040517f08c379a000000000000000000000000000000000000000000000000000000000815260040161090490612e05565b60405180910390fd5b6000815103610951576040517f08c379a000000000000000000000000000000000000000000000000000000000815260040161094890612e71565b60405180910390fd5b606060005b825181101561112e57600083828151811061097457610973612c9f565b5b602002602001015190503373ffffffffffffffffffffffffffffffffffffffff16600382815481106109a9576109a8612c9f565b5b9060005260206000200160009054906101000a900473ffffffffffffffffffffffffffffffffffffffff1673ffffffffffffffffffffffffffffffffffffffff161480610a5f57503373ffffffffffffffffffffffffffffffffffffffff1660048281548110610a1c57610a1b612c9f565b5b9060005260206000200160009054906101000a900473ffffffffffffffffffffffffffffffffffffffff1673ffffffffffffffffffffffffffffffffffffffff16145b610a9e576040517f08c379a0000000000000000000000000000000000000000000000000000000008152600401610a9590612f03565b60405180910390fd5b8473ffffffffffffffffffffffffffffffffffffffff1660038281548110610ac957610ac8612c9f565b5b9060005260206000200160009054906101000a900473ffffffffffffffffffffffffffffffffffffffff1673ffffffffffffffffffffffffffffffffffffffff1603610b4a576040517f08c379a0000000000000000000000000000000000000000000000000000000008152600401610b4190612f95565b60405180910390fd5b600060028281548110610b6057610b5f612c9f565b5b90600052602060002090600302016040518060600160405290816000820154815260200160018201805480602002602001604051908101604052809291908181526020016000905b82821015610c54578382906000526020600020018054610bc790612c6e565b80601f0160208091040260200160405190810160405280929190818152602001828054610bf390612c6e565b8015610c405780601f10610c1557610100808354040283529160200191610c40565b820191906000526020600020905b815481529060010190602001808311610c2357829003601f168201915b505050505081526020019060010190610ba8565b50505050815260200160028201805480602002602001604051908101604052809291908181526020016000905b82821015610d2d578382906000526020600020018054610ca090612c6e565b80601f0160208091040260200160405190810160405280929190818152602001828054610ccc90612c6e565b8015610d195780601f10610cee57610100808354040283529160200191610d19565b820191906000526020600020905b815481529060010190602001808311610cfc57829003601f168201915b505050505081526020019060010190610c81565b5050505081525050905060005b816020015151811015610e9357600560009054906101000a900473ffffffffffffffffffffffffffffffffffffffff1673ffffffffffffffffffffffffffffffffffffffff1663d241a98d60038581548110610d9957610d98612c9f565b5b9060005260206000200160009054906101000a900473ffffffffffffffffffffffffffffffffffffffff1684602001518481518110610ddb57610dda612c9f565b5b60200260200101516040518363ffffffff1660e01b8152600401610e00929190612fee565b602060405180830381865afa158015610e1d573d6000803e3d6000fd5b505050506040513d601f19601f82011682018060405250810190610e419190613056565b610e80576040517f08c379a0000000000000000000000000000000000000000000000000000000008152600401610e77906130f5565b60405180910390fd5b8080610e8b90612cce565b915050610d3a565b5060005b816040015151811015610fb257600560009054906101000a900473ffffffffffffffffffffffffffffffffffffffff1673ffffffffffffffffffffffffffffffffffffffff1663d241a98d8884604001518481518110610efa57610ef9612c9f565b5b60200260200101516040518363ffffffff1660e01b8152600401610f1f929190612fee565b602060405180830381865afa158015610f3c573d6000803e3d6000fd5b505050506040513d601f19601f82011682018060405250810190610f609190613056565b610f9f576040517f08c379a0000000000000000000000000000000000000000000000000000000008152600401610f9690613187565b60405180910390fd5b8080610faa90612cce565b915050610e97565b508360028381548110610fc857610fc7612c9f565b5b90600052602060002090600302016001019080519060200190610fec9291906121c4565b50836002838154811061100257611001612c9f565b5b906000526020600020906003020160020190805190602001906110269291906121c4565b50856003838154811061103c5761103b612c9f565b5b9060005260206000200160006101000a81548173ffffffffffffffffffffffffffffffffffffffff021916908373ffffffffffffffffffffffffffffffffffffffff16021790555060006004838154811061109a57611099612c9f565b5b9060005260206000200160006101000a81548173ffffffffffffffffffffffffffffffffffffffff021916908373ffffffffffffffffffffffffffffffffffffffff1602179055507f3a40e7721851a136de859b9a818186cef85672393df10f57596e2d9c8479fd17826040516111119190612ae4565b60405180910390a15050808061112690612cce565b915050610956565b50505050565b61113c6120d7565b73ffffffffffffffffffffffffffffffffffffffff1661115a6111bc565b73ffffffffffffffffffffffffffffffffffffffff16146111b0576040517f08c379a00000000000000000000000000000000000000000000000000000000081526004016111a790612d73565b60405180910390fd5b6111ba60006120df565b565b60008060009054906101000a900473ffffffffffffffffffffffffffffffffffffffff16905090565b6111ed6120d7565b73ffffffffffffffffffffffffffffffffffffffff1661120b6111bc565b73ffffffffffffffffffffffffffffffffffffffff1614611261576040517f08c379a000000000000000000000000000000000000000000000000000000000815260040161125890612d73565b60405180910390fd5b600073ffffffffffffffffffffffffffffffffffffffff168473ffffffffffffffffffffffffffffffffffffffff16036112d0576040517f08c379a00000000000000000000000000000000000000000000000000000000081526004016112c7906131f3565b60405180910390fd5b60008303611313576040517f08c379a000000000000000000000000000000000000000000000000000000000815260040161130a9061325f565b60405180910390fd5b60005b838110156114d95760026040518060600160405280600154815260200185815260200184815250908060018154018082558091505060019003906000526020600020906003020160009091909190915060008201518160000155602082015181600101908051906020019061138c9291906121c4565b5060408201518160020190805190602001906113a99291906121c4565b5050506003859080600181540180825580915050600190039060005260206000200160009091909190916101000a81548173ffffffffffffffffffffffffffffffffffffffff021916908373ffffffffffffffffffffffffffffffffffffffff160217905550600460009080600181540180825580915050600190039060005260206000200160009091909190916101000a81548173ffffffffffffffffffffffffffffffffffffffff021916908373ffffffffffffffffffffffffffffffffffffffff1602179055507f3233578ac41f2df32794603113cb2269cf5af2205dba123be51fc666996c6ef6600154866040516114a692919061327f565b60405180910390a1600160008154809291906114c190612cce565b919050555080806114d190612cce565b915050611316565b5050505050565b600073ffffffffffffffffffffffffffffffffffffffff168273ffffffffffffffffffffffffffffffffffffffff160361154f576040517f08c379a000000000000000000000000000000000000000000000000000000000815260040161154690612e05565b60405180910390fd5b6000815103611593576040517f08c379a000000000000000000000000000000000000000000000000000000000815260040161158a9061331a565b60405180910390fd5b60005b81518110156117125760008282815181106115b4576115b3612c9f565b5b602002602001015190503373ffffffffffffffffffffffffffffffffffffffff16600382815481106115e9576115e8612c9f565b5b9060005260206000200160009054906101000a900473ffffffffffffffffffffffffffffffffffffffff1673ffffffffffffffffffffffffffffffffffffffff161461166a576040517f08c379a0000000000000000000000000000000000000000000000000000000008152600401611661906133ac565b60405180910390fd5b836004828154811061167f5761167e612c9f565b5b9060005260206000200160006101000a81548173ffffffffffffffffffffffffffffffffffffffff021916908373ffffffffffffffffffffffffffffffffffffffff1602179055507f42bf4d4700b8a5f3e8a44f756d16c030cecedd27b053d9a41b8669ec110197ec816040516116f69190612ae4565b60405180910390a150808061170a90612cce565b915050611596565b505050565b6002818154811061172757600080fd5b90600052602060002090600302016000915090508060000154905081565b600073ffffffffffffffffffffffffffffffffffffffff168473ffffffffffffffffffffffffffffffffffffffff16036117b4576040517f08c379a00000000000000000000000000000000000000000000000000000000081526004016117ab90612e05565b60405180910390fd5b60008351036117f8576040517f08c379a00000000000000000000000000000000000000000000000000000000081526004016117ef90612e71565b60405180910390fd5b60005b8351811015611fd357600084828151811061181957611818612c9f565b5b602002602001015190503373ffffffffffffffffffffffffffffffffffffffff166003828154811061184e5761184d612c9f565b5b9060005260206000200160009054906101000a900473ffffffffffffffffffffffffffffffffffffffff1673ffffffffffffffffffffffffffffffffffffffff16148061190457503373ffffffffffffffffffffffffffffffffffffffff16600482815481106118c1576118c0612c9f565b5b9060005260206000200160009054906101000a900473ffffffffffffffffffffffffffffffffffffffff1673ffffffffffffffffffffffffffffffffffffffff16145b611943576040517f08c379a000000000000000000000000000000000000000000000000000000000815260040161193a90612f03565b60405180910390fd5b8573ffffffffffffffffffffffffffffffffffffffff166003828154811061196e5761196d612c9f565b5b9060005260206000200160009054906101000a900473ffffffffffffffffffffffffffffffffffffffff1673ffffffffffffffffffffffffffffffffffffffff16036119ef576040517f08c379a00000000000000000000000000000000000000000000000000000000081526004016119e690612f95565b60405180910390fd5b600060028281548110611a0557611a04612c9f565b5b90600052602060002090600302016040518060600160405290816000820154815260200160018201805480602002602001604051908101604052809291908181526020016000905b82821015611af9578382906000526020600020018054611a6c90612c6e565b80601f0160208091040260200160405190810160405280929190818152602001828054611a9890612c6e565b8015611ae55780601f10611aba57610100808354040283529160200191611ae5565b820191906000526020600020905b815481529060010190602001808311611ac857829003601f168201915b505050505081526020019060010190611a4d565b50505050815260200160028201805480602002602001604051908101604052809291908181526020016000905b82821015611bd2578382906000526020600020018054611b4590612c6e565b80601f0160208091040260200160405190810160405280929190818152602001828054611b7190612c6e565b8015611bbe5780601f10611b9357610100808354040283529160200191611bbe565b820191906000526020600020905b815481529060010190602001808311611ba157829003601f168201915b505050505081526020019060010190611b26565b5050505081525050905060005b816020015151811015611d3857600560009054906101000a900473ffffffffffffffffffffffffffffffffffffffff1673ffffffffffffffffffffffffffffffffffffffff1663d241a98d60038581548110611c3e57611c3d612c9f565b5b9060005260206000200160009054906101000a900473ffffffffffffffffffffffffffffffffffffffff1684602001518481518110611c8057611c7f612c9f565b5b60200260200101516040518363ffffffff1660e01b8152600401611ca5929190612fee565b602060405180830381865afa158015611cc2573d6000803e3d6000fd5b505050506040513d601f19601f82011682018060405250810190611ce69190613056565b611d25576040517f08c379a0000000000000000000000000000000000000000000000000000000008152600401611d1c906130f5565b60405180910390fd5b8080611d3090612cce565b915050611bdf565b5060005b816040015151811015611e5757600560009054906101000a900473ffffffffffffffffffffffffffffffffffffffff1673ffffffffffffffffffffffffffffffffffffffff1663d241a98d8984604001518481518110611d9f57611d9e612c9f565b5b60200260200101516040518363ffffffff1660e01b8152600401611dc4929190612fee565b602060405180830381865afa158015611de1573d6000803e3d6000fd5b505050506040513d601f19601f82011682018060405250810190611e059190613056565b611e44576040517f08c379a0000000000000000000000000000000000000000000000000000000008152600401611e3b90613187565b60405180910390fd5b8080611e4f90612cce565b915050611d3c565b508460028381548110611e6d57611e6c612c9f565b5b90600052602060002090600302016001019080519060200190611e919291906121c4565b508360028381548110611ea757611ea6612c9f565b5b90600052602060002090600302016002019080519060200190611ecb9291906121c4565b508660038381548110611ee157611ee0612c9f565b5b9060005260206000200160006101000a81548173ffffffffffffffffffffffffffffffffffffffff021916908373ffffffffffffffffffffffffffffffffffffffff160217905550600060048381548110611f3f57611f3e612c9f565b5b9060005260206000200160006101000a81548173ffffffffffffffffffffffffffffffffffffffff021916908373ffffffffffffffffffffffffffffffffffffffff1602179055507f3a40e7721851a136de859b9a818186cef85672393df10f57596e2d9c8479fd1782604051611fb69190612ae4565b60405180910390a150508080611fcb90612cce565b9150506117fb565b5050505050565b60015481565b611fe86120d7565b73ffffffffffffffffffffffffffffffffffffffff166120066111bc565b73ffffffffffffffffffffffffffffffffffffffff161461205c576040517f08c379a000000000000000000000000000000000000000000000000000000000815260040161205390612d73565b60405180910390fd5b600073ffffffffffffffffffffffffffffffffffffffff168173ffffffffffffffffffffffffffffffffffffffff16036120cb576040517f08c379a00000000000000000000000000000000000000000000000000000000081526004016120c29061343e565b60405180910390fd5b6120d4816120df565b50565b600033905090565b60008060009054906101000a900473ffffffffffffffffffffffffffffffffffffffff169050816000806101000a81548173ffffffffffffffffffffffffffffffffffffffff021916908373ffffffffffffffffffffffffffffffffffffffff1602179055508173ffffffffffffffffffffffffffffffffffffffff168173ffffffffffffffffffffffffffffffffffffffff167f8be0079c531659141344cd1fd0a4f28419497f9722a3daafe3b4186f6b6457e060405160405180910390a35050565b60405180606001604052806000815260200160608152602001606081525090565b828054828255906000526020600020908101928215612213579160200282015b82811115612212578251829080519060200190612202929190612224565b50916020019190600101906121e4565b5b50905061222091906122aa565b5090565b82805461223090612c6e565b90600052602060002090601f0160209004810192826122525760008555612299565b82601f1061226b57805160ff1916838001178555612299565b82800160010185558215612299579182015b8281111561229857825182559160200191906001019061227d565b5b5090506122a691906122ce565b5090565b5b808211156122ca57600081816122c191906122eb565b506001016122ab565b5090565b5b808211156122e75760008160009055506001016122cf565b5090565b5080546122f790612c6e565b6000825580601f106123095750612328565b601f01602090049060005260206000209081019061232791906122ce565b5b50565b6000604051905090565b600080fd5b600080fd5b6000819050919050565b6123528161233f565b811461235d57600080fd5b50565b60008135905061236f81612349565b92915050565b60006020828403121561238b5761238a612335565b5b600061239984828501612360565b91505092915050565b600073ffffffffffffffffffffffffffffffffffffffff82169050919050565b60006123cd826123a2565b9050919050565b6123dd816123c2565b82525050565b60006020820190506123f860008301846123d4565b92915050565b600081519050919050565b600082825260208201905092915050565b6000819050602082019050919050565b6124338161233f565b82525050565b600081519050919050565b600082825260208201905092915050565b6000819050602082019050919050565b600081519050919050565b600082825260208201905092915050565b60005b8381101561249f578082015181840152602081019050612484565b838111156124ae576000848401525b50505050565b6000601f19601f8301169050919050565b60006124d082612465565b6124da8185612470565b93506124ea818560208601612481565b6124f3816124b4565b840191505092915050565b600061250a83836124c5565b905092915050565b6000602082019050919050565b600061252a82612439565b6125348185612444565b93508360208202850161254685612455565b8060005b85811015612582578484038952815161256385826124fe565b945061256e83612512565b925060208a0199505060018101905061254a565b50829750879550505050505092915050565b60006060830160008301516125ac600086018261242a565b50602083015184820360208601526125c4828261251f565b915050604083015184820360408601526125de828261251f565b9150508091505092915050565b60006125f78383612594565b905092915050565b6000602082019050919050565b6000612617826123fe565b6126218185612409565b9350836020820285016126338561241a565b8060005b8581101561266f578484038952815161265085826125eb565b945061265b836125ff565b925060208a01995050600181019050612637565b50829750879550505050505092915050565b6000602082019050818103600083015261269b818461260c565b905092915050565b6126ac816123c2565b81146126b757600080fd5b50565b6000813590506126c9816126a3565b92915050565b6000602082840312156126e5576126e4612335565b5b60006126f3848285016126ba565b91505092915050565b600080fd5b7f4e487b7100000000000000000000000000000000000000000000000000000000600052604160045260246000fd5b612739826124b4565b810181811067ffffffffffffffff8211171561275857612757612701565b5b80604052505050565b600061276b61232b565b90506127778282612730565b919050565b600067ffffffffffffffff82111561279757612796612701565b5b602082029050602081019050919050565b600080fd5b60006127c06127bb8461277c565b612761565b905080838252602082019050602084028301858111156127e3576127e26127a8565b5b835b8181101561280c57806127f88882612360565b8452602084019350506020810190506127e5565b5050509392505050565b600082601f83011261282b5761282a6126fc565b5b813561283b8482602086016127ad565b91505092915050565b6000806040838503121561285b5761285a612335565b5b6000612869858286016126ba565b925050602083013567ffffffffffffffff81111561288a5761288961233a565b5b61289685828601612816565b9150509250929050565b600067ffffffffffffffff8211156128bb576128ba612701565b5b602082029050602081019050919050565b600080fd5b600067ffffffffffffffff8211156128ec576128eb612701565b5b6128f5826124b4565b9050602081019050919050565b82818337600083830152505050565b600061292461291f846128d1565b612761565b9050828152602081018484840111156129405761293f6128cc565b5b61294b848285612902565b509392505050565b600082601f830112612968576129676126fc565b5b8135612978848260208601612911565b91505092915050565b600061299461298f846128a0565b612761565b905080838252602082019050602084028301858111156129b7576129b66127a8565b5b835b818110156129fe57803567ffffffffffffffff8111156129dc576129db6126fc565b5b8086016129e98982612953565b855260208501945050506020810190506129b9565b5050509392505050565b600082601f830112612a1d57612a1c6126fc565b5b8135612a2d848260208601612981565b91505092915050565b60008060008060808587031215612a5057612a4f612335565b5b6000612a5e878288016126ba565b9450506020612a6f87828801612360565b935050604085013567ffffffffffffffff811115612a9057612a8f61233a565b5b612a9c87828801612a08565b925050606085013567ffffffffffffffff811115612abd57612abc61233a565b5b612ac987828801612a08565b91505092959194509250565b612ade8161233f565b82525050565b6000602082019050612af96000830184612ad5565b92915050565b60008060008060808587031215612b1957612b18612335565b5b6000612b27878288016126ba565b945050602085013567ffffffffffffffff811115612b4857612b4761233a565b5b612b5487828801612816565b935050604085013567ffffffffffffffff811115612b7557612b7461233a565b5b612b8187828801612a08565b925050606085013567ffffffffffffffff811115612ba257612ba161233a565b5b612bae87828801612a08565b91505092959194509250565b7f4e487b7100000000000000000000000000000000000000000000000000000000600052601160045260246000fd5b6000612bf48261233f565b9150612bff8361233f565b9250827fffffffffffffffffffffffffffffffffffffffffffffffffffffffffffffffff03821115612c3457612c33612bba565b5b828201905092915050565b7f4e487b7100000000000000000000000000000000000000000000000000000000600052602260045260246000fd5b60006002820490506001821680612c8657607f821691505b602082108103612c9957612c98612c3f565b5b50919050565b7f4e487b7100000000000000000000000000000000000000000000000000000000600052603260045260246000fd5b6000612cd98261233f565b91507fffffffffffffffffffffffffffffffffffffffffffffffffffffffffffffffff8203612d0b57612d0a612bba565b5b600182019050919050565b600082825260208201905092915050565b7f4f776e61626c653a2063616c6c6572206973206e6f7420746865206f776e6572600082015250565b6000612d5d602083612d16565b9150612d6882612d27565b602082019050919050565b60006020820190508181036000830152612d8c81612d50565b9050919050565b7f43616e6e6f742073656e6420636f696e7320746f20746869732061646472657360008201527f7300000000000000000000000000000000000000000000000000000000000000602082015250565b6000612def602183612d16565b9150612dfa82612d93565b604082019050919050565b60006020820190508181036000830152612e1e81612de2565b9050919050565b7f5370656369667920616e20616d6f756e7420746f2073656e6400000000000000600082015250565b6000612e5b601983612d16565b9150612e6682612e25565b602082019050919050565b60006020820190508181036000830152612e8a81612e4e565b9050919050565b7f596f7520646f206e6f742068617665207065726d697373696f6e206f7665722060008201527f616c6c20746865736520636f696e730000000000000000000000000000000000602082015250565b6000612eed602f83612d16565b9150612ef882612e91565b604082019050919050565b60006020820190508181036000830152612f1c81612ee0565b9050919050565b7f596f752063616e6e6f742073656e6420636f696e7320746f20796f757273656c60008201527f6600000000000000000000000000000000000000000000000000000000000000602082015250565b6000612f7f602183612d16565b9150612f8a82612f23565b604082019050919050565b60006020820190508181036000830152612fae81612f72565b9050919050565b6000612fc082612465565b612fca8185612d16565b9350612fda818560208601612481565b612fe3816124b4565b840191505092915050565b600060408201905061300360008301856123d4565b81810360208301526130158184612fb5565b90509392505050565b60008115159050919050565b6130338161301e565b811461303e57600080fd5b50565b6000815190506130508161302a565b92915050565b60006020828403121561306c5761306b612335565b5b600061307a84828501613041565b91505092915050565b7f4e6f7420616c6c2073656e6465722d636f6e646974696f6e732066756c66696c60008201527f6c65640000000000000000000000000000000000000000000000000000000000602082015250565b60006130df602383612d16565b91506130ea82613083565b604082019050919050565b6000602082019050818103600083015261310e816130d2565b9050919050565b7f4e6f7420616c6c2072656365697665722d636f6e646974696f6e732066756c6660008201527f696c6c6564000000000000000000000000000000000000000000000000000000602082015250565b6000613171602583612d16565b915061317c82613115565b604082019050919050565b600060208201905081810360008301526131a081613164565b9050919050565b7f43616e6e6f74206d696e7420746f207468697320616464726573730000000000600082015250565b60006131dd601b83612d16565b91506131e8826131a7565b602082019050919050565b6000602082019050818103600083015261320c816131d0565b9050919050565b7f4d696e742d616d6f756e7420756e737065636966696564000000000000000000600082015250565b6000613249601783612d16565b915061325482613213565b602082019050919050565b600060208201905081810360008301526132788161323c565b9050919050565b60006040820190506132946000830185612ad5565b6132a160208301846123d4565b9392505050565b7f5370656369667920636f696e7320796f752077616e7420746f2067697665207060008201527f65726d697373696f6e20666f7200000000000000000000000000000000000000602082015250565b6000613304602d83612d16565b915061330f826132a8565b604082019050919050565b60006020820190508181036000830152613333816132f7565b9050919050565b7f596f7520617265206e6f7420746865206f776e6572206f6620616c6c2073706560008201527f63696669656420636f696e730000000000000000000000000000000000000000602082015250565b6000613396602c83612d16565b91506133a18261333a565b604082019050919050565b600060208201905081810360008301526133c581613389565b9050919050565b7f4f776e61626c653a206e6577206f776e657220697320746865207a65726f206160008201527f6464726573730000000000000000000000000000000000000000000000000000602082015250565b6000613428602683612d16565b9150613433826133cc565b604082019050919050565b600060208201905081810360008301526134578161341b565b905091905056fea26469706673582212205b2b97df6e05709ab37c2c61d9fa6b5c564a13ad0d9fc1d715402346bb6d771264736f6c634300080d0033",
  "immutableReferences": {},
  "source": "// SPDX-License-Identifier: MIT\r\npragma solidity ^0.8.0;\r\n\r\nimport \"../client/node_modules/@openzeppelin/contracts/access/Ownable.sol\";\r\n\r\ncontract Bank is Ownable {\r\n\r\n    struct Coin {\r\n        uint256 coinID;\r\n        string[] senderConditions;\r\n        string[] receiverConditions;\r\n    }\r\n\r\n    uint256 public coinID;\r\n    Coin[] public coins;\r\n    address[] public owners;\r\n    address[] public allowed;\r\n    VerifyBank private verifier;\r\n    string[] private empty;\r\n    \r\n\r\n    event coinMinted(\r\n        uint256 _coinID,\r\n        address _owner\r\n    );\r\n\r\n    event coinTransfer(\r\n        uint256 _coinID\r\n    );\r\n\r\n    event coinPermitted(\r\n        uint256 _coinID\r\n    );\r\n\r\n    function setVerifier(address _verifier) public onlyOwner() {\r\n        verifier = VerifyBank(_verifier);\r\n    }\r\n\r\n    function mint(address _owner, uint256 _amount, string[] memory _senderConditions, string[] memory _receiverConditions) public onlyOwner() {\r\n        // Confirm user is actual account\r\n        require(_owner != address(0), \"Cannot mint to this address\");\r\n        // Confirm amount is set\r\n        require(_amount != 0, \"Mint-amount unspecified\");\r\n        // Create new Coins and push them to array\r\n        for(uint256 i = 0; i < _amount; i++){\r\n            coins.push(Coin(coinID, _senderConditions, _receiverConditions));\r\n            owners.push(_owner);\r\n            allowed.push(address(0));\r\n            emit coinMinted(coinID, _owner);\r\n            coinID++;\r\n        }\r\n    }\r\n\r\n    function normalTransfer(address _receiver, uint256[] memory _payment) public {\r\n        // Confirm target address exists\r\n        require(_receiver != address(0), \"Cannot send coins to this address\");\r\n        // Confirm Coins to send are specified\r\n        require(_payment.length != 0, \"Specify an amount to send\");\r\n        string[] memory empty;\r\n        for(uint256 i = 0; i < _payment.length; i++){\r\n            uint256 currID = _payment[i];\r\n            // Confirm permission to use this coin\r\n            require(owners[currID] == msg.sender || allowed[currID] == msg.sender, \"You do not have permission over all these coins\"); // TO-DO Modify to allow permission\r\n            // Confirm Receiver is not current Owner\r\n            require(owners[currID] != _receiver, \"You cannot send coins to yourself\");\r\n            Coin memory currCoin = coins[currID];\r\n            // Confirm sender/receiver conditions are fulfilled\r\n            for(uint256 j = 0; j < currCoin.senderConditions.length; j++){\r\n                require(verifier.checkCertificate(owners[currID], currCoin.senderConditions[j]), \"Not all sender-conditions fulfilled\");\r\n            }\r\n            for(uint256 j = 0; j < currCoin.receiverConditions.length; j++){\r\n                require(verifier.checkCertificate(_receiver, currCoin.receiverConditions[j]), \"Not all receiver-conditions fulfilled\");\r\n            }\r\n            coins[currID].senderConditions = empty;\r\n            coins[currID].receiverConditions = empty;\r\n            owners[currID] = _receiver;\r\n            allowed[currID] = address(0);\r\n            emit coinTransfer(currID);\r\n        }\r\n    }\r\n\r\n    function attachTransfer(address _receiver, uint256[] memory _payment, string[] memory senderConditions, string[] memory receiverConditions) public {\r\n        // Confirm target address exists\r\n        require(_receiver != address(0), \"Cannot send coins to this address\");\r\n        // Confirm Coins to send are specified\r\n        require(_payment.length != 0, \"Specify an amount to send\");\r\n        // No need to dissallow sending empty condition sets\r\n        for(uint256 i = 0; i < _payment.length; i++){\r\n            uint256 currID = _payment[i];\r\n            // Confirm permission to use this coin\r\n            require(owners[currID] == msg.sender || allowed[currID] == msg.sender, \"You do not have permission over all these coins\"); // TO-DO Modify to allow permission\r\n            // Confirm Receiver is not current Owner\r\n            require(owners[currID] != _receiver, \"You cannot send coins to yourself\");\r\n            Coin memory currCoin = coins[currID];\r\n            // Confirm sender/receiver conditions are fulfilled\r\n            for(uint256 j = 0; j < currCoin.senderConditions.length; j++){\r\n                require(verifier.checkCertificate(owners[currID], currCoin.senderConditions[j]), \"Not all sender-conditions fulfilled\");\r\n            }\r\n            for(uint256 j = 0; j < currCoin.receiverConditions.length; j++){\r\n                require(verifier.checkCertificate(_receiver, currCoin.receiverConditions[j]), \"Not all receiver-conditions fulfilled\");\r\n            }\r\n            coins[currID].senderConditions = senderConditions;\r\n            coins[currID].receiverConditions = receiverConditions;\r\n            owners[currID] = _receiver;\r\n            allowed[currID] = address(0);\r\n            emit coinTransfer(currID);\r\n        }\r\n    }\r\n\r\n    function permit(address _target, uint256[] memory _coins) public {\r\n        // Confirm target address exists\r\n        require(_target != address(0), \"Cannot send coins to this address\");\r\n        // Confirm coins are specified\r\n        require(_coins.length != 0, \"Specify coins you want to give permission for\");\r\n        for(uint256 i = 0; i < _coins.length; i++){\r\n            uint256 currID = _coins[i];\r\n            require(owners[currID] == msg.sender, \"You are not the owner of all specified coins\");\r\n            allowed[currID] = _target;\r\n            emit coinPermitted(currID);\r\n        }\r\n    }\r\n\r\n    function wallet() public view returns (Coin[] memory) {\r\n        Coin[] memory balance = new Coin[](coinID);\r\n        Coin memory defaultCoin = Coin(coinID + 1, empty, empty);\r\n        for(uint i = 0; i < coinID; i++){\r\n            if(owners[i] == msg.sender){\r\n                balance[i] = coins[i];\r\n            } else {\r\n                balance[i] = defaultCoin;\r\n            }\r\n        }\r\n        return balance;\r\n    } \r\n}\r\n\r\ncontract VerifyBank {\r\n    function checkCertificate(address user, string memory condition) public view returns (bool) {}\r\n}",
  "sourcePath": "C:\\Bachelor_Code\\Smart-Sponsor-v3\\contracts\\Bank.sol",
  "compiler": {
    "name": "solc",
    "version": "0.8.13+commit.abaa5c0e.Emscripten.clang"
  },
  "schemaVersion": "3.4.4",
  "updatedAt": "2022-04-28T23:05:00.301Z",
  "networkType": "ethereum",
  "devdoc": {
    "kind": "dev",
    "methods": {
      "owner()": {
        "details": "Returns the address of the current owner."
      },
      "renounceOwnership()": {
        "details": "Leaves the contract without owner. It will not be possible to call `onlyOwner` functions anymore. Can only be called by the current owner. NOTE: Renouncing ownership will leave the contract without an owner, thereby removing any functionality that is only available to the owner."
      },
      "transferOwnership(address)": {
        "details": "Transfers ownership of the contract to a new account (`newOwner`). Can only be called by the current owner."
      }
    },
    "version": 1
  },
  "userdoc": {
    "kind": "user",
    "methods": {},
    "version": 1
  }
}