{
  "contractName": "Bank",
  "abi": [
    {
      "anonymous": false,
      "inputs": [
        {
          "indexed": true,
          "internalType": "address",
          "name": "previousOwner",
          "type": "address"
        },
        {
          "indexed": true,
          "internalType": "address",
          "name": "newOwner",
          "type": "address"
        }
      ],
      "name": "OwnershipTransferred",
      "type": "event"
    },
    {
      "inputs": [
        {
          "internalType": "uint256",
          "name": "",
          "type": "uint256"
        }
      ],
      "name": "allowed",
      "outputs": [
        {
          "internalType": "address",
          "name": "",
          "type": "address"
        }
      ],
      "stateMutability": "view",
      "type": "function",
      "constant": true
    },
    {
      "inputs": [],
      "name": "coinID",
      "outputs": [
        {
          "internalType": "uint256",
          "name": "",
          "type": "uint256"
        }
      ],
      "stateMutability": "view",
      "type": "function",
      "constant": true
    },
    {
      "inputs": [
        {
          "internalType": "uint256",
          "name": "",
          "type": "uint256"
        }
      ],
      "name": "coins",
      "outputs": [
        {
          "internalType": "uint256",
          "name": "coinID",
          "type": "uint256"
        },
        {
          "internalType": "address",
          "name": "permit",
          "type": "address"
        }
      ],
      "stateMutability": "view",
      "type": "function",
      "constant": true
    },
    {
      "inputs": [],
      "name": "owner",
      "outputs": [
        {
          "internalType": "address",
          "name": "",
          "type": "address"
        }
      ],
      "stateMutability": "view",
      "type": "function",
      "constant": true
    },
    {
      "inputs": [
        {
          "internalType": "uint256",
          "name": "",
          "type": "uint256"
        }
      ],
      "name": "owners",
      "outputs": [
        {
          "internalType": "address",
          "name": "",
          "type": "address"
        }
      ],
      "stateMutability": "view",
      "type": "function",
      "constant": true
    },
    {
      "inputs": [],
      "name": "renounceOwnership",
      "outputs": [],
      "stateMutability": "nonpayable",
      "type": "function"
    },
    {
      "inputs": [
        {
          "internalType": "address",
          "name": "newOwner",
          "type": "address"
        }
      ],
      "name": "transferOwnership",
      "outputs": [],
      "stateMutability": "nonpayable",
      "type": "function"
    },
    {
      "inputs": [],
      "name": "verifier",
      "outputs": [
        {
          "internalType": "contract VerifyBank",
          "name": "",
          "type": "address"
        }
      ],
      "stateMutability": "view",
      "type": "function",
      "constant": true
    },
    {
      "inputs": [
        {
          "internalType": "address",
          "name": "_verifier",
          "type": "address"
        }
      ],
      "name": "setVerifier",
      "outputs": [],
      "stateMutability": "nonpayable",
      "type": "function"
    },
    {
      "inputs": [
        {
          "internalType": "address",
          "name": "_owner",
          "type": "address"
        },
        {
          "internalType": "uint256",
          "name": "_amount",
          "type": "uint256"
        },
        {
          "internalType": "string[]",
          "name": "_senderConditions",
          "type": "string[]"
        },
        {
          "internalType": "string[]",
          "name": "_receiverConditions",
          "type": "string[]"
        }
      ],
      "name": "mint",
      "outputs": [],
      "stateMutability": "nonpayable",
      "type": "function"
    },
    {
      "inputs": [
        {
          "internalType": "address",
          "name": "_receiver",
          "type": "address"
        },
        {
          "internalType": "uint256[]",
          "name": "_payment",
          "type": "uint256[]"
        }
      ],
      "name": "normalTransfer",
      "outputs": [],
      "stateMutability": "nonpayable",
      "type": "function"
    },
    {
      "inputs": [
        {
          "internalType": "address",
          "name": "_receiver",
          "type": "address"
        },
        {
          "internalType": "uint256[]",
          "name": "_payment",
          "type": "uint256[]"
        },
        {
          "internalType": "string[]",
          "name": "_senderConditions",
          "type": "string[]"
        },
        {
          "internalType": "string[]",
          "name": "_receiverConditions",
          "type": "string[]"
        }
      ],
      "name": "attachTransfer",
      "outputs": [],
      "stateMutability": "nonpayable",
      "type": "function"
    },
    {
      "inputs": [
        {
          "internalType": "address",
          "name": "_target",
          "type": "address"
        },
        {
          "internalType": "uint256[]",
          "name": "_coins",
          "type": "uint256[]"
        }
      ],
      "name": "permit",
      "outputs": [],
      "stateMutability": "nonpayable",
      "type": "function"
    },
    {
      "inputs": [],
      "name": "wallet",
      "outputs": [
        {
          "components": [
            {
              "internalType": "uint256",
              "name": "coinID",
              "type": "uint256"
            },
            {
              "internalType": "address",
              "name": "permit",
              "type": "address"
            },
            {
              "internalType": "string[]",
              "name": "senderConditions",
              "type": "string[]"
            },
            {
              "internalType": "string[]",
              "name": "receiverConditions",
              "type": "string[]"
            }
          ],
          "internalType": "struct Bank.Coin[]",
          "name": "",
          "type": "tuple[]"
        }
      ],
      "stateMutability": "view",
      "type": "function",
      "constant": true
    }
  ],
  "bytecode": "0x60806040523480156200001157600080fd5b5062000032620000266200003860201b60201c565b6200004060201b60201c565b62000104565b600033905090565b60008060009054906101000a900473ffffffffffffffffffffffffffffffffffffffff169050816000806101000a81548173ffffffffffffffffffffffffffffffffffffffff021916908373ffffffffffffffffffffffffffffffffffffffff1602179055508173ffffffffffffffffffffffffffffffffffffffff168173ffffffffffffffffffffffffffffffffffffffff167f8be0079c531659141344cd1fd0a4f28419497f9722a3daafe3b4186f6b6457e060405160405180910390a35050565b613b0780620001146000396000f3fe608060405234801561001057600080fd5b50600436106100ea5760003560e01c80638da5cb5b1161008c578063c661065711610066578063c661065714610223578063d714e8e914610254578063d91bb26c14610270578063f2fde38b1461028e576100ea565b80638da5cb5b146101cd578063a0a88c94146101eb578063a4acb5b414610207576100ea565b8063521eb273116100c8578063521eb2731461016d5780635437988d1461018b5780636aa2932c146101a7578063715018a6146101c3576100ea565b8063025e7c27146100ef578063214296e81461011f5780632b7ac3f31461014f575b600080fd5b6101096004803603810190610104919061250c565b6102aa565b604051610116919061257a565b60405180910390f35b6101396004803603810190610134919061250c565b6102e9565b604051610146919061257a565b60405180910390f35b610157610328565b60405161016491906125f4565b60405180910390f35b61017561034e565b60405161018291906128b4565b60405180910390f35b6101a560048036038101906101a09190612902565b610750565b005b6101c160048036038101906101bc9190612a77565b61087f565b005b6101cb61118e565b005b6101d5611216565b6040516101e2919061257a565b60405180910390f35b61020560048036038101906102009190612c69565b61123f565b005b610221600480360381019061021c9190612a77565b611563565b005b61023d6004803603810190610238919061250c565b6117c7565b60405161024b929190612d17565b60405180910390f35b61026e60048036038101906102699190612d40565b61181b565b005b610278612184565b6040516102859190612dfb565b60405180910390f35b6102a860048036038101906102a39190612902565b61218a565b005b600381815481106102ba57600080fd5b906000526020600020016000915054906101000a900473ffffffffffffffffffffffffffffffffffffffff1681565b600481815481106102f957600080fd5b906000526020600020016000915054906101000a900473ffffffffffffffffffffffffffffffffffffffff1681565b600560009054906101000a900473ffffffffffffffffffffffffffffffffffffffff1681565b60606000805b6001548110156103f1573373ffffffffffffffffffffffffffffffffffffffff166003828154811061038957610388612e16565b5b9060005260206000200160009054906101000a900473ffffffffffffffffffffffffffffffffffffffff1673ffffffffffffffffffffffffffffffffffffffff16036103de5781806103da90612e74565b9250505b80806103e990612e74565b915050610354565b5060008167ffffffffffffffff81111561040e5761040d612934565b5b60405190808252806020026020018201604052801561044757816020015b61043461234d565b81526020019060019003908161042c5790505b5090506000805b83821015610746573373ffffffffffffffffffffffffffffffffffffffff166003828154811061048157610480612e16565b5b9060005260206000200160009054906101000a900473ffffffffffffffffffffffffffffffffffffffff1673ffffffffffffffffffffffffffffffffffffffff160361073357600281815481106104db576104da612e16565b5b9060005260206000209060040201604051806080016040529081600082015481526020016001820160009054906101000a900473ffffffffffffffffffffffffffffffffffffffff1673ffffffffffffffffffffffffffffffffffffffff1673ffffffffffffffffffffffffffffffffffffffff16815260200160028201805480602002602001604051908101604052809291908181526020016000905b8282101561062557838290600052602060002001805461059890612eeb565b80601f01602080910402602001604051908101604052809291908181526020018280546105c490612eeb565b80156106115780601f106105e657610100808354040283529160200191610611565b820191906000526020600020905b8154815290600101906020018083116105f457829003601f168201915b505050505081526020019060010190610579565b50505050815260200160038201805480602002602001604051908101604052809291908181526020016000905b828210156106fe57838290600052602060002001805461067190612eeb565b80601f016020809104026020016040519081016040528092919081815260200182805461069d90612eeb565b80156106ea5780601f106106bf576101008083540402835291602001916106ea565b820191906000526020600020905b8154815290600101906020018083116106cd57829003601f168201915b505050505081526020019060010190610652565b505050508152505083838151811061071957610718612e16565b5b6020026020010181905250818061072f90612e74565b9250505b808061073e90612e74565b91505061044e565b5081935050505090565b610758612281565b73ffffffffffffffffffffffffffffffffffffffff16610776611216565b73ffffffffffffffffffffffffffffffffffffffff16146107cc576040517f08c379a00000000000000000000000000000000000000000000000000000000081526004016107c390612f79565b60405180910390fd5b600073ffffffffffffffffffffffffffffffffffffffff168173ffffffffffffffffffffffffffffffffffffffff160361083b576040517f08c379a00000000000000000000000000000000000000000000000000000000081526004016108329061300b565b60405180910390fd5b80600560006101000a81548173ffffffffffffffffffffffffffffffffffffffff021916908373ffffffffffffffffffffffffffffffffffffffff16021790555050565b600073ffffffffffffffffffffffffffffffffffffffff168273ffffffffffffffffffffffffffffffffffffffff16036108ee576040517f08c379a00000000000000000000000000000000000000000000000000000000081526004016108e59061309d565b60405180910390fd5b6000815103610932576040517f08c379a000000000000000000000000000000000000000000000000000000000815260040161092990613109565b60405180910390fd5b60005b815181101561118957600082828151811061095357610952612e16565b5b602002602001015190503373ffffffffffffffffffffffffffffffffffffffff166003828154811061098857610987612e16565b5b9060005260206000200160009054906101000a900473ffffffffffffffffffffffffffffffffffffffff1673ffffffffffffffffffffffffffffffffffffffff161480610a3e57503373ffffffffffffffffffffffffffffffffffffffff16600482815481106109fb576109fa612e16565b5b9060005260206000200160009054906101000a900473ffffffffffffffffffffffffffffffffffffffff1673ffffffffffffffffffffffffffffffffffffffff16145b610a7d576040517f08c379a0000000000000000000000000000000000000000000000000000000008152600401610a749061319b565b60405180910390fd5b8373ffffffffffffffffffffffffffffffffffffffff1660038281548110610aa857610aa7612e16565b5b9060005260206000200160009054906101000a900473ffffffffffffffffffffffffffffffffffffffff1673ffffffffffffffffffffffffffffffffffffffff1603610b29576040517f08c379a0000000000000000000000000000000000000000000000000000000008152600401610b209061322d565b60405180910390fd5b600060028281548110610b3f57610b3e612e16565b5b9060005260206000209060040201604051806080016040529081600082015481526020016001820160009054906101000a900473ffffffffffffffffffffffffffffffffffffffff1673ffffffffffffffffffffffffffffffffffffffff1673ffffffffffffffffffffffffffffffffffffffff16815260200160028201805480602002602001604051908101604052809291908181526020016000905b82821015610c89578382906000526020600020018054610bfc90612eeb565b80601f0160208091040260200160405190810160405280929190818152602001828054610c2890612eeb565b8015610c755780601f10610c4a57610100808354040283529160200191610c75565b820191906000526020600020905b815481529060010190602001808311610c5857829003601f168201915b505050505081526020019060010190610bdd565b50505050815260200160038201805480602002602001604051908101604052809291908181526020016000905b82821015610d62578382906000526020600020018054610cd590612eeb565b80601f0160208091040260200160405190810160405280929190818152602001828054610d0190612eeb565b8015610d4e5780601f10610d2357610100808354040283529160200191610d4e565b820191906000526020600020905b815481529060010190602001808311610d3157829003601f168201915b505050505081526020019060010190610cb6565b5050505081525050905060005b816040015151811015610ec857600560009054906101000a900473ffffffffffffffffffffffffffffffffffffffff1673ffffffffffffffffffffffffffffffffffffffff1663d241a98d60038581548110610dce57610dcd612e16565b5b9060005260206000200160009054906101000a900473ffffffffffffffffffffffffffffffffffffffff1684604001518481518110610e1057610e0f612e16565b5b60200260200101516040518363ffffffff1660e01b8152600401610e35929190613286565b602060405180830381865afa158015610e52573d6000803e3d6000fd5b505050506040513d601f19601f82011682018060405250810190610e7691906132ee565b610eb5576040517f08c379a0000000000000000000000000000000000000000000000000000000008152600401610eac9061338d565b60405180910390fd5b8080610ec090612e74565b915050610d6f565b5060005b816060015151811015610fe757600560009054906101000a900473ffffffffffffffffffffffffffffffffffffffff1673ffffffffffffffffffffffffffffffffffffffff1663d241a98d8784606001518481518110610f2f57610f2e612e16565b5b60200260200101516040518363ffffffff1660e01b8152600401610f54929190613286565b602060405180830381865afa158015610f71573d6000803e3d6000fd5b505050506040513d601f19601f82011682018060405250810190610f9591906132ee565b610fd4576040517f08c379a0000000000000000000000000000000000000000000000000000000008152600401610fcb9061341f565b60405180910390fd5b8080610fdf90612e74565b915050610ecc565b50600660028381548110610ffe57610ffd612e16565b5b906000526020600020906004020160020190805461101d92919061238b565b5060066002838154811061103457611033612e16565b5b906000526020600020906004020160030190805461105392919061238b565b5060006002838154811061106a57611069612e16565b5b906000526020600020906004020160010160006101000a81548173ffffffffffffffffffffffffffffffffffffffff021916908373ffffffffffffffffffffffffffffffffffffffff16021790555084600383815481106110ce576110cd612e16565b5b9060005260206000200160006101000a81548173ffffffffffffffffffffffffffffffffffffffff021916908373ffffffffffffffffffffffffffffffffffffffff16021790555060006004838154811061112c5761112b612e16565b5b9060005260206000200160006101000a81548173ffffffffffffffffffffffffffffffffffffffff021916908373ffffffffffffffffffffffffffffffffffffffff1602179055505050808061118190612e74565b915050610935565b505050565b611196612281565b73ffffffffffffffffffffffffffffffffffffffff166111b4611216565b73ffffffffffffffffffffffffffffffffffffffff161461120a576040517f08c379a000000000000000000000000000000000000000000000000000000000815260040161120190612f79565b60405180910390fd5b6112146000612289565b565b60008060009054906101000a900473ffffffffffffffffffffffffffffffffffffffff16905090565b611247612281565b73ffffffffffffffffffffffffffffffffffffffff16611265611216565b73ffffffffffffffffffffffffffffffffffffffff16146112bb576040517f08c379a00000000000000000000000000000000000000000000000000000000081526004016112b290612f79565b60405180910390fd5b600073ffffffffffffffffffffffffffffffffffffffff168473ffffffffffffffffffffffffffffffffffffffff160361132a576040517f08c379a00000000000000000000000000000000000000000000000000000000081526004016113219061348b565b60405180910390fd5b6000830361136d576040517f08c379a0000000000000000000000000000000000000000000000000000000008152600401611364906134f7565b60405180910390fd5b60005b8381101561155c57600260405180608001604052806001548152602001600073ffffffffffffffffffffffffffffffffffffffff1681526020018581526020018481525090806001815401808255809150506001900390600052602060002090600402016000909190919091506000820151816000015560208201518160010160006101000a81548173ffffffffffffffffffffffffffffffffffffffff021916908373ffffffffffffffffffffffffffffffffffffffff160217905550604082015181600201908051906020019061144a9291906123e8565b5060608201518160030190805190602001906114679291906123e8565b5050506003859080600181540180825580915050600190039060005260206000200160009091909190916101000a81548173ffffffffffffffffffffffffffffffffffffffff021916908373ffffffffffffffffffffffffffffffffffffffff160217905550600460009080600181540180825580915050600190039060005260206000200160009091909190916101000a81548173ffffffffffffffffffffffffffffffffffffffff021916908373ffffffffffffffffffffffffffffffffffffffff1602179055506001600081548092919061154490612e74565b9190505550808061155490612e74565b915050611370565b5050505050565b600073ffffffffffffffffffffffffffffffffffffffff168273ffffffffffffffffffffffffffffffffffffffff16036115d2576040517f08c379a00000000000000000000000000000000000000000000000000000000081526004016115c99061309d565b60405180910390fd5b6000815103611616576040517f08c379a000000000000000000000000000000000000000000000000000000000815260040161160d90613589565b60405180910390fd5b60005b81518110156117c257600082828151811061163757611636612e16565b5b602002602001015190503373ffffffffffffffffffffffffffffffffffffffff166003828154811061166c5761166b612e16565b5b9060005260206000200160009054906101000a900473ffffffffffffffffffffffffffffffffffffffff1673ffffffffffffffffffffffffffffffffffffffff16146116ed576040517f08c379a00000000000000000000000000000000000000000000000000000000081526004016116e49061361b565b60405180910390fd5b836002828154811061170257611701612e16565b5b906000526020600020906004020160010160006101000a81548173ffffffffffffffffffffffffffffffffffffffff021916908373ffffffffffffffffffffffffffffffffffffffff160217905550836004828154811061176657611765612e16565b5b9060005260206000200160006101000a81548173ffffffffffffffffffffffffffffffffffffffff021916908373ffffffffffffffffffffffffffffffffffffffff1602179055505080806117ba90612e74565b915050611619565b505050565b600281815481106117d757600080fd5b90600052602060002090600402016000915090508060000154908060010160009054906101000a900473ffffffffffffffffffffffffffffffffffffffff16905082565b600073ffffffffffffffffffffffffffffffffffffffff168473ffffffffffffffffffffffffffffffffffffffff160361188a576040517f08c379a00000000000000000000000000000000000000000000000000000000081526004016118819061309d565b60405180910390fd5b60008351036118ce576040517f08c379a00000000000000000000000000000000000000000000000000000000081526004016118c590613109565b60405180910390fd5b6000825111806118df575060008151115b61191e576040517f08c379a0000000000000000000000000000000000000000000000000000000008152600401611915906136ad565b60405180910390fd5b60005b835181101561217d57600084828151811061193f5761193e612e16565b5b602002602001015190503373ffffffffffffffffffffffffffffffffffffffff166003828154811061197457611973612e16565b5b9060005260206000200160009054906101000a900473ffffffffffffffffffffffffffffffffffffffff1673ffffffffffffffffffffffffffffffffffffffff161480611a2a57503373ffffffffffffffffffffffffffffffffffffffff16600482815481106119e7576119e6612e16565b5b9060005260206000200160009054906101000a900473ffffffffffffffffffffffffffffffffffffffff1673ffffffffffffffffffffffffffffffffffffffff16145b611a69576040517f08c379a0000000000000000000000000000000000000000000000000000000008152600401611a609061319b565b60405180910390fd5b8573ffffffffffffffffffffffffffffffffffffffff1660038281548110611a9457611a93612e16565b5b9060005260206000200160009054906101000a900473ffffffffffffffffffffffffffffffffffffffff1673ffffffffffffffffffffffffffffffffffffffff1603611b15576040517f08c379a0000000000000000000000000000000000000000000000000000000008152600401611b0c9061322d565b60405180910390fd5b600060028281548110611b2b57611b2a612e16565b5b9060005260206000209060040201604051806080016040529081600082015481526020016001820160009054906101000a900473ffffffffffffffffffffffffffffffffffffffff1673ffffffffffffffffffffffffffffffffffffffff1673ffffffffffffffffffffffffffffffffffffffff16815260200160028201805480602002602001604051908101604052809291908181526020016000905b82821015611c75578382906000526020600020018054611be890612eeb565b80601f0160208091040260200160405190810160405280929190818152602001828054611c1490612eeb565b8015611c615780601f10611c3657610100808354040283529160200191611c61565b820191906000526020600020905b815481529060010190602001808311611c4457829003601f168201915b505050505081526020019060010190611bc9565b50505050815260200160038201805480602002602001604051908101604052809291908181526020016000905b82821015611d4e578382906000526020600020018054611cc190612eeb565b80601f0160208091040260200160405190810160405280929190818152602001828054611ced90612eeb565b8015611d3a5780601f10611d0f57610100808354040283529160200191611d3a565b820191906000526020600020905b815481529060010190602001808311611d1d57829003601f168201915b505050505081526020019060010190611ca2565b5050505081525050905060005b816040015151811015611eb457600560009054906101000a900473ffffffffffffffffffffffffffffffffffffffff1673ffffffffffffffffffffffffffffffffffffffff1663d241a98d60038581548110611dba57611db9612e16565b5b9060005260206000200160009054906101000a900473ffffffffffffffffffffffffffffffffffffffff1684604001518481518110611dfc57611dfb612e16565b5b60200260200101516040518363ffffffff1660e01b8152600401611e21929190613286565b602060405180830381865afa158015611e3e573d6000803e3d6000fd5b505050506040513d601f19601f82011682018060405250810190611e6291906132ee565b611ea1576040517f08c379a0000000000000000000000000000000000000000000000000000000008152600401611e989061338d565b60405180910390fd5b8080611eac90612e74565b915050611d5b565b5060005b816060015151811015611fd357600560009054906101000a900473ffffffffffffffffffffffffffffffffffffffff1673ffffffffffffffffffffffffffffffffffffffff1663d241a98d8984606001518481518110611f1b57611f1a612e16565b5b60200260200101516040518363ffffffff1660e01b8152600401611f40929190613286565b602060405180830381865afa158015611f5d573d6000803e3d6000fd5b505050506040513d601f19601f82011682018060405250810190611f8191906132ee565b611fc0576040517f08c379a0000000000000000000000000000000000000000000000000000000008152600401611fb79061341f565b60405180910390fd5b8080611fcb90612e74565b915050611eb8565b508460028381548110611fe957611fe8612e16565b5b9060005260206000209060040201600201908051906020019061200d9291906123e8565b50836002838154811061202357612022612e16565b5b906000526020600020906004020160030190805190602001906120479291906123e8565b5060006002838154811061205e5761205d612e16565b5b906000526020600020906004020160010160006101000a81548173ffffffffffffffffffffffffffffffffffffffff021916908373ffffffffffffffffffffffffffffffffffffffff16021790555086600383815481106120c2576120c1612e16565b5b9060005260206000200160006101000a81548173ffffffffffffffffffffffffffffffffffffffff021916908373ffffffffffffffffffffffffffffffffffffffff1602179055506000600483815481106121205761211f612e16565b5b9060005260206000200160006101000a81548173ffffffffffffffffffffffffffffffffffffffff021916908373ffffffffffffffffffffffffffffffffffffffff1602179055505050808061217590612e74565b915050611921565b5050505050565b60015481565b612192612281565b73ffffffffffffffffffffffffffffffffffffffff166121b0611216565b73ffffffffffffffffffffffffffffffffffffffff1614612206576040517f08c379a00000000000000000000000000000000000000000000000000000000081526004016121fd90612f79565b60405180910390fd5b600073ffffffffffffffffffffffffffffffffffffffff168173ffffffffffffffffffffffffffffffffffffffff1603612275576040517f08c379a000000000000000000000000000000000000000000000000000000000815260040161226c9061373f565b60405180910390fd5b61227e81612289565b50565b600033905090565b60008060009054906101000a900473ffffffffffffffffffffffffffffffffffffffff169050816000806101000a81548173ffffffffffffffffffffffffffffffffffffffff021916908373ffffffffffffffffffffffffffffffffffffffff1602179055508173ffffffffffffffffffffffffffffffffffffffff168173ffffffffffffffffffffffffffffffffffffffff167f8be0079c531659141344cd1fd0a4f28419497f9722a3daafe3b4186f6b6457e060405160405180910390a35050565b604051806080016040528060008152602001600073ffffffffffffffffffffffffffffffffffffffff16815260200160608152602001606081525090565b8280548282559060005260206000209081019282156123d75760005260206000209182015b828111156123d657828290816123c69190613917565b50916001019190600101906123b0565b5b5090506123e49190612441565b5090565b828054828255906000526020600020908101928215612430579160200282015b8281111561242f57825182908161241f91906139ff565b5091602001919060010190612408565b5b50905061243d9190612441565b5090565b5b8082111561246157600081816124589190612465565b50600101612442565b5090565b50805461247190612eeb565b6000825580601f1061248357506124a2565b601f0160209004906000526020600020908101906124a191906124a5565b5b50565b5b808211156124be5760008160009055506001016124a6565b5090565b6000604051905090565b600080fd5b600080fd5b6000819050919050565b6124e9816124d6565b81146124f457600080fd5b50565b600081359050612506816124e0565b92915050565b600060208284031215612522576125216124cc565b5b6000612530848285016124f7565b91505092915050565b600073ffffffffffffffffffffffffffffffffffffffff82169050919050565b600061256482612539565b9050919050565b61257481612559565b82525050565b600060208201905061258f600083018461256b565b92915050565b6000819050919050565b60006125ba6125b56125b084612539565b612595565b612539565b9050919050565b60006125cc8261259f565b9050919050565b60006125de826125c1565b9050919050565b6125ee816125d3565b82525050565b600060208201905061260960008301846125e5565b92915050565b600081519050919050565b600082825260208201905092915050565b6000819050602082019050919050565b612644816124d6565b82525050565b61265381612559565b82525050565b600081519050919050565b600082825260208201905092915050565b6000819050602082019050919050565b600081519050919050565b600082825260208201905092915050565b60005b838110156126bf5780820151818401526020810190506126a4565b838111156126ce576000848401525b50505050565b6000601f19601f8301169050919050565b60006126f082612685565b6126fa8185612690565b935061270a8185602086016126a1565b612713816126d4565b840191505092915050565b600061272a83836126e5565b905092915050565b6000602082019050919050565b600061274a82612659565b6127548185612664565b93508360208202850161276685612675565b8060005b858110156127a25784840389528151612783858261271e565b945061278e83612732565b925060208a0199505060018101905061276a565b50829750879550505050505092915050565b60006080830160008301516127cc600086018261263b565b5060208301516127df602086018261264a565b50604083015184820360408601526127f7828261273f565b91505060608301518482036060860152612811828261273f565b9150508091505092915050565b600061282a83836127b4565b905092915050565b6000602082019050919050565b600061284a8261260f565b612854818561261a565b9350836020820285016128668561262b565b8060005b858110156128a25784840389528151612883858261281e565b945061288e83612832565b925060208a0199505060018101905061286a565b50829750879550505050505092915050565b600060208201905081810360008301526128ce818461283f565b905092915050565b6128df81612559565b81146128ea57600080fd5b50565b6000813590506128fc816128d6565b92915050565b600060208284031215612918576129176124cc565b5b6000612926848285016128ed565b91505092915050565b600080fd5b7f4e487b7100000000000000000000000000000000000000000000000000000000600052604160045260246000fd5b61296c826126d4565b810181811067ffffffffffffffff8211171561298b5761298a612934565b5b80604052505050565b600061299e6124c2565b90506129aa8282612963565b919050565b600067ffffffffffffffff8211156129ca576129c9612934565b5b602082029050602081019050919050565b600080fd5b60006129f36129ee846129af565b612994565b90508083825260208201905060208402830185811115612a1657612a156129db565b5b835b81811015612a3f5780612a2b88826124f7565b845260208401935050602081019050612a18565b5050509392505050565b600082601f830112612a5e57612a5d61292f565b5b8135612a6e8482602086016129e0565b91505092915050565b60008060408385031215612a8e57612a8d6124cc565b5b6000612a9c858286016128ed565b925050602083013567ffffffffffffffff811115612abd57612abc6124d1565b5b612ac985828601612a49565b9150509250929050565b600067ffffffffffffffff821115612aee57612aed612934565b5b602082029050602081019050919050565b600080fd5b600067ffffffffffffffff821115612b1f57612b1e612934565b5b612b28826126d4565b9050602081019050919050565b82818337600083830152505050565b6000612b57612b5284612b04565b612994565b905082815260208101848484011115612b7357612b72612aff565b5b612b7e848285612b35565b509392505050565b600082601f830112612b9b57612b9a61292f565b5b8135612bab848260208601612b44565b91505092915050565b6000612bc7612bc284612ad3565b612994565b90508083825260208201905060208402830185811115612bea57612be96129db565b5b835b81811015612c3157803567ffffffffffffffff811115612c0f57612c0e61292f565b5b808601612c1c8982612b86565b85526020850194505050602081019050612bec565b5050509392505050565b600082601f830112612c5057612c4f61292f565b5b8135612c60848260208601612bb4565b91505092915050565b60008060008060808587031215612c8357612c826124cc565b5b6000612c91878288016128ed565b9450506020612ca2878288016124f7565b935050604085013567ffffffffffffffff811115612cc357612cc26124d1565b5b612ccf87828801612c3b565b925050606085013567ffffffffffffffff811115612cf057612cef6124d1565b5b612cfc87828801612c3b565b91505092959194509250565b612d11816124d6565b82525050565b6000604082019050612d2c6000830185612d08565b612d39602083018461256b565b9392505050565b60008060008060808587031215612d5a57612d596124cc565b5b6000612d68878288016128ed565b945050602085013567ffffffffffffffff811115612d8957612d886124d1565b5b612d9587828801612a49565b935050604085013567ffffffffffffffff811115612db657612db56124d1565b5b612dc287828801612c3b565b925050606085013567ffffffffffffffff811115612de357612de26124d1565b5b612def87828801612c3b565b91505092959194509250565b6000602082019050612e106000830184612d08565b92915050565b7f4e487b7100000000000000000000000000000000000000000000000000000000600052603260045260246000fd5b7f4e487b7100000000000000000000000000000000000000000000000000000000600052601160045260246000fd5b6000612e7f826124d6565b91507fffffffffffffffffffffffffffffffffffffffffffffffffffffffffffffffff8203612eb157612eb0612e45565b5b600182019050919050565b7f4e487b7100000000000000000000000000000000000000000000000000000000600052602260045260246000fd5b60006002820490506001821680612f0357607f821691505b602082108103612f1657612f15612ebc565b5b50919050565b600082825260208201905092915050565b7f4f776e61626c653a2063616c6c6572206973206e6f7420746865206f776e6572600082015250565b6000612f63602083612f1c565b9150612f6e82612f2d565b602082019050919050565b60006020820190508181036000830152612f9281612f56565b9050919050565b7f43616e6e6f742073657420566572696669657220746f2074686973206164647260008201527f6573730000000000000000000000000000000000000000000000000000000000602082015250565b6000612ff5602383612f1c565b915061300082612f99565b604082019050919050565b6000602082019050818103600083015261302481612fe8565b9050919050565b7f43616e6e6f742073656e6420636f696e7320746f20746869732061646472657360008201527f7300000000000000000000000000000000000000000000000000000000000000602082015250565b6000613087602183612f1c565b91506130928261302b565b604082019050919050565b600060208201905081810360008301526130b68161307a565b9050919050565b7f5370656369667920616e20616d6f756e7420746f2073656e6400000000000000600082015250565b60006130f3601983612f1c565b91506130fe826130bd565b602082019050919050565b60006020820190508181036000830152613122816130e6565b9050919050565b7f596f7520646f206e6f742068617665207065726d697373696f6e206f7665722060008201527f616c6c20746865736520636f696e730000000000000000000000000000000000602082015250565b6000613185602f83612f1c565b915061319082613129565b604082019050919050565b600060208201905081810360008301526131b481613178565b9050919050565b7f596f752063616e6e6f742073656e6420636f696e7320746f20796f757273656c60008201527f6600000000000000000000000000000000000000000000000000000000000000602082015250565b6000613217602183612f1c565b9150613222826131bb565b604082019050919050565b600060208201905081810360008301526132468161320a565b9050919050565b600061325882612685565b6132628185612f1c565b93506132728185602086016126a1565b61327b816126d4565b840191505092915050565b600060408201905061329b600083018561256b565b81810360208301526132ad818461324d565b90509392505050565b60008115159050919050565b6132cb816132b6565b81146132d657600080fd5b50565b6000815190506132e8816132c2565b92915050565b600060208284031215613304576133036124cc565b5b6000613312848285016132d9565b91505092915050565b7f4e6f7420616c6c2073656e6465722d636f6e646974696f6e732066756c66696c60008201527f6c65640000000000000000000000000000000000000000000000000000000000602082015250565b6000613377602383612f1c565b91506133828261331b565b604082019050919050565b600060208201905081810360008301526133a68161336a565b9050919050565b7f4e6f7420616c6c2072656365697665722d636f6e646974696f6e732066756c6660008201527f696c6c6564000000000000000000000000000000000000000000000000000000602082015250565b6000613409602583612f1c565b9150613414826133ad565b604082019050919050565b60006020820190508181036000830152613438816133fc565b9050919050565b7f43616e6e6f74206d696e7420746f207468697320616464726573730000000000600082015250565b6000613475601b83612f1c565b91506134808261343f565b602082019050919050565b600060208201905081810360008301526134a481613468565b9050919050565b7f4d696e742d616d6f756e7420756e737065636966696564000000000000000000600082015250565b60006134e1601783612f1c565b91506134ec826134ab565b602082019050919050565b60006020820190508181036000830152613510816134d4565b9050919050565b7f5370656369667920636f696e7320796f752077616e7420746f2067697665207060008201527f65726d697373696f6e20666f7200000000000000000000000000000000000000602082015250565b6000613573602d83612f1c565b915061357e82613517565b604082019050919050565b600060208201905081810360008301526135a281613566565b9050919050565b7f596f7520617265206e6f7420746865206f776e6572206f6620616c6c2073706560008201527f63696669656420636f696e730000000000000000000000000000000000000000602082015250565b6000613605602c83612f1c565b9150613610826135a9565b604082019050919050565b60006020820190508181036000830152613634816135f8565b9050919050565b7f4174206c65617374206f6e65206f662074686520636f6e646974696f6e20736560008201527f74732073686f756c6420636f6e7461696e20636f6e646974696f6e7300000000602082015250565b6000613697603c83612f1c565b91506136a28261363b565b604082019050919050565b600060208201905081810360008301526136c68161368a565b9050919050565b7f4f776e61626c653a206e6577206f776e657220697320746865207a65726f206160008201527f6464726573730000000000000000000000000000000000000000000000000000602082015250565b6000613729602683612f1c565b9150613734826136cd565b604082019050919050565b600060208201905081810360008301526137588161371c565b9050919050565b60008154905061376e81612eeb565b9050919050565b60008190508160005260206000209050919050565b60006020601f8301049050919050565b600082821b905092915050565b6000600883026137d77fffffffffffffffffffffffffffffffffffffffffffffffffffffffffffffffff8261379a565b6137e1868361379a565b95508019841693508086168417925050509392505050565b600061381461380f61380a846124d6565b612595565b6124d6565b9050919050565b6000819050919050565b61382e836137f9565b61384261383a8261381b565b8484546137a7565b825550505050565b600090565b61385761384a565b613862818484613825565b505050565b5b818110156138865761387b60008261384f565b600181019050613868565b5050565b601f8211156138cb5761389c81613775565b6138a58461378a565b810160208510156138b4578190505b6138c86138c08561378a565b830182613867565b50505b505050565b600082821c905092915050565b60006138ee600019846008026138d0565b1980831691505092915050565b600061390783836138dd565b9150826002028217905092915050565b8181036139255750506139fd565b61392e8261375f565b67ffffffffffffffff81111561394757613946612934565b5b6139518254612eeb565b61395c82828561388a565b6000601f83116001811461398b5760008415613979578287015490505b61398385826138fb565b8655506139f6565b601f19841661399987613775565b96506139a486613775565b60005b828110156139cc578489015482556001820191506001850194506020810190506139a7565b868310156139e957848901546139e5601f8916826138dd565b8355505b6001600288020188555050505b5050505050505b565b613a0882612685565b67ffffffffffffffff811115613a2157613a20612934565b5b613a2b8254612eeb565b613a3682828561388a565b600060209050601f831160018114613a695760008415613a57578287015190505b613a6185826138fb565b865550613ac9565b601f198416613a7786613775565b60005b82811015613a9f57848901518255600182019150602085019450602081019050613a7a565b86831015613abc5784890151613ab8601f8916826138dd565b8355505b6001600288020188555050505b50505050505056fea2646970667358221220c2f21874ba5a8f7998c987901d9e256e07fc307e768380100a28cd55d2d0da7164736f6c634300080f0033",
  "immutableReferences": {},
  "source": "// SPDX-License-Identifier: MIT\r\npragma solidity ^0.8.0;\r\n\r\nimport \"../client/node_modules/@openzeppelin/contracts/access/Ownable.sol\";\r\n\r\ncontract Bank is Ownable {\r\n\r\n    struct Coin {\r\n        uint256 coinID;\r\n        address permit;\r\n        string[] senderConditions;\r\n        string[] receiverConditions;\r\n    }\r\n\r\n    uint256 public coinID;\r\n    Coin[] public coins;\r\n    address[] public owners;\r\n    address[] public allowed;\r\n    VerifyBank public verifier;\r\n    string[] private empty;\r\n\r\n    function setVerifier(address _verifier) public onlyOwner() {\r\n        require(_verifier != address(0), \"Cannot set Verifier to this address\");\r\n        verifier = VerifyBank(_verifier);\r\n    }\r\n\r\n    // WARNING: In Theory it is possible to set singular strings to the empty string. Checking this in the backend is too \r\n    // resource intensive, so the front end will assure sanity for conditions.\r\n\r\n    function mint(address _owner, uint256 _amount, string[] memory _senderConditions, string[] memory _receiverConditions) public onlyOwner() {\r\n        // Confirm user is actual account\r\n        require(_owner != address(0), \"Cannot mint to this address\");\r\n        // Confirm amount is set\r\n        require(_amount != 0, \"Mint-amount unspecified\");\r\n        // Create new Coins and push them to array\r\n        for(uint256 i = 0; i < _amount; i++){\r\n            coins.push(Coin(coinID, address(0), _senderConditions, _receiverConditions));\r\n            owners.push(_owner);\r\n            allowed.push(address(0));\r\n            coinID++;\r\n        }\r\n    }\r\n\r\n    function normalTransfer(address _receiver, uint256[] memory _payment) public {\r\n        // Confirm target address exists\r\n        require(_receiver != address(0), \"Cannot send coins to this address\");\r\n        // Confirm Coins to send are specified\r\n        require(_payment.length != 0, \"Specify an amount to send\");\r\n        for(uint256 i = 0; i < _payment.length; i++){\r\n            uint256 currID = _payment[i];\r\n            // Confirm permission to use this coin\r\n            require(owners[currID] == msg.sender || allowed[currID] == msg.sender, \"You do not have permission over all these coins\");\r\n            // Confirm Receiver is not current Owner\r\n            require(owners[currID] != _receiver, \"You cannot send coins to yourself\");\r\n            Coin memory currCoin = coins[currID];\r\n            // Confirm sender/receiver conditions are fulfilled\r\n            for(uint256 j = 0; j < currCoin.senderConditions.length; j++){\r\n                require(verifier.checkCertificate(owners[currID], currCoin.senderConditions[j]), \"Not all sender-conditions fulfilled\");\r\n            }\r\n            for(uint256 j = 0; j < currCoin.receiverConditions.length; j++){\r\n                require(verifier.checkCertificate(_receiver, currCoin.receiverConditions[j]), \"Not all receiver-conditions fulfilled\");\r\n            }\r\n            coins[currID].senderConditions = empty;\r\n            coins[currID].receiverConditions = empty;\r\n            coins[currID].permit = address(0);\r\n            owners[currID] = _receiver;\r\n            allowed[currID] = address(0);\r\n        }\r\n    }\r\n\r\n    // WARNING: In Theory it is possible to set singular strings to the empty string. Checking this in the backend is too \r\n    // resource intensive, so the front end will assure sanity for conditions.\r\n\r\n    function attachTransfer(address _receiver, uint256[] memory _payment, string[] memory _senderConditions, string[] memory _receiverConditions) public {\r\n        // Confirm target address exists\r\n        require(_receiver != address(0), \"Cannot send coins to this address\");\r\n        // Confirm Coins to send are specified\r\n        require(_payment.length != 0, \"Specify an amount to send\");\r\n        // At least one of the condition sets should contain strings.\r\n        require(_senderConditions.length > 0 || _receiverConditions.length > 0, \"At least one of the condition sets should contain conditions\");\r\n        for(uint256 i = 0; i < _payment.length; i++){\r\n            uint256 currID = _payment[i];\r\n            // Confirm permission to use this coin\r\n            require(owners[currID] == msg.sender || allowed[currID] == msg.sender, \"You do not have permission over all these coins\");\r\n            // Confirm Receiver is not current Owner\r\n            require(owners[currID] != _receiver, \"You cannot send coins to yourself\");\r\n            Coin memory currCoin = coins[currID];\r\n            // Confirm sender/receiver conditions are fulfilled\r\n            for(uint256 j = 0; j < currCoin.senderConditions.length; j++){\r\n                require(verifier.checkCertificate(owners[currID], currCoin.senderConditions[j]), \"Not all sender-conditions fulfilled\");\r\n            }\r\n            for(uint256 j = 0; j < currCoin.receiverConditions.length; j++){\r\n                require(verifier.checkCertificate(_receiver, currCoin.receiverConditions[j]), \"Not all receiver-conditions fulfilled\");\r\n            }\r\n            coins[currID].senderConditions = _senderConditions;\r\n            coins[currID].receiverConditions = _receiverConditions;\r\n            coins[currID].permit = address(0);\r\n            owners[currID] = _receiver;\r\n            allowed[currID] = address(0);\r\n        }\r\n    }\r\n\r\n    function permit(address _target, uint256[] memory _coins) public {\r\n        // Confirm target address exists\r\n        require(_target != address(0), \"Cannot send coins to this address\");\r\n        // Confirm coins are specified\r\n        require(_coins.length != 0, \"Specify coins you want to give permission for\");\r\n        for(uint256 i = 0; i < _coins.length; i++){\r\n            uint256 currID = _coins[i];\r\n            require(owners[currID] == msg.sender, \"You are not the owner of all specified coins\");\r\n            coins[currID].permit = _target;\r\n            allowed[currID] = _target;\r\n        }\r\n    }\r\n\r\n    function wallet() public view returns (Coin[] memory) { \r\n        uint256 amount = 0;\r\n        for(uint i = 0; i < coinID; i++){\r\n            if(owners[i] == msg.sender){\r\n                amount++;\r\n            }\r\n        }\r\n        Coin[] memory balance = new Coin[](amount);\r\n        uint256 count = 0;\r\n        for(uint i = 0; count < amount; i++){\r\n            if(owners[i] == msg.sender){\r\n                balance[count] = coins[i];\r\n                count++;\r\n            }\r\n        }\r\n        return balance;\r\n    } \r\n}\r\n\r\ncontract VerifyBank {\r\n    function checkCertificate(address user, string memory condition) public view returns (bool) {}\r\n}",
  "sourcePath": "C:\\Bachelor_Code\\Smart-Sponsor-v3\\contracts\\Bank.sol",
  "compiler": {
    "name": "solc",
    "version": "0.8.15+commit.e14f2714.Emscripten.clang"
  },
  "schemaVersion": "3.4.4",
  "updatedAt": "2022-07-17T22:26:35.933Z",
  "networkType": "ethereum",
  "devdoc": {
    "kind": "dev",
    "methods": {
      "owner()": {
        "details": "Returns the address of the current owner."
      },
      "renounceOwnership()": {
        "details": "Leaves the contract without owner. It will not be possible to call `onlyOwner` functions anymore. Can only be called by the current owner. NOTE: Renouncing ownership will leave the contract without an owner, thereby removing any functionality that is only available to the owner."
      },
      "transferOwnership(address)": {
        "details": "Transfers ownership of the contract to a new account (`newOwner`). Can only be called by the current owner."
      }
    },
    "version": 1
  },
  "userdoc": {
    "kind": "user",
    "methods": {},
    "version": 1
  }
}