{
  "contractName": "BankSponsor",
  "abi": [
    {
      "inputs": [
        {
          "internalType": "uint256",
          "name": "_index",
          "type": "uint256"
        }
      ],
      "name": "owners",
      "outputs": [
        {
          "internalType": "address",
          "name": "",
          "type": "address"
        }
      ],
      "stateMutability": "nonpayable",
      "type": "function"
    },
    {
      "inputs": [
        {
          "internalType": "address",
          "name": "_receiver",
          "type": "address"
        },
        {
          "internalType": "uint256[]",
          "name": "_payment",
          "type": "uint256[]"
        }
      ],
      "name": "normalTransfer",
      "outputs": [],
      "stateMutability": "nonpayable",
      "type": "function"
    },
    {
      "inputs": [
        {
          "internalType": "address",
          "name": "_receiver",
          "type": "address"
        },
        {
          "internalType": "uint256[]",
          "name": "_payment",
          "type": "uint256[]"
        },
        {
          "internalType": "string[]",
          "name": "senderConditions",
          "type": "string[]"
        },
        {
          "internalType": "string[]",
          "name": "receiverConditions",
          "type": "string[]"
        }
      ],
      "name": "attachTransfer",
      "outputs": [],
      "stateMutability": "nonpayable",
      "type": "function"
    }
  ],
  "bytecode": "0x608060405234801561001057600080fd5b506105fa806100206000396000f3fe608060405234801561001057600080fd5b50600436106100415760003560e01c8063025e7c27146100465780636aa2932c14610076578063d714e8e914610092575b600080fd5b610060600480360381019061005b9190610109565b6100ae565b60405161006d9190610177565b60405180910390f35b610090600480360381019061008b9190610317565b6100b5565b005b6100ac60048036038101906100a79190610509565b6100b9565b005b6000919050565b5050565b50505050565b6000604051905090565b600080fd5b600080fd5b6000819050919050565b6100e6816100d3565b81146100f157600080fd5b50565b600081359050610103816100dd565b92915050565b60006020828403121561011f5761011e6100c9565b5b600061012d848285016100f4565b91505092915050565b600073ffffffffffffffffffffffffffffffffffffffff82169050919050565b600061016182610136565b9050919050565b61017181610156565b82525050565b600060208201905061018c6000830184610168565b92915050565b61019b81610156565b81146101a657600080fd5b50565b6000813590506101b881610192565b92915050565b600080fd5b6000601f19601f8301169050919050565b7f4e487b7100000000000000000000000000000000000000000000000000000000600052604160045260246000fd5b61020c826101c3565b810181811067ffffffffffffffff8211171561022b5761022a6101d4565b5b80604052505050565b600061023e6100bf565b905061024a8282610203565b919050565b600067ffffffffffffffff82111561026a576102696101d4565b5b602082029050602081019050919050565b600080fd5b600061029361028e8461024f565b610234565b905080838252602082019050602084028301858111156102b6576102b561027b565b5b835b818110156102df57806102cb88826100f4565b8452602084019350506020810190506102b8565b5050509392505050565b600082601f8301126102fe576102fd6101be565b5b813561030e848260208601610280565b91505092915050565b6000806040838503121561032e5761032d6100c9565b5b600061033c858286016101a9565b925050602083013567ffffffffffffffff81111561035d5761035c6100ce565b5b610369858286016102e9565b9150509250929050565b600067ffffffffffffffff82111561038e5761038d6101d4565b5b602082029050602081019050919050565b600080fd5b600067ffffffffffffffff8211156103bf576103be6101d4565b5b6103c8826101c3565b9050602081019050919050565b82818337600083830152505050565b60006103f76103f2846103a4565b610234565b9050828152602081018484840111156104135761041261039f565b5b61041e8482856103d5565b509392505050565b600082601f83011261043b5761043a6101be565b5b813561044b8482602086016103e4565b91505092915050565b600061046761046284610373565b610234565b9050808382526020820190506020840283018581111561048a5761048961027b565b5b835b818110156104d157803567ffffffffffffffff8111156104af576104ae6101be565b5b8086016104bc8982610426565b8552602085019450505060208101905061048c565b5050509392505050565b600082601f8301126104f0576104ef6101be565b5b8135610500848260208601610454565b91505092915050565b60008060008060808587031215610523576105226100c9565b5b6000610531878288016101a9565b945050602085013567ffffffffffffffff811115610552576105516100ce565b5b61055e878288016102e9565b935050604085013567ffffffffffffffff81111561057f5761057e6100ce565b5b61058b878288016104db565b925050606085013567ffffffffffffffff8111156105ac576105ab6100ce565b5b6105b8878288016104db565b9150509295919450925056fea2646970667358221220aeac2bfe64099b07e193298a8996eb11f6711e61666eda8f89ac0acdf6921be664736f6c634300080d0033",
  "immutableReferences": {},
  "source": "// SPDX-License-Identifier: MIT\r\npragma solidity ^0.8.0;\r\n\r\nimport \"../client/node_modules/@openzeppelin/contracts/access/Ownable.sol\";\r\n\r\ncontract Sponsor is Ownable {\r\n\r\n    struct Offer {\r\n        address donor;\r\n        string[] senderConditions;\r\n        string[] receiverConditions;\r\n        uint256[] coinIDs;\r\n        uint256 offerID;\r\n    }\r\n\r\n    uint256 public offerID;\r\n    uint256 public activeNumber;\r\n    Offer[] public offers;\r\n    bool[] public activeOffers;\r\n    VerifySponsor private verifier;\r\n    BankSponsor private bank;\r\n    Offer[] private empty;\r\n\r\n    function setVerifier(address _verifier) public onlyOwner() {\r\n        verifier = VerifySponsor(_verifier);\r\n    }\r\n\r\n    function setBank(address _bank) public onlyOwner() {\r\n        bank = BankSponsor(_bank);\r\n    }\r\n\r\n    function createOffer(string[] memory _senderConditions, string[] memory _receiverConditions, uint256[] memory _coinIDs) public {\r\n        // Confirm amount is specified\r\n        require(_coinIDs.length != 0, \"Need to require donation amount\");\r\n        // Confirm person who called function is owner of coins\r\n        for(uint256 i = 0; i < _coinIDs.length; i++){\r\n            require(bank.owners(_coinIDs[i]) == msg.sender, \"You are not the owner of all coins\");\r\n        }\r\n        bank.normalTransfer(address(this), _coinIDs);\r\n        offers.push(Offer(msg.sender, _senderConditions, _receiverConditions, _coinIDs, offerID));\r\n        activeOffers.push(true);\r\n        offerID++;\r\n        activeNumber++;\r\n    }\r\n\r\n    function applyOffer(uint256 _offerID) public {\r\n        require(activeOffers[_offerID], \"Offer is not available\");\r\n        Offer memory applied = offers[_offerID];\r\n        for(uint256 i = 0; i < applied.senderConditions.length; i++){\r\n            string memory currCondition = applied.senderConditions[i];\r\n            require(verifier.checkCertificate(msg.sender, currCondition), \"You do not fullfill all conditions\");\r\n        }\r\n        bank.attachTransfer(msg.sender, applied.coinIDs, applied.senderConditions, applied.receiverConditions);\r\n        activeOffers[_offerID] = false;\r\n        activeNumber--;\r\n    }\r\n\r\n    function getOffers() public view returns (Offer[] memory) {\r\n        if(activeNumber == 0) {\r\n            return empty;\r\n        }\r\n        Offer[] memory currentOffers = new Offer[](activeNumber);\r\n        uint256 count = 0;\r\n        for(uint256 i = 0; i < activeOffers.length; i++){\r\n            if(activeOffers[i]){\r\n                currentOffers[count] = offers[i];\r\n                count++;\r\n            }\r\n        }\r\n        return currentOffers;\r\n    }\r\n}\r\n\r\ncontract VerifySponsor {\r\n    function checkCertificate(address user, string memory condition) public view returns (bool) {}\r\n}\r\n\r\ncontract BankSponsor {\r\n    function owners(uint256 _index) external returns (address) {}\r\n    function normalTransfer(address _receiver, uint256[] memory _payment) public {}\r\n    function attachTransfer(address _receiver, uint256[] memory _payment, string[] memory senderConditions, string[] memory receiverConditions) public {}\r\n}",
  "sourcePath": "C:\\Bachelor_Code\\Smart-Sponsor-v3\\contracts\\Sponsor.sol",
  "compiler": {
    "name": "solc",
    "version": "0.8.13+commit.abaa5c0e.Emscripten.clang"
  },
  "schemaVersion": "3.4.4",
  "updatedAt": "2022-05-07T20:57:35.003Z",
  "devdoc": {
    "kind": "dev",
    "methods": {},
    "version": 1
  },
  "userdoc": {
    "kind": "user",
    "methods": {},
    "version": 1
  }
}