{
  "contractName": "Bank",
  "abi": [
    {
      "anonymous": false,
      "inputs": [
        {
          "indexed": true,
          "internalType": "address",
          "name": "previousOwner",
          "type": "address"
        },
        {
          "indexed": true,
          "internalType": "address",
          "name": "newOwner",
          "type": "address"
        }
      ],
      "name": "OwnershipTransferred",
      "type": "event"
    },
    {
      "inputs": [
        {
          "internalType": "uint256",
          "name": "",
          "type": "uint256"
        }
      ],
      "name": "allowed",
      "outputs": [
        {
          "internalType": "address",
          "name": "",
          "type": "address"
        }
      ],
      "stateMutability": "view",
      "type": "function",
      "constant": true
    },
    {
      "inputs": [],
      "name": "coinID",
      "outputs": [
        {
          "internalType": "uint256",
          "name": "",
          "type": "uint256"
        }
      ],
      "stateMutability": "view",
      "type": "function",
      "constant": true
    },
    {
      "inputs": [
        {
          "internalType": "uint256",
          "name": "",
          "type": "uint256"
        }
      ],
      "name": "coins",
      "outputs": [
        {
          "internalType": "uint256",
          "name": "coinID",
          "type": "uint256"
        },
        {
          "internalType": "address",
          "name": "permit",
          "type": "address"
        }
      ],
      "stateMutability": "view",
      "type": "function",
      "constant": true
    },
    {
      "inputs": [
        {
          "internalType": "address",
          "name": "",
          "type": "address"
        }
      ],
      "name": "names",
      "outputs": [
        {
          "internalType": "string",
          "name": "",
          "type": "string"
        }
      ],
      "stateMutability": "view",
      "type": "function",
      "constant": true
    },
    {
      "inputs": [],
      "name": "owner",
      "outputs": [
        {
          "internalType": "address",
          "name": "",
          "type": "address"
        }
      ],
      "stateMutability": "view",
      "type": "function",
      "constant": true
    },
    {
      "inputs": [
        {
          "internalType": "uint256",
          "name": "",
          "type": "uint256"
        }
      ],
      "name": "owners",
      "outputs": [
        {
          "internalType": "address",
          "name": "",
          "type": "address"
        }
      ],
      "stateMutability": "view",
      "type": "function",
      "constant": true
    },
    {
      "inputs": [],
      "name": "renounceOwnership",
      "outputs": [],
      "stateMutability": "nonpayable",
      "type": "function"
    },
    {
      "inputs": [
        {
          "internalType": "address",
          "name": "newOwner",
          "type": "address"
        }
      ],
      "name": "transferOwnership",
      "outputs": [],
      "stateMutability": "nonpayable",
      "type": "function"
    },
    {
      "inputs": [],
      "name": "verifier",
      "outputs": [
        {
          "internalType": "contract VerifyBank",
          "name": "",
          "type": "address"
        }
      ],
      "stateMutability": "view",
      "type": "function",
      "constant": true
    },
    {
      "inputs": [
        {
          "internalType": "address",
          "name": "_verifier",
          "type": "address"
        }
      ],
      "name": "setVerifier",
      "outputs": [],
      "stateMutability": "nonpayable",
      "type": "function"
    },
    {
      "inputs": [
        {
          "internalType": "string",
          "name": "_name",
          "type": "string"
        }
      ],
      "name": "setName",
      "outputs": [],
      "stateMutability": "nonpayable",
      "type": "function"
    },
    {
      "inputs": [
        {
          "internalType": "address",
          "name": "_owner",
          "type": "address"
        },
        {
          "internalType": "uint256",
          "name": "_amount",
          "type": "uint256"
        },
        {
          "internalType": "string[]",
          "name": "_senderConditions",
          "type": "string[]"
        },
        {
          "internalType": "string[]",
          "name": "_receiverConditions",
          "type": "string[]"
        }
      ],
      "name": "mint",
      "outputs": [],
      "stateMutability": "nonpayable",
      "type": "function"
    },
    {
      "inputs": [
        {
          "internalType": "address",
          "name": "_receiver",
          "type": "address"
        },
        {
          "internalType": "uint256[]",
          "name": "_payment",
          "type": "uint256[]"
        }
      ],
      "name": "normalTransfer",
      "outputs": [],
      "stateMutability": "nonpayable",
      "type": "function"
    },
    {
      "inputs": [
        {
          "internalType": "address",
          "name": "_receiver",
          "type": "address"
        },
        {
          "internalType": "uint256[]",
          "name": "_payment",
          "type": "uint256[]"
        },
        {
          "internalType": "string[]",
          "name": "_senderConditions",
          "type": "string[]"
        },
        {
          "internalType": "string[]",
          "name": "_receiverConditions",
          "type": "string[]"
        }
      ],
      "name": "attachTransfer",
      "outputs": [],
      "stateMutability": "nonpayable",
      "type": "function"
    },
    {
      "inputs": [
        {
          "internalType": "address",
          "name": "_target",
          "type": "address"
        },
        {
          "internalType": "uint256[]",
          "name": "_coins",
          "type": "uint256[]"
        }
      ],
      "name": "permit",
      "outputs": [],
      "stateMutability": "nonpayable",
      "type": "function"
    },
    {
      "inputs": [],
      "name": "wallet",
      "outputs": [
        {
          "components": [
            {
              "internalType": "uint256",
              "name": "coinID",
              "type": "uint256"
            },
            {
              "internalType": "address",
              "name": "permit",
              "type": "address"
            },
            {
              "internalType": "string[]",
              "name": "senderConditions",
              "type": "string[]"
            },
            {
              "internalType": "string[]",
              "name": "receiverConditions",
              "type": "string[]"
            }
          ],
          "internalType": "struct Bank.Coin[]",
          "name": "",
          "type": "tuple[]"
        }
      ],
      "stateMutability": "view",
      "type": "function",
      "constant": true
    }
  ],
  "bytecode": "0x60806040523480156200001157600080fd5b5062000032620000266200003860201b60201c565b6200004060201b60201c565b62000104565b600033905090565b60008060009054906101000a900473ffffffffffffffffffffffffffffffffffffffff169050816000806101000a81548173ffffffffffffffffffffffffffffffffffffffff021916908373ffffffffffffffffffffffffffffffffffffffff1602179055508173ffffffffffffffffffffffffffffffffffffffff168173ffffffffffffffffffffffffffffffffffffffff167f8be0079c531659141344cd1fd0a4f28419497f9722a3daafe3b4186f6b6457e060405160405180910390a35050565b613da880620001146000396000f3fe608060405234801561001057600080fd5b50600436106101005760003560e01c80638da5cb5b11610097578063c661065711610066578063c661065714610285578063d714e8e9146102b6578063d91bb26c146102d2578063f2fde38b146102f057610100565b80638da5cb5b14610213578063a0a88c9414610231578063a4acb5b41461024d578063c47f00271461026957610100565b80635437988d116100d35780635437988d146101a15780635cf3d346146101bd5780636aa2932c146101ed578063715018a61461020957610100565b8063025e7c2714610105578063214296e8146101355780632b7ac3f314610165578063521eb27314610183575b600080fd5b61011f600480360381019061011a91906126b4565b61030c565b60405161012c9190612722565b60405180910390f35b61014f600480360381019061014a91906126b4565b61034b565b60405161015c9190612722565b60405180910390f35b61016d61038a565b60405161017a919061279c565b60405180910390f35b61018b6103b0565b6040516101989190612a5c565b60405180910390f35b6101bb60048036038101906101b69190612aaa565b6107b2565b005b6101d760048036038101906101d29190612aaa565b6108e1565b6040516101e49190612b21565b60405180910390f35b61020760048036038101906102029190612c8b565b610981565b005b610211611290565b005b61021b611318565b6040516102289190612722565b60405180910390f35b61024b60048036038101906102469190612e7d565b611341565b005b61026760048036038101906102629190612c8b565b611665565b005b610283600480360381019061027e9190612f1c565b6118c9565b005b61029f600480360381019061029a91906126b4565b61196f565b6040516102ad929190612f74565b60405180910390f35b6102d060048036038101906102cb9190612f9d565b6119c3565b005b6102da61232c565b6040516102e79190613058565b60405180910390f35b61030a60048036038101906103059190612aaa565b612332565b005b6004818154811061031c57600080fd5b906000526020600020016000915054906101000a900473ffffffffffffffffffffffffffffffffffffffff1681565b6005818154811061035b57600080fd5b906000526020600020016000915054906101000a900473ffffffffffffffffffffffffffffffffffffffff1681565b600660009054906101000a900473ffffffffffffffffffffffffffffffffffffffff1681565b60606000805b600254811015610453573373ffffffffffffffffffffffffffffffffffffffff16600482815481106103eb576103ea613073565b5b9060005260206000200160009054906101000a900473ffffffffffffffffffffffffffffffffffffffff1673ffffffffffffffffffffffffffffffffffffffff160361044057818061043c906130d1565b9250505b808061044b906130d1565b9150506103b6565b5060008167ffffffffffffffff8111156104705761046f612b48565b5b6040519080825280602002602001820160405280156104a957816020015b6104966124f5565b81526020019060019003908161048e5790505b5090506000805b838210156107a8573373ffffffffffffffffffffffffffffffffffffffff16600482815481106104e3576104e2613073565b5b9060005260206000200160009054906101000a900473ffffffffffffffffffffffffffffffffffffffff1673ffffffffffffffffffffffffffffffffffffffff1603610795576003818154811061053d5761053c613073565b5b9060005260206000209060040201604051806080016040529081600082015481526020016001820160009054906101000a900473ffffffffffffffffffffffffffffffffffffffff1673ffffffffffffffffffffffffffffffffffffffff1673ffffffffffffffffffffffffffffffffffffffff16815260200160028201805480602002602001604051908101604052809291908181526020016000905b828210156106875783829060005260206000200180546105fa90613148565b80601f016020809104026020016040519081016040528092919081815260200182805461062690613148565b80156106735780601f1061064857610100808354040283529160200191610673565b820191906000526020600020905b81548152906001019060200180831161065657829003601f168201915b5050505050815260200190600101906105db565b50505050815260200160038201805480602002602001604051908101604052809291908181526020016000905b828210156107605783829060005260206000200180546106d390613148565b80601f01602080910402602001604051908101604052809291908181526020018280546106ff90613148565b801561074c5780601f106107215761010080835404028352916020019161074c565b820191906000526020600020905b81548152906001019060200180831161072f57829003601f168201915b5050505050815260200190600101906106b4565b505050508152505083838151811061077b5761077a613073565b5b60200260200101819052508180610791906130d1565b9250505b80806107a0906130d1565b9150506104b0565b5081935050505090565b6107ba612429565b73ffffffffffffffffffffffffffffffffffffffff166107d8611318565b73ffffffffffffffffffffffffffffffffffffffff161461082e576040517f08c379a0000000000000000000000000000000000000000000000000000000008152600401610825906131c5565b60405180910390fd5b600073ffffffffffffffffffffffffffffffffffffffff168173ffffffffffffffffffffffffffffffffffffffff160361089d576040517f08c379a000000000000000000000000000000000000000000000000000000000815260040161089490613257565b60405180910390fd5b80600660006101000a81548173ffffffffffffffffffffffffffffffffffffffff021916908373ffffffffffffffffffffffffffffffffffffffff16021790555050565b6001602052806000526040600020600091509050805461090090613148565b80601f016020809104026020016040519081016040528092919081815260200182805461092c90613148565b80156109795780601f1061094e57610100808354040283529160200191610979565b820191906000526020600020905b81548152906001019060200180831161095c57829003601f168201915b505050505081565b600073ffffffffffffffffffffffffffffffffffffffff168273ffffffffffffffffffffffffffffffffffffffff16036109f0576040517f08c379a00000000000000000000000000000000000000000000000000000000081526004016109e7906132e9565b60405180910390fd5b6000815103610a34576040517f08c379a0000000000000000000000000000000000000000000000000000000008152600401610a2b90613355565b60405180910390fd5b60005b815181101561128b576000828281518110610a5557610a54613073565b5b602002602001015190503373ffffffffffffffffffffffffffffffffffffffff1660048281548110610a8a57610a89613073565b5b9060005260206000200160009054906101000a900473ffffffffffffffffffffffffffffffffffffffff1673ffffffffffffffffffffffffffffffffffffffff161480610b4057503373ffffffffffffffffffffffffffffffffffffffff1660058281548110610afd57610afc613073565b5b9060005260206000200160009054906101000a900473ffffffffffffffffffffffffffffffffffffffff1673ffffffffffffffffffffffffffffffffffffffff16145b610b7f576040517f08c379a0000000000000000000000000000000000000000000000000000000008152600401610b76906133e7565b60405180910390fd5b8373ffffffffffffffffffffffffffffffffffffffff1660048281548110610baa57610ba9613073565b5b9060005260206000200160009054906101000a900473ffffffffffffffffffffffffffffffffffffffff1673ffffffffffffffffffffffffffffffffffffffff1603610c2b576040517f08c379a0000000000000000000000000000000000000000000000000000000008152600401610c2290613479565b60405180910390fd5b600060038281548110610c4157610c40613073565b5b9060005260206000209060040201604051806080016040529081600082015481526020016001820160009054906101000a900473ffffffffffffffffffffffffffffffffffffffff1673ffffffffffffffffffffffffffffffffffffffff1673ffffffffffffffffffffffffffffffffffffffff16815260200160028201805480602002602001604051908101604052809291908181526020016000905b82821015610d8b578382906000526020600020018054610cfe90613148565b80601f0160208091040260200160405190810160405280929190818152602001828054610d2a90613148565b8015610d775780601f10610d4c57610100808354040283529160200191610d77565b820191906000526020600020905b815481529060010190602001808311610d5a57829003601f168201915b505050505081526020019060010190610cdf565b50505050815260200160038201805480602002602001604051908101604052809291908181526020016000905b82821015610e64578382906000526020600020018054610dd790613148565b80601f0160208091040260200160405190810160405280929190818152602001828054610e0390613148565b8015610e505780601f10610e2557610100808354040283529160200191610e50565b820191906000526020600020905b815481529060010190602001808311610e3357829003601f168201915b505050505081526020019060010190610db8565b5050505081525050905060005b816040015151811015610fca57600660009054906101000a900473ffffffffffffffffffffffffffffffffffffffff1673ffffffffffffffffffffffffffffffffffffffff1663d241a98d60048581548110610ed057610ecf613073565b5b9060005260206000200160009054906101000a900473ffffffffffffffffffffffffffffffffffffffff1684604001518481518110610f1257610f11613073565b5b60200260200101516040518363ffffffff1660e01b8152600401610f37929190613499565b602060405180830381865afa158015610f54573d6000803e3d6000fd5b505050506040513d601f19601f82011682018060405250810190610f789190613501565b610fb7576040517f08c379a0000000000000000000000000000000000000000000000000000000008152600401610fae906135a0565b60405180910390fd5b8080610fc2906130d1565b915050610e71565b5060005b8160600151518110156110e957600660009054906101000a900473ffffffffffffffffffffffffffffffffffffffff1673ffffffffffffffffffffffffffffffffffffffff1663d241a98d878460600151848151811061103157611030613073565b5b60200260200101516040518363ffffffff1660e01b8152600401611056929190613499565b602060405180830381865afa158015611073573d6000803e3d6000fd5b505050506040513d601f19601f820116820180604052508101906110979190613501565b6110d6576040517f08c379a00000000000000000000000000000000000000000000000000000000081526004016110cd90613632565b60405180910390fd5b80806110e1906130d1565b915050610fce565b50600760038381548110611100576110ff613073565b5b906000526020600020906004020160020190805461111f929190612533565b5060076003838154811061113657611135613073565b5b9060005260206000209060040201600301908054611155929190612533565b5060006003838154811061116c5761116b613073565b5b906000526020600020906004020160010160006101000a81548173ffffffffffffffffffffffffffffffffffffffff021916908373ffffffffffffffffffffffffffffffffffffffff16021790555084600483815481106111d0576111cf613073565b5b9060005260206000200160006101000a81548173ffffffffffffffffffffffffffffffffffffffff021916908373ffffffffffffffffffffffffffffffffffffffff16021790555060006005838154811061122e5761122d613073565b5b9060005260206000200160006101000a81548173ffffffffffffffffffffffffffffffffffffffff021916908373ffffffffffffffffffffffffffffffffffffffff16021790555050508080611283906130d1565b915050610a37565b505050565b611298612429565b73ffffffffffffffffffffffffffffffffffffffff166112b6611318565b73ffffffffffffffffffffffffffffffffffffffff161461130c576040517f08c379a0000000000000000000000000000000000000000000000000000000008152600401611303906131c5565b60405180910390fd5b6113166000612431565b565b60008060009054906101000a900473ffffffffffffffffffffffffffffffffffffffff16905090565b611349612429565b73ffffffffffffffffffffffffffffffffffffffff16611367611318565b73ffffffffffffffffffffffffffffffffffffffff16146113bd576040517f08c379a00000000000000000000000000000000000000000000000000000000081526004016113b4906131c5565b60405180910390fd5b600073ffffffffffffffffffffffffffffffffffffffff168473ffffffffffffffffffffffffffffffffffffffff160361142c576040517f08c379a00000000000000000000000000000000000000000000000000000000081526004016114239061369e565b60405180910390fd5b6000830361146f576040517f08c379a00000000000000000000000000000000000000000000000000000000081526004016114669061370a565b60405180910390fd5b60005b8381101561165e57600360405180608001604052806002548152602001600073ffffffffffffffffffffffffffffffffffffffff1681526020018581526020018481525090806001815401808255809150506001900390600052602060002090600402016000909190919091506000820151816000015560208201518160010160006101000a81548173ffffffffffffffffffffffffffffffffffffffff021916908373ffffffffffffffffffffffffffffffffffffffff160217905550604082015181600201908051906020019061154c929190612590565b506060820151816003019080519060200190611569929190612590565b5050506004859080600181540180825580915050600190039060005260206000200160009091909190916101000a81548173ffffffffffffffffffffffffffffffffffffffff021916908373ffffffffffffffffffffffffffffffffffffffff160217905550600560009080600181540180825580915050600190039060005260206000200160009091909190916101000a81548173ffffffffffffffffffffffffffffffffffffffff021916908373ffffffffffffffffffffffffffffffffffffffff16021790555060026000815480929190611646906130d1565b91905055508080611656906130d1565b915050611472565b5050505050565b600073ffffffffffffffffffffffffffffffffffffffff168273ffffffffffffffffffffffffffffffffffffffff16036116d4576040517f08c379a00000000000000000000000000000000000000000000000000000000081526004016116cb906132e9565b60405180910390fd5b6000815103611718576040517f08c379a000000000000000000000000000000000000000000000000000000000815260040161170f9061379c565b60405180910390fd5b60005b81518110156118c457600082828151811061173957611738613073565b5b602002602001015190503373ffffffffffffffffffffffffffffffffffffffff166004828154811061176e5761176d613073565b5b9060005260206000200160009054906101000a900473ffffffffffffffffffffffffffffffffffffffff1673ffffffffffffffffffffffffffffffffffffffff16146117ef576040517f08c379a00000000000000000000000000000000000000000000000000000000081526004016117e69061382e565b60405180910390fd5b836003828154811061180457611803613073565b5b906000526020600020906004020160010160006101000a81548173ffffffffffffffffffffffffffffffffffffffff021916908373ffffffffffffffffffffffffffffffffffffffff160217905550836005828154811061186857611867613073565b5b9060005260206000200160006101000a81548173ffffffffffffffffffffffffffffffffffffffff021916908373ffffffffffffffffffffffffffffffffffffffff1602179055505080806118bc906130d1565b91505061171b565b505050565b6040516020016118d89061387f565b60405160208183030381529060405280519060200120816040516020016118ff91906138c5565b604051602081830303815290604052805190602001200361191f57600080fd5b80600160003373ffffffffffffffffffffffffffffffffffffffff1673ffffffffffffffffffffffffffffffffffffffff168152602001908152602001600020908161196b9190613a7e565b5050565b6003818154811061197f57600080fd5b90600052602060002090600402016000915090508060000154908060010160009054906101000a900473ffffffffffffffffffffffffffffffffffffffff16905082565b600073ffffffffffffffffffffffffffffffffffffffff168473ffffffffffffffffffffffffffffffffffffffff1603611a32576040517f08c379a0000000000000000000000000000000000000000000000000000000008152600401611a29906132e9565b60405180910390fd5b6000835103611a76576040517f08c379a0000000000000000000000000000000000000000000000000000000008152600401611a6d90613355565b60405180910390fd5b600082511180611a87575060008151115b611ac6576040517f08c379a0000000000000000000000000000000000000000000000000000000008152600401611abd90613bc2565b60405180910390fd5b60005b8351811015612325576000848281518110611ae757611ae6613073565b5b602002602001015190503373ffffffffffffffffffffffffffffffffffffffff1660048281548110611b1c57611b1b613073565b5b9060005260206000200160009054906101000a900473ffffffffffffffffffffffffffffffffffffffff1673ffffffffffffffffffffffffffffffffffffffff161480611bd257503373ffffffffffffffffffffffffffffffffffffffff1660058281548110611b8f57611b8e613073565b5b9060005260206000200160009054906101000a900473ffffffffffffffffffffffffffffffffffffffff1673ffffffffffffffffffffffffffffffffffffffff16145b611c11576040517f08c379a0000000000000000000000000000000000000000000000000000000008152600401611c08906133e7565b60405180910390fd5b8573ffffffffffffffffffffffffffffffffffffffff1660048281548110611c3c57611c3b613073565b5b9060005260206000200160009054906101000a900473ffffffffffffffffffffffffffffffffffffffff1673ffffffffffffffffffffffffffffffffffffffff1603611cbd576040517f08c379a0000000000000000000000000000000000000000000000000000000008152600401611cb490613479565b60405180910390fd5b600060038281548110611cd357611cd2613073565b5b9060005260206000209060040201604051806080016040529081600082015481526020016001820160009054906101000a900473ffffffffffffffffffffffffffffffffffffffff1673ffffffffffffffffffffffffffffffffffffffff1673ffffffffffffffffffffffffffffffffffffffff16815260200160028201805480602002602001604051908101604052809291908181526020016000905b82821015611e1d578382906000526020600020018054611d9090613148565b80601f0160208091040260200160405190810160405280929190818152602001828054611dbc90613148565b8015611e095780601f10611dde57610100808354040283529160200191611e09565b820191906000526020600020905b815481529060010190602001808311611dec57829003601f168201915b505050505081526020019060010190611d71565b50505050815260200160038201805480602002602001604051908101604052809291908181526020016000905b82821015611ef6578382906000526020600020018054611e6990613148565b80601f0160208091040260200160405190810160405280929190818152602001828054611e9590613148565b8015611ee25780601f10611eb757610100808354040283529160200191611ee2565b820191906000526020600020905b815481529060010190602001808311611ec557829003601f168201915b505050505081526020019060010190611e4a565b5050505081525050905060005b81604001515181101561205c57600660009054906101000a900473ffffffffffffffffffffffffffffffffffffffff1673ffffffffffffffffffffffffffffffffffffffff1663d241a98d60048581548110611f6257611f61613073565b5b9060005260206000200160009054906101000a900473ffffffffffffffffffffffffffffffffffffffff1684604001518481518110611fa457611fa3613073565b5b60200260200101516040518363ffffffff1660e01b8152600401611fc9929190613499565b602060405180830381865afa158015611fe6573d6000803e3d6000fd5b505050506040513d601f19601f8201168201806040525081019061200a9190613501565b612049576040517f08c379a0000000000000000000000000000000000000000000000000000000008152600401612040906135a0565b60405180910390fd5b8080612054906130d1565b915050611f03565b5060005b81606001515181101561217b57600660009054906101000a900473ffffffffffffffffffffffffffffffffffffffff1673ffffffffffffffffffffffffffffffffffffffff1663d241a98d89846060015184815181106120c3576120c2613073565b5b60200260200101516040518363ffffffff1660e01b81526004016120e8929190613499565b602060405180830381865afa158015612105573d6000803e3d6000fd5b505050506040513d601f19601f820116820180604052508101906121299190613501565b612168576040517f08c379a000000000000000000000000000000000000000000000000000000000815260040161215f90613632565b60405180910390fd5b8080612173906130d1565b915050612060565b50846003838154811061219157612190613073565b5b906000526020600020906004020160020190805190602001906121b5929190612590565b5083600383815481106121cb576121ca613073565b5b906000526020600020906004020160030190805190602001906121ef929190612590565b5060006003838154811061220657612205613073565b5b906000526020600020906004020160010160006101000a81548173ffffffffffffffffffffffffffffffffffffffff021916908373ffffffffffffffffffffffffffffffffffffffff160217905550866004838154811061226a57612269613073565b5b9060005260206000200160006101000a81548173ffffffffffffffffffffffffffffffffffffffff021916908373ffffffffffffffffffffffffffffffffffffffff1602179055506000600583815481106122c8576122c7613073565b5b9060005260206000200160006101000a81548173ffffffffffffffffffffffffffffffffffffffff021916908373ffffffffffffffffffffffffffffffffffffffff1602179055505050808061231d906130d1565b915050611ac9565b5050505050565b60025481565b61233a612429565b73ffffffffffffffffffffffffffffffffffffffff16612358611318565b73ffffffffffffffffffffffffffffffffffffffff16146123ae576040517f08c379a00000000000000000000000000000000000000000000000000000000081526004016123a5906131c5565b60405180910390fd5b600073ffffffffffffffffffffffffffffffffffffffff168173ffffffffffffffffffffffffffffffffffffffff160361241d576040517f08c379a000000000000000000000000000000000000000000000000000000000815260040161241490613c54565b60405180910390fd5b61242681612431565b50565b600033905090565b60008060009054906101000a900473ffffffffffffffffffffffffffffffffffffffff169050816000806101000a81548173ffffffffffffffffffffffffffffffffffffffff021916908373ffffffffffffffffffffffffffffffffffffffff1602179055508173ffffffffffffffffffffffffffffffffffffffff168173ffffffffffffffffffffffffffffffffffffffff167f8be0079c531659141344cd1fd0a4f28419497f9722a3daafe3b4186f6b6457e060405160405180910390a35050565b604051806080016040528060008152602001600073ffffffffffffffffffffffffffffffffffffffff16815260200160608152602001606081525090565b82805482825590600052602060002090810192821561257f5760005260206000209182015b8281111561257e578282908161256e9190613c8a565b5091600101919060010190612558565b5b50905061258c91906125e9565b5090565b8280548282559060005260206000209081019282156125d8579160200282015b828111156125d75782518290816125c79190613a7e565b50916020019190600101906125b0565b5b5090506125e591906125e9565b5090565b5b808211156126095760008181612600919061260d565b506001016125ea565b5090565b50805461261990613148565b6000825580601f1061262b575061264a565b601f016020900490600052602060002090810190612649919061264d565b5b50565b5b8082111561266657600081600090555060010161264e565b5090565b6000604051905090565b600080fd5b600080fd5b6000819050919050565b6126918161267e565b811461269c57600080fd5b50565b6000813590506126ae81612688565b92915050565b6000602082840312156126ca576126c9612674565b5b60006126d88482850161269f565b91505092915050565b600073ffffffffffffffffffffffffffffffffffffffff82169050919050565b600061270c826126e1565b9050919050565b61271c81612701565b82525050565b60006020820190506127376000830184612713565b92915050565b6000819050919050565b600061276261275d612758846126e1565b61273d565b6126e1565b9050919050565b600061277482612747565b9050919050565b600061278682612769565b9050919050565b6127968161277b565b82525050565b60006020820190506127b1600083018461278d565b92915050565b600081519050919050565b600082825260208201905092915050565b6000819050602082019050919050565b6127ec8161267e565b82525050565b6127fb81612701565b82525050565b600081519050919050565b600082825260208201905092915050565b6000819050602082019050919050565b600081519050919050565b600082825260208201905092915050565b60005b8381101561286757808201518184015260208101905061284c565b83811115612876576000848401525b50505050565b6000601f19601f8301169050919050565b60006128988261282d565b6128a28185612838565b93506128b2818560208601612849565b6128bb8161287c565b840191505092915050565b60006128d2838361288d565b905092915050565b6000602082019050919050565b60006128f282612801565b6128fc818561280c565b93508360208202850161290e8561281d565b8060005b8581101561294a578484038952815161292b85826128c6565b9450612936836128da565b925060208a01995050600181019050612912565b50829750879550505050505092915050565b600060808301600083015161297460008601826127e3565b50602083015161298760208601826127f2565b506040830151848203604086015261299f82826128e7565b915050606083015184820360608601526129b982826128e7565b9150508091505092915050565b60006129d2838361295c565b905092915050565b6000602082019050919050565b60006129f2826127b7565b6129fc81856127c2565b935083602082028501612a0e856127d3565b8060005b85811015612a4a5784840389528151612a2b85826129c6565b9450612a36836129da565b925060208a01995050600181019050612a12565b50829750879550505050505092915050565b60006020820190508181036000830152612a7681846129e7565b905092915050565b612a8781612701565b8114612a9257600080fd5b50565b600081359050612aa481612a7e565b92915050565b600060208284031215612ac057612abf612674565b5b6000612ace84828501612a95565b91505092915050565b600082825260208201905092915050565b6000612af38261282d565b612afd8185612ad7565b9350612b0d818560208601612849565b612b168161287c565b840191505092915050565b60006020820190508181036000830152612b3b8184612ae8565b905092915050565b600080fd5b7f4e487b7100000000000000000000000000000000000000000000000000000000600052604160045260246000fd5b612b808261287c565b810181811067ffffffffffffffff82111715612b9f57612b9e612b48565b5b80604052505050565b6000612bb261266a565b9050612bbe8282612b77565b919050565b600067ffffffffffffffff821115612bde57612bdd612b48565b5b602082029050602081019050919050565b600080fd5b6000612c07612c0284612bc3565b612ba8565b90508083825260208201905060208402830185811115612c2a57612c29612bef565b5b835b81811015612c535780612c3f888261269f565b845260208401935050602081019050612c2c565b5050509392505050565b600082601f830112612c7257612c71612b43565b5b8135612c82848260208601612bf4565b91505092915050565b60008060408385031215612ca257612ca1612674565b5b6000612cb085828601612a95565b925050602083013567ffffffffffffffff811115612cd157612cd0612679565b5b612cdd85828601612c5d565b9150509250929050565b600067ffffffffffffffff821115612d0257612d01612b48565b5b602082029050602081019050919050565b600080fd5b600067ffffffffffffffff821115612d3357612d32612b48565b5b612d3c8261287c565b9050602081019050919050565b82818337600083830152505050565b6000612d6b612d6684612d18565b612ba8565b905082815260208101848484011115612d8757612d86612d13565b5b612d92848285612d49565b509392505050565b600082601f830112612daf57612dae612b43565b5b8135612dbf848260208601612d58565b91505092915050565b6000612ddb612dd684612ce7565b612ba8565b90508083825260208201905060208402830185811115612dfe57612dfd612bef565b5b835b81811015612e4557803567ffffffffffffffff811115612e2357612e22612b43565b5b808601612e308982612d9a565b85526020850194505050602081019050612e00565b5050509392505050565b600082601f830112612e6457612e63612b43565b5b8135612e74848260208601612dc8565b91505092915050565b60008060008060808587031215612e9757612e96612674565b5b6000612ea587828801612a95565b9450506020612eb68782880161269f565b935050604085013567ffffffffffffffff811115612ed757612ed6612679565b5b612ee387828801612e4f565b925050606085013567ffffffffffffffff811115612f0457612f03612679565b5b612f1087828801612e4f565b91505092959194509250565b600060208284031215612f3257612f31612674565b5b600082013567ffffffffffffffff811115612f5057612f4f612679565b5b612f5c84828501612d9a565b91505092915050565b612f6e8161267e565b82525050565b6000604082019050612f896000830185612f65565b612f966020830184612713565b9392505050565b60008060008060808587031215612fb757612fb6612674565b5b6000612fc587828801612a95565b945050602085013567ffffffffffffffff811115612fe657612fe5612679565b5b612ff287828801612c5d565b935050604085013567ffffffffffffffff81111561301357613012612679565b5b61301f87828801612e4f565b925050606085013567ffffffffffffffff8111156130405761303f612679565b5b61304c87828801612e4f565b91505092959194509250565b600060208201905061306d6000830184612f65565b92915050565b7f4e487b7100000000000000000000000000000000000000000000000000000000600052603260045260246000fd5b7f4e487b7100000000000000000000000000000000000000000000000000000000600052601160045260246000fd5b60006130dc8261267e565b91507fffffffffffffffffffffffffffffffffffffffffffffffffffffffffffffffff820361310e5761310d6130a2565b5b600182019050919050565b7f4e487b7100000000000000000000000000000000000000000000000000000000600052602260045260246000fd5b6000600282049050600182168061316057607f821691505b60208210810361317357613172613119565b5b50919050565b7f4f776e61626c653a2063616c6c6572206973206e6f7420746865206f776e6572600082015250565b60006131af602083612ad7565b91506131ba82613179565b602082019050919050565b600060208201905081810360008301526131de816131a2565b9050919050565b7f43616e6e6f742073657420566572696669657220746f2074686973206164647260008201527f6573730000000000000000000000000000000000000000000000000000000000602082015250565b6000613241602383612ad7565b915061324c826131e5565b604082019050919050565b6000602082019050818103600083015261327081613234565b9050919050565b7f43616e6e6f742073656e6420636f696e7320746f20746869732061646472657360008201527f7300000000000000000000000000000000000000000000000000000000000000602082015250565b60006132d3602183612ad7565b91506132de82613277565b604082019050919050565b60006020820190508181036000830152613302816132c6565b9050919050565b7f5370656369667920616e20616d6f756e7420746f2073656e6400000000000000600082015250565b600061333f601983612ad7565b915061334a82613309565b602082019050919050565b6000602082019050818103600083015261336e81613332565b9050919050565b7f596f7520646f206e6f742068617665207065726d697373696f6e206f7665722060008201527f616c6c20746865736520636f696e730000000000000000000000000000000000602082015250565b60006133d1602f83612ad7565b91506133dc82613375565b604082019050919050565b60006020820190508181036000830152613400816133c4565b9050919050565b7f596f752063616e6e6f742073656e6420636f696e7320746f20796f757273656c60008201527f6600000000000000000000000000000000000000000000000000000000000000602082015250565b6000613463602183612ad7565b915061346e82613407565b604082019050919050565b6000602082019050818103600083015261349281613456565b9050919050565b60006040820190506134ae6000830185612713565b81810360208301526134c08184612ae8565b90509392505050565b60008115159050919050565b6134de816134c9565b81146134e957600080fd5b50565b6000815190506134fb816134d5565b92915050565b60006020828403121561351757613516612674565b5b6000613525848285016134ec565b91505092915050565b7f4e6f7420616c6c2073656e6465722d636f6e646974696f6e732066756c66696c60008201527f6c65640000000000000000000000000000000000000000000000000000000000602082015250565b600061358a602383612ad7565b91506135958261352e565b604082019050919050565b600060208201905081810360008301526135b98161357d565b9050919050565b7f4e6f7420616c6c2072656365697665722d636f6e646974696f6e732066756c6660008201527f696c6c6564000000000000000000000000000000000000000000000000000000602082015250565b600061361c602583612ad7565b9150613627826135c0565b604082019050919050565b6000602082019050818103600083015261364b8161360f565b9050919050565b7f43616e6e6f74206d696e7420746f207468697320616464726573730000000000600082015250565b6000613688601b83612ad7565b915061369382613652565b602082019050919050565b600060208201905081810360008301526136b78161367b565b9050919050565b7f4d696e742d616d6f756e7420756e737065636966696564000000000000000000600082015250565b60006136f4601783612ad7565b91506136ff826136be565b602082019050919050565b60006020820190508181036000830152613723816136e7565b9050919050565b7f5370656369667920636f696e7320796f752077616e7420746f2067697665207060008201527f65726d697373696f6e20666f7200000000000000000000000000000000000000602082015250565b6000613786602d83612ad7565b91506137918261372a565b604082019050919050565b600060208201905081810360008301526137b581613779565b9050919050565b7f596f7520617265206e6f7420746865206f776e6572206f6620616c6c2073706560008201527f63696669656420636f696e730000000000000000000000000000000000000000602082015250565b6000613818602c83612ad7565b9150613823826137bc565b604082019050919050565b600060208201905081810360008301526138478161380b565b9050919050565b600081905092915050565b50565b600061386960008361384e565b915061387482613859565b600082019050919050565b600061388a8261385c565b9150819050919050565b600061389f8261282d565b6138a9818561384e565b93506138b9818560208601612849565b80840191505092915050565b60006138d18284613894565b915081905092915050565b60008190508160005260206000209050919050565b60006020601f8301049050919050565b600082821b905092915050565b60006008830261393e7fffffffffffffffffffffffffffffffffffffffffffffffffffffffffffffffff82613901565b6139488683613901565b95508019841693508086168417925050509392505050565b600061397b6139766139718461267e565b61273d565b61267e565b9050919050565b6000819050919050565b61399583613960565b6139a96139a182613982565b84845461390e565b825550505050565b600090565b6139be6139b1565b6139c981848461398c565b505050565b5b818110156139ed576139e26000826139b6565b6001810190506139cf565b5050565b601f821115613a3257613a03816138dc565b613a0c846138f1565b81016020851015613a1b578190505b613a2f613a27856138f1565b8301826139ce565b50505b505050565b600082821c905092915050565b6000613a5560001984600802613a37565b1980831691505092915050565b6000613a6e8383613a44565b9150826002028217905092915050565b613a878261282d565b67ffffffffffffffff811115613aa057613a9f612b48565b5b613aaa8254613148565b613ab58282856139f1565b600060209050601f831160018114613ae85760008415613ad6578287015190505b613ae08582613a62565b865550613b48565b601f198416613af6866138dc565b60005b82811015613b1e57848901518255600182019150602085019450602081019050613af9565b86831015613b3b5784890151613b37601f891682613a44565b8355505b6001600288020188555050505b505050505050565b7f4174206c65617374206f6e65206f662074686520636f6e646974696f6e20736560008201527f74732073686f756c6420636f6e7461696e20636f6e646974696f6e7300000000602082015250565b6000613bac603c83612ad7565b9150613bb782613b50565b604082019050919050565b60006020820190508181036000830152613bdb81613b9f565b9050919050565b7f4f776e61626c653a206e6577206f776e657220697320746865207a65726f206160008201527f6464726573730000000000000000000000000000000000000000000000000000602082015250565b6000613c3e602683612ad7565b9150613c4982613be2565b604082019050919050565b60006020820190508181036000830152613c6d81613c31565b9050919050565b600081549050613c8381613148565b9050919050565b818103613c98575050613d70565b613ca182613c74565b67ffffffffffffffff811115613cba57613cb9612b48565b5b613cc48254613148565b613ccf8282856139f1565b6000601f831160018114613cfe5760008415613cec578287015490505b613cf68582613a62565b865550613d69565b601f198416613d0c876138dc565b9650613d17866138dc565b60005b82811015613d3f57848901548255600182019150600185019450602081019050613d1a565b86831015613d5c5784890154613d58601f891682613a44565b8355505b6001600288020188555050505b5050505050505b56fea26469706673582212205d046d0f77798dd8b0024ab3bb697aea334960668c901efac0918a581ab5644964736f6c634300080f0033",
  "immutableReferences": {},
  "source": "// SPDX-License-Identifier: MIT\r\npragma solidity ^0.8.0;\r\n\r\nimport \"../client/node_modules/@openzeppelin/contracts/access/Ownable.sol\";\r\n\r\ncontract Bank is Ownable {\r\n\r\n    struct Coin {\r\n        uint256 coinID;\r\n        address permit;\r\n        string[] senderConditions;\r\n        string[] receiverConditions;\r\n    }\r\n\r\n    mapping(address=>string) public names;\r\n    uint256 public coinID;\r\n    Coin[] public coins;\r\n    address[] public owners;\r\n    address[] public allowed;\r\n    VerifyBank public verifier;\r\n    string[] private empty;\r\n\r\n    function setVerifier(address _verifier) public onlyOwner() {\r\n        require(_verifier != address(0), \"Cannot set Verifier to this address\");\r\n        verifier = VerifyBank(_verifier);\r\n    }\r\n\r\n    function setName(string memory _name) public{\r\n        require(keccak256(abi.encodePacked(_name)) != keccak256(abi.encodePacked('')));\r\n        names[msg.sender] = _name;\r\n    }\r\n\r\n    // WARNING: In Theory it is possible to set singular strings to the empty string. Checking this in the backend is too \r\n    // resource intensive, so the front end will assure sanity for conditions.\r\n\r\n    function mint(address _owner, uint256 _amount, string[] memory _senderConditions, string[] memory _receiverConditions) public onlyOwner() {\r\n        // Confirm user is actual account\r\n        require(_owner != address(0), \"Cannot mint to this address\");\r\n        // Confirm amount is set\r\n        require(_amount != 0, \"Mint-amount unspecified\");\r\n        // Create new Coins and push them to array\r\n        for(uint256 i = 0; i < _amount; i++){\r\n            coins.push(Coin(coinID, address(0), _senderConditions, _receiverConditions));\r\n            owners.push(_owner);\r\n            allowed.push(address(0));\r\n            coinID++;\r\n        }\r\n    }\r\n\r\n    function normalTransfer(address _receiver, uint256[] memory _payment) public {\r\n        // Confirm target address exists\r\n        require(_receiver != address(0), \"Cannot send coins to this address\");\r\n        // Confirm Coins to send are specified\r\n        require(_payment.length != 0, \"Specify an amount to send\");\r\n        for(uint256 i = 0; i < _payment.length; i++){\r\n            uint256 currID = _payment[i];\r\n            // Confirm permission to use this coin\r\n            require(owners[currID] == msg.sender || allowed[currID] == msg.sender, \"You do not have permission over all these coins\");\r\n            // Confirm Receiver is not current Owner\r\n            require(owners[currID] != _receiver, \"You cannot send coins to yourself\");\r\n            Coin memory currCoin = coins[currID];\r\n            // Confirm sender/receiver conditions are fulfilled\r\n            for(uint256 j = 0; j < currCoin.senderConditions.length; j++){\r\n                require(verifier.checkCertificate(owners[currID], currCoin.senderConditions[j]), \"Not all sender-conditions fulfilled\");\r\n            }\r\n            for(uint256 j = 0; j < currCoin.receiverConditions.length; j++){\r\n                require(verifier.checkCertificate(_receiver, currCoin.receiverConditions[j]), \"Not all receiver-conditions fulfilled\");\r\n            }\r\n            coins[currID].senderConditions = empty;\r\n            coins[currID].receiverConditions = empty;\r\n            coins[currID].permit = address(0);\r\n            owners[currID] = _receiver;\r\n            allowed[currID] = address(0);\r\n        }\r\n    }\r\n\r\n    // WARNING: In Theory it is possible to set singular strings to the empty string. Checking this in the backend is too \r\n    // resource intensive, so the front end will assure sanity for conditions.\r\n\r\n    function attachTransfer(address _receiver, uint256[] memory _payment, string[] memory _senderConditions, string[] memory _receiverConditions) public {\r\n        // Confirm target address exists\r\n        require(_receiver != address(0), \"Cannot send coins to this address\");\r\n        // Confirm Coins to send are specified\r\n        require(_payment.length != 0, \"Specify an amount to send\");\r\n        // At least one of the condition sets should contain strings.\r\n        require(_senderConditions.length > 0 || _receiverConditions.length > 0, \"At least one of the condition sets should contain conditions\");\r\n        for(uint256 i = 0; i < _payment.length; i++){\r\n            uint256 currID = _payment[i];\r\n            // Confirm permission to use this coin\r\n            require(owners[currID] == msg.sender || allowed[currID] == msg.sender, \"You do not have permission over all these coins\");\r\n            // Confirm Receiver is not current Owner\r\n            require(owners[currID] != _receiver, \"You cannot send coins to yourself\");\r\n            Coin memory currCoin = coins[currID];\r\n            // Confirm sender/receiver conditions are fulfilled\r\n            for(uint256 j = 0; j < currCoin.senderConditions.length; j++){\r\n                require(verifier.checkCertificate(owners[currID], currCoin.senderConditions[j]), \"Not all sender-conditions fulfilled\");\r\n            }\r\n            for(uint256 j = 0; j < currCoin.receiverConditions.length; j++){\r\n                require(verifier.checkCertificate(_receiver, currCoin.receiverConditions[j]), \"Not all receiver-conditions fulfilled\");\r\n            }\r\n            coins[currID].senderConditions = _senderConditions;\r\n            coins[currID].receiverConditions = _receiverConditions;\r\n            coins[currID].permit = address(0);\r\n            owners[currID] = _receiver;\r\n            allowed[currID] = address(0);\r\n        }\r\n    }\r\n\r\n    function permit(address _target, uint256[] memory _coins) public {\r\n        // Confirm target address exists\r\n        require(_target != address(0), \"Cannot send coins to this address\");\r\n        // Confirm coins are specified\r\n        require(_coins.length != 0, \"Specify coins you want to give permission for\");\r\n        for(uint256 i = 0; i < _coins.length; i++){\r\n            uint256 currID = _coins[i];\r\n            require(owners[currID] == msg.sender, \"You are not the owner of all specified coins\");\r\n            coins[currID].permit = _target;\r\n            allowed[currID] = _target;\r\n        }\r\n    }\r\n\r\n    function wallet() public view returns (Coin[] memory) { \r\n        uint256 amount = 0;\r\n        for(uint i = 0; i < coinID; i++){\r\n            if(owners[i] == msg.sender){\r\n                amount++;\r\n            }\r\n        }\r\n        Coin[] memory balance = new Coin[](amount);\r\n        uint256 count = 0;\r\n        for(uint i = 0; count < amount; i++){\r\n            if(owners[i] == msg.sender){\r\n                balance[count] = coins[i];\r\n                count++;\r\n            }\r\n        }\r\n        return balance;\r\n    } \r\n}\r\n\r\ncontract VerifyBank {\r\n    function checkCertificate(address user, string memory condition) public view returns (bool) {}\r\n}",
  "sourcePath": "C:\\Bachelor_Code\\Smart-Sponsor-v3\\contracts\\Bank.sol",
  "compiler": {
    "name": "solc",
    "version": "0.8.15+commit.e14f2714.Emscripten.clang"
  },
  "schemaVersion": "3.4.4",
  "updatedAt": "2022-07-25T20:56:40.817Z",
  "networkType": "ethereum",
  "devdoc": {
    "kind": "dev",
    "methods": {
      "owner()": {
        "details": "Returns the address of the current owner."
      },
      "renounceOwnership()": {
        "details": "Leaves the contract without owner. It will not be possible to call `onlyOwner` functions anymore. Can only be called by the current owner. NOTE: Renouncing ownership will leave the contract without an owner, thereby removing any functionality that is only available to the owner."
      },
      "transferOwnership(address)": {
        "details": "Transfers ownership of the contract to a new account (`newOwner`). Can only be called by the current owner."
      }
    },
    "version": 1
  },
  "userdoc": {
    "kind": "user",
    "methods": {},
    "version": 1
  }
}