{
  "contractName": "Bank",
  "abi": [
    {
      "anonymous": false,
      "inputs": [
        {
          "indexed": true,
          "internalType": "address",
          "name": "previousOwner",
          "type": "address"
        },
        {
          "indexed": true,
          "internalType": "address",
          "name": "newOwner",
          "type": "address"
        }
      ],
      "name": "OwnershipTransferred",
      "type": "event"
    },
    {
      "anonymous": false,
      "inputs": [
        {
          "indexed": false,
          "internalType": "uint256",
          "name": "_coinID",
          "type": "uint256"
        },
        {
          "indexed": false,
          "internalType": "address",
          "name": "_owner",
          "type": "address"
        }
      ],
      "name": "coinMinted",
      "type": "event"
    },
    {
      "anonymous": false,
      "inputs": [
        {
          "indexed": false,
          "internalType": "uint256",
          "name": "_coinID",
          "type": "uint256"
        }
      ],
      "name": "coinPermitted",
      "type": "event"
    },
    {
      "anonymous": false,
      "inputs": [
        {
          "indexed": false,
          "internalType": "uint256",
          "name": "_coinID",
          "type": "uint256"
        }
      ],
      "name": "coinTransfer",
      "type": "event"
    },
    {
      "inputs": [
        {
          "internalType": "uint256",
          "name": "",
          "type": "uint256"
        }
      ],
      "name": "allowed",
      "outputs": [
        {
          "internalType": "address",
          "name": "",
          "type": "address"
        }
      ],
      "stateMutability": "view",
      "type": "function",
      "constant": true
    },
    {
      "inputs": [],
      "name": "coinID",
      "outputs": [
        {
          "internalType": "uint256",
          "name": "",
          "type": "uint256"
        }
      ],
      "stateMutability": "view",
      "type": "function",
      "constant": true
    },
    {
      "inputs": [
        {
          "internalType": "uint256",
          "name": "",
          "type": "uint256"
        }
      ],
      "name": "coins",
      "outputs": [
        {
          "internalType": "uint256",
          "name": "coinID",
          "type": "uint256"
        },
        {
          "internalType": "address",
          "name": "permit",
          "type": "address"
        }
      ],
      "stateMutability": "view",
      "type": "function",
      "constant": true
    },
    {
      "inputs": [],
      "name": "owner",
      "outputs": [
        {
          "internalType": "address",
          "name": "",
          "type": "address"
        }
      ],
      "stateMutability": "view",
      "type": "function",
      "constant": true
    },
    {
      "inputs": [
        {
          "internalType": "uint256",
          "name": "",
          "type": "uint256"
        }
      ],
      "name": "owners",
      "outputs": [
        {
          "internalType": "address",
          "name": "",
          "type": "address"
        }
      ],
      "stateMutability": "view",
      "type": "function",
      "constant": true
    },
    {
      "inputs": [],
      "name": "renounceOwnership",
      "outputs": [],
      "stateMutability": "nonpayable",
      "type": "function"
    },
    {
      "inputs": [
        {
          "internalType": "address",
          "name": "newOwner",
          "type": "address"
        }
      ],
      "name": "transferOwnership",
      "outputs": [],
      "stateMutability": "nonpayable",
      "type": "function"
    },
    {
      "inputs": [
        {
          "internalType": "address",
          "name": "_verifier",
          "type": "address"
        }
      ],
      "name": "setVerifier",
      "outputs": [],
      "stateMutability": "nonpayable",
      "type": "function"
    },
    {
      "inputs": [
        {
          "internalType": "address",
          "name": "_owner",
          "type": "address"
        },
        {
          "internalType": "uint256",
          "name": "_amount",
          "type": "uint256"
        },
        {
          "internalType": "string[]",
          "name": "_senderConditions",
          "type": "string[]"
        },
        {
          "internalType": "string[]",
          "name": "_receiverConditions",
          "type": "string[]"
        }
      ],
      "name": "mint",
      "outputs": [],
      "stateMutability": "nonpayable",
      "type": "function"
    },
    {
      "inputs": [
        {
          "internalType": "address",
          "name": "_receiver",
          "type": "address"
        },
        {
          "internalType": "uint256[]",
          "name": "_payment",
          "type": "uint256[]"
        }
      ],
      "name": "normalTransfer",
      "outputs": [],
      "stateMutability": "nonpayable",
      "type": "function"
    },
    {
      "inputs": [
        {
          "internalType": "address",
          "name": "_receiver",
          "type": "address"
        },
        {
          "internalType": "uint256[]",
          "name": "_payment",
          "type": "uint256[]"
        },
        {
          "internalType": "string[]",
          "name": "senderConditions",
          "type": "string[]"
        },
        {
          "internalType": "string[]",
          "name": "receiverConditions",
          "type": "string[]"
        }
      ],
      "name": "attachTransfer",
      "outputs": [],
      "stateMutability": "nonpayable",
      "type": "function"
    },
    {
      "inputs": [
        {
          "internalType": "address",
          "name": "_target",
          "type": "address"
        },
        {
          "internalType": "uint256[]",
          "name": "_coins",
          "type": "uint256[]"
        }
      ],
      "name": "permit",
      "outputs": [],
      "stateMutability": "nonpayable",
      "type": "function"
    },
    {
      "inputs": [],
      "name": "wallet",
      "outputs": [
        {
          "components": [
            {
              "internalType": "uint256",
              "name": "coinID",
              "type": "uint256"
            },
            {
              "internalType": "address",
              "name": "permit",
              "type": "address"
            },
            {
              "internalType": "string[]",
              "name": "senderConditions",
              "type": "string[]"
            },
            {
              "internalType": "string[]",
              "name": "receiverConditions",
              "type": "string[]"
            }
          ],
          "internalType": "struct Bank.Coin[]",
          "name": "",
          "type": "tuple[]"
        }
      ],
      "stateMutability": "view",
      "type": "function",
      "constant": true
    }
  ],
  "bytecode": "0x60806040523480156200001157600080fd5b5062000032620000266200003860201b60201c565b6200004060201b60201c565b62000104565b600033905090565b60008060009054906101000a900473ffffffffffffffffffffffffffffffffffffffff169050816000806101000a81548173ffffffffffffffffffffffffffffffffffffffff021916908373ffffffffffffffffffffffffffffffffffffffff1602179055508173ffffffffffffffffffffffffffffffffffffffff168173ffffffffffffffffffffffffffffffffffffffff167f8be0079c531659141344cd1fd0a4f28419497f9722a3daafe3b4186f6b6457e060405160405180910390a35050565b6136de80620001146000396000f3fe608060405234801561001057600080fd5b50600436106100cf5760003560e01c80638da5cb5b1161008c578063c661065711610066578063c6610657146101ea578063d714e8e91461021b578063d91bb26c14610237578063f2fde38b14610255576100cf565b80638da5cb5b14610194578063a0a88c94146101b2578063a4acb5b4146101ce576100cf565b8063025e7c27146100d4578063214296e814610104578063521eb273146101345780635437988d146101525780636aa2932c1461016e578063715018a61461018a575b600080fd5b6100ee60048036038101906100e991906125f3565b610271565b6040516100fb9190612661565b60405180910390f35b61011e600480360381019061011991906125f3565b6102b0565b60405161012b9190612661565b60405180910390f35b61013c6102ef565b6040516101499190612921565b60405180910390f35b61016c6004803603810190610167919061296f565b6106f1565b005b61018860048036038101906101839190612ae4565b6107b1565b005b6101926110f7565b005b61019c61117f565b6040516101a99190612661565b60405180910390f35b6101cc60048036038101906101c79190612cd6565b6111a8565b005b6101e860048036038101906101e39190612ae4565b611507565b005b61020460048036038101906101ff91906125f3565b6117a2565b604051610212929190612d84565b60405180910390f35b61023560048036038101906102309190612dad565b6117f6565b005b61023f612146565b60405161024c9190612e68565b60405180910390f35b61026f600480360381019061026a919061296f565b61214c565b005b6003818154811061028157600080fd5b906000526020600020016000915054906101000a900473ffffffffffffffffffffffffffffffffffffffff1681565b600481815481106102c057600080fd5b906000526020600020016000915054906101000a900473ffffffffffffffffffffffffffffffffffffffff1681565b60606000805b600154811015610392573373ffffffffffffffffffffffffffffffffffffffff166003828154811061032a57610329612e83565b5b9060005260206000200160009054906101000a900473ffffffffffffffffffffffffffffffffffffffff1673ffffffffffffffffffffffffffffffffffffffff160361037f57818061037b90612ee1565b9250505b808061038a90612ee1565b9150506102f5565b5060008167ffffffffffffffff8111156103af576103ae6129a1565b5b6040519080825280602002602001820160405280156103e857816020015b6103d561230f565b8152602001906001900390816103cd5790505b5090506000805b838210156106e7573373ffffffffffffffffffffffffffffffffffffffff166003828154811061042257610421612e83565b5b9060005260206000200160009054906101000a900473ffffffffffffffffffffffffffffffffffffffff1673ffffffffffffffffffffffffffffffffffffffff16036106d4576002818154811061047c5761047b612e83565b5b9060005260206000209060040201604051806080016040529081600082015481526020016001820160009054906101000a900473ffffffffffffffffffffffffffffffffffffffff1673ffffffffffffffffffffffffffffffffffffffff1673ffffffffffffffffffffffffffffffffffffffff16815260200160028201805480602002602001604051908101604052809291908181526020016000905b828210156105c657838290600052602060002001805461053990612f58565b80601f016020809104026020016040519081016040528092919081815260200182805461056590612f58565b80156105b25780601f10610587576101008083540402835291602001916105b2565b820191906000526020600020905b81548152906001019060200180831161059557829003601f168201915b50505050508152602001906001019061051a565b50505050815260200160038201805480602002602001604051908101604052809291908181526020016000905b8282101561069f57838290600052602060002001805461061290612f58565b80601f016020809104026020016040519081016040528092919081815260200182805461063e90612f58565b801561068b5780601f106106605761010080835404028352916020019161068b565b820191906000526020600020905b81548152906001019060200180831161066e57829003601f168201915b5050505050815260200190600101906105f3565b50505050815250508383815181106106ba576106b9612e83565b5b602002602001018190525081806106d090612ee1565b9250505b80806106df90612ee1565b9150506103ef565b5081935050505090565b6106f9612243565b73ffffffffffffffffffffffffffffffffffffffff1661071761117f565b73ffffffffffffffffffffffffffffffffffffffff161461076d576040517f08c379a000000000000000000000000000000000000000000000000000000000815260040161076490612fe6565b60405180910390fd5b80600560006101000a81548173ffffffffffffffffffffffffffffffffffffffff021916908373ffffffffffffffffffffffffffffffffffffffff16021790555050565b600073ffffffffffffffffffffffffffffffffffffffff168273ffffffffffffffffffffffffffffffffffffffff1603610820576040517f08c379a000000000000000000000000000000000000000000000000000000000815260040161081790613078565b60405180910390fd5b6000815103610864576040517f08c379a000000000000000000000000000000000000000000000000000000000815260040161085b906130e4565b60405180910390fd5b60005b81518110156110f257600082828151811061088557610884612e83565b5b602002602001015190503373ffffffffffffffffffffffffffffffffffffffff16600382815481106108ba576108b9612e83565b5b9060005260206000200160009054906101000a900473ffffffffffffffffffffffffffffffffffffffff1673ffffffffffffffffffffffffffffffffffffffff16148061097057503373ffffffffffffffffffffffffffffffffffffffff166004828154811061092d5761092c612e83565b5b9060005260206000200160009054906101000a900473ffffffffffffffffffffffffffffffffffffffff1673ffffffffffffffffffffffffffffffffffffffff16145b6109af576040517f08c379a00000000000000000000000000000000000000000000000000000000081526004016109a690613176565b60405180910390fd5b8373ffffffffffffffffffffffffffffffffffffffff16600382815481106109da576109d9612e83565b5b9060005260206000200160009054906101000a900473ffffffffffffffffffffffffffffffffffffffff1673ffffffffffffffffffffffffffffffffffffffff1603610a5b576040517f08c379a0000000000000000000000000000000000000000000000000000000008152600401610a5290613208565b60405180910390fd5b600060028281548110610a7157610a70612e83565b5b9060005260206000209060040201604051806080016040529081600082015481526020016001820160009054906101000a900473ffffffffffffffffffffffffffffffffffffffff1673ffffffffffffffffffffffffffffffffffffffff1673ffffffffffffffffffffffffffffffffffffffff16815260200160028201805480602002602001604051908101604052809291908181526020016000905b82821015610bbb578382906000526020600020018054610b2e90612f58565b80601f0160208091040260200160405190810160405280929190818152602001828054610b5a90612f58565b8015610ba75780601f10610b7c57610100808354040283529160200191610ba7565b820191906000526020600020905b815481529060010190602001808311610b8a57829003601f168201915b505050505081526020019060010190610b0f565b50505050815260200160038201805480602002602001604051908101604052809291908181526020016000905b82821015610c94578382906000526020600020018054610c0790612f58565b80601f0160208091040260200160405190810160405280929190818152602001828054610c3390612f58565b8015610c805780601f10610c5557610100808354040283529160200191610c80565b820191906000526020600020905b815481529060010190602001808311610c6357829003601f168201915b505050505081526020019060010190610be8565b5050505081525050905060005b816040015151811015610dfa57600560009054906101000a900473ffffffffffffffffffffffffffffffffffffffff1673ffffffffffffffffffffffffffffffffffffffff1663d241a98d60038581548110610d0057610cff612e83565b5b9060005260206000200160009054906101000a900473ffffffffffffffffffffffffffffffffffffffff1684604001518481518110610d4257610d41612e83565b5b60200260200101516040518363ffffffff1660e01b8152600401610d67929190613261565b602060405180830381865afa158015610d84573d6000803e3d6000fd5b505050506040513d601f19601f82011682018060405250810190610da891906132c9565b610de7576040517f08c379a0000000000000000000000000000000000000000000000000000000008152600401610dde90613368565b60405180910390fd5b8080610df290612ee1565b915050610ca1565b5060005b816060015151811015610f1957600560009054906101000a900473ffffffffffffffffffffffffffffffffffffffff1673ffffffffffffffffffffffffffffffffffffffff1663d241a98d8784606001518481518110610e6157610e60612e83565b5b60200260200101516040518363ffffffff1660e01b8152600401610e86929190613261565b602060405180830381865afa158015610ea3573d6000803e3d6000fd5b505050506040513d601f19601f82011682018060405250810190610ec791906132c9565b610f06576040517f08c379a0000000000000000000000000000000000000000000000000000000008152600401610efd906133fa565b60405180910390fd5b8080610f1190612ee1565b915050610dfe565b50600660028381548110610f3057610f2f612e83565b5b9060005260206000209060040201600201908054610f4f92919061234d565b50600660028381548110610f6657610f65612e83565b5b9060005260206000209060040201600301908054610f8592919061234d565b50600060028381548110610f9c57610f9b612e83565b5b906000526020600020906004020160010160006101000a81548173ffffffffffffffffffffffffffffffffffffffff021916908373ffffffffffffffffffffffffffffffffffffffff160217905550846003838154811061100057610fff612e83565b5b9060005260206000200160006101000a81548173ffffffffffffffffffffffffffffffffffffffff021916908373ffffffffffffffffffffffffffffffffffffffff16021790555060006004838154811061105e5761105d612e83565b5b9060005260206000200160006101000a81548173ffffffffffffffffffffffffffffffffffffffff021916908373ffffffffffffffffffffffffffffffffffffffff1602179055507f3a40e7721851a136de859b9a818186cef85672393df10f57596e2d9c8479fd17826040516110d59190612e68565b60405180910390a1505080806110ea90612ee1565b915050610867565b505050565b6110ff612243565b73ffffffffffffffffffffffffffffffffffffffff1661111d61117f565b73ffffffffffffffffffffffffffffffffffffffff1614611173576040517f08c379a000000000000000000000000000000000000000000000000000000000815260040161116a90612fe6565b60405180910390fd5b61117d600061224b565b565b60008060009054906101000a900473ffffffffffffffffffffffffffffffffffffffff16905090565b6111b0612243565b73ffffffffffffffffffffffffffffffffffffffff166111ce61117f565b73ffffffffffffffffffffffffffffffffffffffff1614611224576040517f08c379a000000000000000000000000000000000000000000000000000000000815260040161121b90612fe6565b60405180910390fd5b600073ffffffffffffffffffffffffffffffffffffffff168473ffffffffffffffffffffffffffffffffffffffff1603611293576040517f08c379a000000000000000000000000000000000000000000000000000000000815260040161128a90613466565b60405180910390fd5b600083036112d6576040517f08c379a00000000000000000000000000000000000000000000000000000000081526004016112cd906134d2565b60405180910390fd5b60005b8381101561150057600260405180608001604052806001548152602001600073ffffffffffffffffffffffffffffffffffffffff1681526020018581526020018481525090806001815401808255809150506001900390600052602060002090600402016000909190919091506000820151816000015560208201518160010160006101000a81548173ffffffffffffffffffffffffffffffffffffffff021916908373ffffffffffffffffffffffffffffffffffffffff16021790555060408201518160020190805190602001906113b39291906123b5565b5060608201518160030190805190602001906113d09291906123b5565b5050506003859080600181540180825580915050600190039060005260206000200160009091909190916101000a81548173ffffffffffffffffffffffffffffffffffffffff021916908373ffffffffffffffffffffffffffffffffffffffff160217905550600460009080600181540180825580915050600190039060005260206000200160009091909190916101000a81548173ffffffffffffffffffffffffffffffffffffffff021916908373ffffffffffffffffffffffffffffffffffffffff1602179055507f3233578ac41f2df32794603113cb2269cf5af2205dba123be51fc666996c6ef6600154866040516114cd929190612d84565b60405180910390a1600160008154809291906114e890612ee1565b919050555080806114f890612ee1565b9150506112d9565b5050505050565b600073ffffffffffffffffffffffffffffffffffffffff168273ffffffffffffffffffffffffffffffffffffffff1603611576576040517f08c379a000000000000000000000000000000000000000000000000000000000815260040161156d90613078565b60405180910390fd5b60008151036115ba576040517f08c379a00000000000000000000000000000000000000000000000000000000081526004016115b190613564565b60405180910390fd5b60005b815181101561179d5760008282815181106115db576115da612e83565b5b602002602001015190503373ffffffffffffffffffffffffffffffffffffffff16600382815481106116105761160f612e83565b5b9060005260206000200160009054906101000a900473ffffffffffffffffffffffffffffffffffffffff1673ffffffffffffffffffffffffffffffffffffffff1614611691576040517f08c379a0000000000000000000000000000000000000000000000000000000008152600401611688906135f6565b60405180910390fd5b83600282815481106116a6576116a5612e83565b5b906000526020600020906004020160010160006101000a81548173ffffffffffffffffffffffffffffffffffffffff021916908373ffffffffffffffffffffffffffffffffffffffff160217905550836004828154811061170a57611709612e83565b5b9060005260206000200160006101000a81548173ffffffffffffffffffffffffffffffffffffffff021916908373ffffffffffffffffffffffffffffffffffffffff1602179055507f42bf4d4700b8a5f3e8a44f756d16c030cecedd27b053d9a41b8669ec110197ec816040516117819190612e68565b60405180910390a150808061179590612ee1565b9150506115bd565b505050565b600281815481106117b257600080fd5b90600052602060002090600402016000915090508060000154908060010160009054906101000a900473ffffffffffffffffffffffffffffffffffffffff16905082565b600073ffffffffffffffffffffffffffffffffffffffff168473ffffffffffffffffffffffffffffffffffffffff1603611865576040517f08c379a000000000000000000000000000000000000000000000000000000000815260040161185c90613078565b60405180910390fd5b60008351036118a9576040517f08c379a00000000000000000000000000000000000000000000000000000000081526004016118a0906130e4565b60405180910390fd5b60005b835181101561213f5760008482815181106118ca576118c9612e83565b5b602002602001015190503373ffffffffffffffffffffffffffffffffffffffff16600382815481106118ff576118fe612e83565b5b9060005260206000200160009054906101000a900473ffffffffffffffffffffffffffffffffffffffff1673ffffffffffffffffffffffffffffffffffffffff1614806119b557503373ffffffffffffffffffffffffffffffffffffffff166004828154811061197257611971612e83565b5b9060005260206000200160009054906101000a900473ffffffffffffffffffffffffffffffffffffffff1673ffffffffffffffffffffffffffffffffffffffff16145b6119f4576040517f08c379a00000000000000000000000000000000000000000000000000000000081526004016119eb90613176565b60405180910390fd5b8573ffffffffffffffffffffffffffffffffffffffff1660038281548110611a1f57611a1e612e83565b5b9060005260206000200160009054906101000a900473ffffffffffffffffffffffffffffffffffffffff1673ffffffffffffffffffffffffffffffffffffffff1603611aa0576040517f08c379a0000000000000000000000000000000000000000000000000000000008152600401611a9790613208565b60405180910390fd5b600060028281548110611ab657611ab5612e83565b5b9060005260206000209060040201604051806080016040529081600082015481526020016001820160009054906101000a900473ffffffffffffffffffffffffffffffffffffffff1673ffffffffffffffffffffffffffffffffffffffff1673ffffffffffffffffffffffffffffffffffffffff16815260200160028201805480602002602001604051908101604052809291908181526020016000905b82821015611c00578382906000526020600020018054611b7390612f58565b80601f0160208091040260200160405190810160405280929190818152602001828054611b9f90612f58565b8015611bec5780601f10611bc157610100808354040283529160200191611bec565b820191906000526020600020905b815481529060010190602001808311611bcf57829003601f168201915b505050505081526020019060010190611b54565b50505050815260200160038201805480602002602001604051908101604052809291908181526020016000905b82821015611cd9578382906000526020600020018054611c4c90612f58565b80601f0160208091040260200160405190810160405280929190818152602001828054611c7890612f58565b8015611cc55780601f10611c9a57610100808354040283529160200191611cc5565b820191906000526020600020905b815481529060010190602001808311611ca857829003601f168201915b505050505081526020019060010190611c2d565b5050505081525050905060005b816040015151811015611e3f57600560009054906101000a900473ffffffffffffffffffffffffffffffffffffffff1673ffffffffffffffffffffffffffffffffffffffff1663d241a98d60038581548110611d4557611d44612e83565b5b9060005260206000200160009054906101000a900473ffffffffffffffffffffffffffffffffffffffff1684604001518481518110611d8757611d86612e83565b5b60200260200101516040518363ffffffff1660e01b8152600401611dac929190613261565b602060405180830381865afa158015611dc9573d6000803e3d6000fd5b505050506040513d601f19601f82011682018060405250810190611ded91906132c9565b611e2c576040517f08c379a0000000000000000000000000000000000000000000000000000000008152600401611e2390613368565b60405180910390fd5b8080611e3790612ee1565b915050611ce6565b5060005b816060015151811015611f5e57600560009054906101000a900473ffffffffffffffffffffffffffffffffffffffff1673ffffffffffffffffffffffffffffffffffffffff1663d241a98d8984606001518481518110611ea657611ea5612e83565b5b60200260200101516040518363ffffffff1660e01b8152600401611ecb929190613261565b602060405180830381865afa158015611ee8573d6000803e3d6000fd5b505050506040513d601f19601f82011682018060405250810190611f0c91906132c9565b611f4b576040517f08c379a0000000000000000000000000000000000000000000000000000000008152600401611f42906133fa565b60405180910390fd5b8080611f5690612ee1565b915050611e43565b508460028381548110611f7457611f73612e83565b5b90600052602060002090600402016002019080519060200190611f989291906123b5565b508360028381548110611fae57611fad612e83565b5b90600052602060002090600402016003019080519060200190611fd29291906123b5565b50600060028381548110611fe957611fe8612e83565b5b906000526020600020906004020160010160006101000a81548173ffffffffffffffffffffffffffffffffffffffff021916908373ffffffffffffffffffffffffffffffffffffffff160217905550866003838154811061204d5761204c612e83565b5b9060005260206000200160006101000a81548173ffffffffffffffffffffffffffffffffffffffff021916908373ffffffffffffffffffffffffffffffffffffffff1602179055506000600483815481106120ab576120aa612e83565b5b9060005260206000200160006101000a81548173ffffffffffffffffffffffffffffffffffffffff021916908373ffffffffffffffffffffffffffffffffffffffff1602179055507f3a40e7721851a136de859b9a818186cef85672393df10f57596e2d9c8479fd17826040516121229190612e68565b60405180910390a15050808061213790612ee1565b9150506118ac565b5050505050565b60015481565b612154612243565b73ffffffffffffffffffffffffffffffffffffffff1661217261117f565b73ffffffffffffffffffffffffffffffffffffffff16146121c8576040517f08c379a00000000000000000000000000000000000000000000000000000000081526004016121bf90612fe6565b60405180910390fd5b600073ffffffffffffffffffffffffffffffffffffffff168173ffffffffffffffffffffffffffffffffffffffff1603612237576040517f08c379a000000000000000000000000000000000000000000000000000000000815260040161222e90613688565b60405180910390fd5b6122408161224b565b50565b600033905090565b60008060009054906101000a900473ffffffffffffffffffffffffffffffffffffffff169050816000806101000a81548173ffffffffffffffffffffffffffffffffffffffff021916908373ffffffffffffffffffffffffffffffffffffffff1602179055508173ffffffffffffffffffffffffffffffffffffffff168173ffffffffffffffffffffffffffffffffffffffff167f8be0079c531659141344cd1fd0a4f28419497f9722a3daafe3b4186f6b6457e060405160405180910390a35050565b604051806080016040528060008152602001600073ffffffffffffffffffffffffffffffffffffffff16815260200160608152602001606081525090565b8280548282559060005260206000209081019282156123a45760005260206000209182015b828111156123a357828290805461238890612f58565b612393929190612415565b5091600101919060010190612372565b5b5090506123b191906124a2565b5090565b828054828255906000526020600020908101928215612404579160200282015b828111156124035782518290805190602001906123f39291906124c6565b50916020019190600101906123d5565b5b50905061241191906124a2565b5090565b82805461242190612f58565b90600052602060002090601f0160209004810192826124435760008555612491565b82601f106124545780548555612491565b8280016001018555821561249157600052602060002091601f016020900482015b82811115612490578254825591600101919060010190612475565b5b50905061249e919061254c565b5090565b5b808211156124c257600081816124b99190612569565b506001016124a3565b5090565b8280546124d290612f58565b90600052602060002090601f0160209004810192826124f4576000855561253b565b82601f1061250d57805160ff191683800117855561253b565b8280016001018555821561253b579182015b8281111561253a57825182559160200191906001019061251f565b5b509050612548919061254c565b5090565b5b8082111561256557600081600090555060010161254d565b5090565b50805461257590612f58565b6000825580601f1061258757506125a6565b601f0160209004906000526020600020908101906125a5919061254c565b5b50565b6000604051905090565b600080fd5b600080fd5b6000819050919050565b6125d0816125bd565b81146125db57600080fd5b50565b6000813590506125ed816125c7565b92915050565b600060208284031215612609576126086125b3565b5b6000612617848285016125de565b91505092915050565b600073ffffffffffffffffffffffffffffffffffffffff82169050919050565b600061264b82612620565b9050919050565b61265b81612640565b82525050565b60006020820190506126766000830184612652565b92915050565b600081519050919050565b600082825260208201905092915050565b6000819050602082019050919050565b6126b1816125bd565b82525050565b6126c081612640565b82525050565b600081519050919050565b600082825260208201905092915050565b6000819050602082019050919050565b600081519050919050565b600082825260208201905092915050565b60005b8381101561272c578082015181840152602081019050612711565b8381111561273b576000848401525b50505050565b6000601f19601f8301169050919050565b600061275d826126f2565b61276781856126fd565b935061277781856020860161270e565b61278081612741565b840191505092915050565b60006127978383612752565b905092915050565b6000602082019050919050565b60006127b7826126c6565b6127c181856126d1565b9350836020820285016127d3856126e2565b8060005b8581101561280f57848403895281516127f0858261278b565b94506127fb8361279f565b925060208a019950506001810190506127d7565b50829750879550505050505092915050565b600060808301600083015161283960008601826126a8565b50602083015161284c60208601826126b7565b506040830151848203604086015261286482826127ac565b9150506060830151848203606086015261287e82826127ac565b9150508091505092915050565b60006128978383612821565b905092915050565b6000602082019050919050565b60006128b78261267c565b6128c18185612687565b9350836020820285016128d385612698565b8060005b8581101561290f57848403895281516128f0858261288b565b94506128fb8361289f565b925060208a019950506001810190506128d7565b50829750879550505050505092915050565b6000602082019050818103600083015261293b81846128ac565b905092915050565b61294c81612640565b811461295757600080fd5b50565b60008135905061296981612943565b92915050565b600060208284031215612985576129846125b3565b5b60006129938482850161295a565b91505092915050565b600080fd5b7f4e487b7100000000000000000000000000000000000000000000000000000000600052604160045260246000fd5b6129d982612741565b810181811067ffffffffffffffff821117156129f8576129f76129a1565b5b80604052505050565b6000612a0b6125a9565b9050612a1782826129d0565b919050565b600067ffffffffffffffff821115612a3757612a366129a1565b5b602082029050602081019050919050565b600080fd5b6000612a60612a5b84612a1c565b612a01565b90508083825260208201905060208402830185811115612a8357612a82612a48565b5b835b81811015612aac5780612a9888826125de565b845260208401935050602081019050612a85565b5050509392505050565b600082601f830112612acb57612aca61299c565b5b8135612adb848260208601612a4d565b91505092915050565b60008060408385031215612afb57612afa6125b3565b5b6000612b098582860161295a565b925050602083013567ffffffffffffffff811115612b2a57612b296125b8565b5b612b3685828601612ab6565b9150509250929050565b600067ffffffffffffffff821115612b5b57612b5a6129a1565b5b602082029050602081019050919050565b600080fd5b600067ffffffffffffffff821115612b8c57612b8b6129a1565b5b612b9582612741565b9050602081019050919050565b82818337600083830152505050565b6000612bc4612bbf84612b71565b612a01565b905082815260208101848484011115612be057612bdf612b6c565b5b612beb848285612ba2565b509392505050565b600082601f830112612c0857612c0761299c565b5b8135612c18848260208601612bb1565b91505092915050565b6000612c34612c2f84612b40565b612a01565b90508083825260208201905060208402830185811115612c5757612c56612a48565b5b835b81811015612c9e57803567ffffffffffffffff811115612c7c57612c7b61299c565b5b808601612c898982612bf3565b85526020850194505050602081019050612c59565b5050509392505050565b600082601f830112612cbd57612cbc61299c565b5b8135612ccd848260208601612c21565b91505092915050565b60008060008060808587031215612cf057612cef6125b3565b5b6000612cfe8782880161295a565b9450506020612d0f878288016125de565b935050604085013567ffffffffffffffff811115612d3057612d2f6125b8565b5b612d3c87828801612ca8565b925050606085013567ffffffffffffffff811115612d5d57612d5c6125b8565b5b612d6987828801612ca8565b91505092959194509250565b612d7e816125bd565b82525050565b6000604082019050612d996000830185612d75565b612da66020830184612652565b9392505050565b60008060008060808587031215612dc757612dc66125b3565b5b6000612dd58782880161295a565b945050602085013567ffffffffffffffff811115612df657612df56125b8565b5b612e0287828801612ab6565b935050604085013567ffffffffffffffff811115612e2357612e226125b8565b5b612e2f87828801612ca8565b925050606085013567ffffffffffffffff811115612e5057612e4f6125b8565b5b612e5c87828801612ca8565b91505092959194509250565b6000602082019050612e7d6000830184612d75565b92915050565b7f4e487b7100000000000000000000000000000000000000000000000000000000600052603260045260246000fd5b7f4e487b7100000000000000000000000000000000000000000000000000000000600052601160045260246000fd5b6000612eec826125bd565b91507fffffffffffffffffffffffffffffffffffffffffffffffffffffffffffffffff8203612f1e57612f1d612eb2565b5b600182019050919050565b7f4e487b7100000000000000000000000000000000000000000000000000000000600052602260045260246000fd5b60006002820490506001821680612f7057607f821691505b602082108103612f8357612f82612f29565b5b50919050565b600082825260208201905092915050565b7f4f776e61626c653a2063616c6c6572206973206e6f7420746865206f776e6572600082015250565b6000612fd0602083612f89565b9150612fdb82612f9a565b602082019050919050565b60006020820190508181036000830152612fff81612fc3565b9050919050565b7f43616e6e6f742073656e6420636f696e7320746f20746869732061646472657360008201527f7300000000000000000000000000000000000000000000000000000000000000602082015250565b6000613062602183612f89565b915061306d82613006565b604082019050919050565b6000602082019050818103600083015261309181613055565b9050919050565b7f5370656369667920616e20616d6f756e7420746f2073656e6400000000000000600082015250565b60006130ce601983612f89565b91506130d982613098565b602082019050919050565b600060208201905081810360008301526130fd816130c1565b9050919050565b7f596f7520646f206e6f742068617665207065726d697373696f6e206f7665722060008201527f616c6c20746865736520636f696e730000000000000000000000000000000000602082015250565b6000613160602f83612f89565b915061316b82613104565b604082019050919050565b6000602082019050818103600083015261318f81613153565b9050919050565b7f596f752063616e6e6f742073656e6420636f696e7320746f20796f757273656c60008201527f6600000000000000000000000000000000000000000000000000000000000000602082015250565b60006131f2602183612f89565b91506131fd82613196565b604082019050919050565b60006020820190508181036000830152613221816131e5565b9050919050565b6000613233826126f2565b61323d8185612f89565b935061324d81856020860161270e565b61325681612741565b840191505092915050565b60006040820190506132766000830185612652565b81810360208301526132888184613228565b90509392505050565b60008115159050919050565b6132a681613291565b81146132b157600080fd5b50565b6000815190506132c38161329d565b92915050565b6000602082840312156132df576132de6125b3565b5b60006132ed848285016132b4565b91505092915050565b7f4e6f7420616c6c2073656e6465722d636f6e646974696f6e732066756c66696c60008201527f6c65640000000000000000000000000000000000000000000000000000000000602082015250565b6000613352602383612f89565b915061335d826132f6565b604082019050919050565b6000602082019050818103600083015261338181613345565b9050919050565b7f4e6f7420616c6c2072656365697665722d636f6e646974696f6e732066756c6660008201527f696c6c6564000000000000000000000000000000000000000000000000000000602082015250565b60006133e4602583612f89565b91506133ef82613388565b604082019050919050565b60006020820190508181036000830152613413816133d7565b9050919050565b7f43616e6e6f74206d696e7420746f207468697320616464726573730000000000600082015250565b6000613450601b83612f89565b915061345b8261341a565b602082019050919050565b6000602082019050818103600083015261347f81613443565b9050919050565b7f4d696e742d616d6f756e7420756e737065636966696564000000000000000000600082015250565b60006134bc601783612f89565b91506134c782613486565b602082019050919050565b600060208201905081810360008301526134eb816134af565b9050919050565b7f5370656369667920636f696e7320796f752077616e7420746f2067697665207060008201527f65726d697373696f6e20666f7200000000000000000000000000000000000000602082015250565b600061354e602d83612f89565b9150613559826134f2565b604082019050919050565b6000602082019050818103600083015261357d81613541565b9050919050565b7f596f7520617265206e6f7420746865206f776e6572206f6620616c6c2073706560008201527f63696669656420636f696e730000000000000000000000000000000000000000602082015250565b60006135e0602c83612f89565b91506135eb82613584565b604082019050919050565b6000602082019050818103600083015261360f816135d3565b9050919050565b7f4f776e61626c653a206e6577206f776e657220697320746865207a65726f206160008201527f6464726573730000000000000000000000000000000000000000000000000000602082015250565b6000613672602683612f89565b915061367d82613616565b604082019050919050565b600060208201905081810360008301526136a181613665565b905091905056fea264697066735822122064d87b3a21e291bfb2b1423493c348825add70bcfadc9b1ecf94605a7b0bd75c64736f6c634300080d0033",
  "immutableReferences": {},
  "source": "// SPDX-License-Identifier: MIT\r\npragma solidity ^0.8.0;\r\n\r\nimport \"../client/node_modules/@openzeppelin/contracts/access/Ownable.sol\";\r\n\r\ncontract Bank is Ownable {\r\n\r\n    struct Coin {\r\n        uint256 coinID;\r\n        address permit;\r\n        string[] senderConditions;\r\n        string[] receiverConditions;\r\n    }\r\n\r\n    uint256 public coinID;\r\n    Coin[] public coins;\r\n    address[] public owners;\r\n    address[] public allowed;\r\n    VerifyBank private verifier;\r\n    string[] private empty;\r\n    \r\n\r\n    event coinMinted(\r\n        uint256 _coinID,\r\n        address _owner\r\n    );\r\n\r\n    event coinTransfer(\r\n        uint256 _coinID\r\n    );\r\n\r\n    event coinPermitted(\r\n        uint256 _coinID\r\n    );\r\n\r\n    function setVerifier(address _verifier) public onlyOwner() {\r\n        verifier = VerifyBank(_verifier);\r\n    }\r\n\r\n    function mint(address _owner, uint256 _amount, string[] memory _senderConditions, string[] memory _receiverConditions) public onlyOwner() {\r\n        // Confirm user is actual account\r\n        require(_owner != address(0), \"Cannot mint to this address\");\r\n        // Confirm amount is set\r\n        require(_amount != 0, \"Mint-amount unspecified\");\r\n        // Create new Coins and push them to array\r\n        for(uint256 i = 0; i < _amount; i++){\r\n            coins.push(Coin(coinID, address(0), _senderConditions, _receiverConditions));\r\n            owners.push(_owner);\r\n            allowed.push(address(0));\r\n            emit coinMinted(coinID, _owner);\r\n            coinID++;\r\n        }\r\n    }\r\n\r\n    function normalTransfer(address _receiver, uint256[] memory _payment) public {\r\n        // Confirm target address exists\r\n        require(_receiver != address(0), \"Cannot send coins to this address\");\r\n        // Confirm Coins to send are specified\r\n        require(_payment.length != 0, \"Specify an amount to send\");\r\n        for(uint256 i = 0; i < _payment.length; i++){\r\n            uint256 currID = _payment[i];\r\n            // Confirm permission to use this coin\r\n            require(owners[currID] == msg.sender || allowed[currID] == msg.sender, \"You do not have permission over all these coins\"); // TO-DO Modify to allow permission\r\n            // Confirm Receiver is not current Owner\r\n            require(owners[currID] != _receiver, \"You cannot send coins to yourself\");\r\n            Coin memory currCoin = coins[currID];\r\n            // Confirm sender/receiver conditions are fulfilled\r\n            for(uint256 j = 0; j < currCoin.senderConditions.length; j++){\r\n                require(verifier.checkCertificate(owners[currID], currCoin.senderConditions[j]), \"Not all sender-conditions fulfilled\");\r\n            }\r\n            for(uint256 j = 0; j < currCoin.receiverConditions.length; j++){\r\n                require(verifier.checkCertificate(_receiver, currCoin.receiverConditions[j]), \"Not all receiver-conditions fulfilled\");\r\n            }\r\n            coins[currID].senderConditions = empty;\r\n            coins[currID].receiverConditions = empty;\r\n            coins[currID].permit = address(0);\r\n            owners[currID] = _receiver;\r\n            allowed[currID] = address(0);\r\n            emit coinTransfer(currID);\r\n        }\r\n    }\r\n\r\n    function attachTransfer(address _receiver, uint256[] memory _payment, string[] memory senderConditions, string[] memory receiverConditions) public {\r\n        // Confirm target address exists\r\n        require(_receiver != address(0), \"Cannot send coins to this address\");\r\n        // Confirm Coins to send are specified\r\n        require(_payment.length != 0, \"Specify an amount to send\");\r\n        // No need to dissallow sending empty condition sets\r\n        for(uint256 i = 0; i < _payment.length; i++){\r\n            uint256 currID = _payment[i];\r\n            // Confirm permission to use this coin\r\n            require(owners[currID] == msg.sender || allowed[currID] == msg.sender, \"You do not have permission over all these coins\"); // TO-DO Modify to allow permission\r\n            // Confirm Receiver is not current Owner\r\n            require(owners[currID] != _receiver, \"You cannot send coins to yourself\");\r\n            Coin memory currCoin = coins[currID];\r\n            // Confirm sender/receiver conditions are fulfilled\r\n            for(uint256 j = 0; j < currCoin.senderConditions.length; j++){\r\n                require(verifier.checkCertificate(owners[currID], currCoin.senderConditions[j]), \"Not all sender-conditions fulfilled\");\r\n            }\r\n            for(uint256 j = 0; j < currCoin.receiverConditions.length; j++){\r\n                require(verifier.checkCertificate(_receiver, currCoin.receiverConditions[j]), \"Not all receiver-conditions fulfilled\");\r\n            }\r\n            coins[currID].senderConditions = senderConditions;\r\n            coins[currID].receiverConditions = receiverConditions;\r\n            coins[currID].permit = address(0);\r\n            owners[currID] = _receiver;\r\n            allowed[currID] = address(0);\r\n            emit coinTransfer(currID);\r\n        }\r\n    }\r\n\r\n    function permit(address _target, uint256[] memory _coins) public {\r\n        // Confirm target address exists\r\n        require(_target != address(0), \"Cannot send coins to this address\");\r\n        // Confirm coins are specified\r\n        require(_coins.length != 0, \"Specify coins you want to give permission for\");\r\n        for(uint256 i = 0; i < _coins.length; i++){\r\n            uint256 currID = _coins[i];\r\n            require(owners[currID] == msg.sender, \"You are not the owner of all specified coins\");\r\n            coins[currID].permit = _target;\r\n            allowed[currID] = _target;\r\n            emit coinPermitted(currID);\r\n        }\r\n    }\r\n\r\n    function wallet() public view returns (Coin[] memory) {  // TO-DO WHY DOES IT DOUBLE\r\n        uint256 amount = 0;\r\n        for(uint i = 0; i < coinID; i++){\r\n            if(owners[i] == msg.sender){\r\n                amount++;\r\n            }\r\n        }\r\n        Coin[] memory balance = new Coin[](amount);\r\n        uint256 count = 0;\r\n        for(uint i = 0; count < amount; i++){\r\n            if(owners[i] == msg.sender){\r\n                balance[count] = coins[i];\r\n                count++;\r\n            }\r\n        }\r\n        return balance;\r\n    } \r\n}\r\n\r\ncontract VerifyBank {\r\n    function checkCertificate(address user, string memory condition) public view returns (bool) {}\r\n}",
  "sourcePath": "C:\\Bachelor_Code\\Smart-Sponsor-v3\\contracts\\Bank.sol",
  "compiler": {
    "name": "solc",
    "version": "0.8.13+commit.abaa5c0e.Emscripten.clang"
  },
  "schemaVersion": "3.4.4",
  "updatedAt": "2022-05-07T20:58:20.159Z",
  "networkType": "ethereum",
  "devdoc": {
    "kind": "dev",
    "methods": {
      "owner()": {
        "details": "Returns the address of the current owner."
      },
      "renounceOwnership()": {
        "details": "Leaves the contract without owner. It will not be possible to call `onlyOwner` functions anymore. Can only be called by the current owner. NOTE: Renouncing ownership will leave the contract without an owner, thereby removing any functionality that is only available to the owner."
      },
      "transferOwnership(address)": {
        "details": "Transfers ownership of the contract to a new account (`newOwner`). Can only be called by the current owner."
      }
    },
    "version": 1
  },
  "userdoc": {
    "kind": "user",
    "methods": {},
    "version": 1
  }
}