{
  "contractName": "Sponsor",
  "abi": [
    {
      "anonymous": false,
      "inputs": [
        {
          "indexed": true,
          "internalType": "address",
          "name": "previousOwner",
          "type": "address"
        },
        {
          "indexed": true,
          "internalType": "address",
          "name": "newOwner",
          "type": "address"
        }
      ],
      "name": "OwnershipTransferred",
      "type": "event"
    },
    {
      "inputs": [],
      "name": "activeNumber",
      "outputs": [
        {
          "internalType": "uint256",
          "name": "",
          "type": "uint256"
        }
      ],
      "stateMutability": "view",
      "type": "function",
      "constant": true
    },
    {
      "inputs": [
        {
          "internalType": "uint256",
          "name": "",
          "type": "uint256"
        }
      ],
      "name": "activeOffers",
      "outputs": [
        {
          "internalType": "bool",
          "name": "",
          "type": "bool"
        }
      ],
      "stateMutability": "view",
      "type": "function",
      "constant": true
    },
    {
      "inputs": [],
      "name": "offerID",
      "outputs": [
        {
          "internalType": "uint256",
          "name": "",
          "type": "uint256"
        }
      ],
      "stateMutability": "view",
      "type": "function",
      "constant": true
    },
    {
      "inputs": [
        {
          "internalType": "uint256",
          "name": "",
          "type": "uint256"
        }
      ],
      "name": "offers",
      "outputs": [
        {
          "internalType": "address",
          "name": "donor",
          "type": "address"
        },
        {
          "internalType": "uint256",
          "name": "offerID",
          "type": "uint256"
        }
      ],
      "stateMutability": "view",
      "type": "function",
      "constant": true
    },
    {
      "inputs": [],
      "name": "owner",
      "outputs": [
        {
          "internalType": "address",
          "name": "",
          "type": "address"
        }
      ],
      "stateMutability": "view",
      "type": "function",
      "constant": true
    },
    {
      "inputs": [],
      "name": "renounceOwnership",
      "outputs": [],
      "stateMutability": "nonpayable",
      "type": "function"
    },
    {
      "inputs": [
        {
          "internalType": "address",
          "name": "newOwner",
          "type": "address"
        }
      ],
      "name": "transferOwnership",
      "outputs": [],
      "stateMutability": "nonpayable",
      "type": "function"
    },
    {
      "inputs": [
        {
          "internalType": "address",
          "name": "_verifier",
          "type": "address"
        }
      ],
      "name": "setVerifier",
      "outputs": [],
      "stateMutability": "nonpayable",
      "type": "function"
    },
    {
      "inputs": [
        {
          "internalType": "address",
          "name": "_bank",
          "type": "address"
        }
      ],
      "name": "setBank",
      "outputs": [],
      "stateMutability": "nonpayable",
      "type": "function"
    },
    {
      "inputs": [
        {
          "internalType": "string[]",
          "name": "_senderConditions",
          "type": "string[]"
        },
        {
          "internalType": "string[]",
          "name": "_receiverConditions",
          "type": "string[]"
        },
        {
          "internalType": "uint256[]",
          "name": "_coinIDs",
          "type": "uint256[]"
        }
      ],
      "name": "createOffer",
      "outputs": [],
      "stateMutability": "nonpayable",
      "type": "function"
    },
    {
      "inputs": [
        {
          "internalType": "uint256",
          "name": "_offerID",
          "type": "uint256"
        }
      ],
      "name": "applyOffer",
      "outputs": [],
      "stateMutability": "nonpayable",
      "type": "function"
    },
    {
      "inputs": [],
      "name": "getOffers",
      "outputs": [
        {
          "components": [
            {
              "internalType": "address",
              "name": "donor",
              "type": "address"
            },
            {
              "internalType": "string[]",
              "name": "senderConditions",
              "type": "string[]"
            },
            {
              "internalType": "string[]",
              "name": "receiverConditions",
              "type": "string[]"
            },
            {
              "internalType": "uint256[]",
              "name": "coinIDs",
              "type": "uint256[]"
            },
            {
              "internalType": "uint256",
              "name": "offerID",
              "type": "uint256"
            }
          ],
          "internalType": "struct Sponsor.Offer[]",
          "name": "",
          "type": "tuple[]"
        }
      ],
      "stateMutability": "view",
      "type": "function",
      "constant": true
    }
  ],
  "bytecode": "0x60806040523480156200001157600080fd5b5062000032620000266200003860201b60201c565b6200004060201b60201c565b62000104565b600033905090565b60008060009054906101000a900473ffffffffffffffffffffffffffffffffffffffff169050816000806101000a81548173ffffffffffffffffffffffffffffffffffffffff021916908373ffffffffffffffffffffffffffffffffffffffff1602179055508173ffffffffffffffffffffffffffffffffffffffff168173ffffffffffffffffffffffffffffffffffffffff167f8be0079c531659141344cd1fd0a4f28419497f9722a3daafe3b4186f6b6457e060405160405180910390a35050565b612c1780620001146000396000f3fe608060405234801561001057600080fd5b50600436106100b45760003560e01c80638a72ea6a116100715780638a72ea6a146101655780638da5cb5b146101965780638e713d65146101b4578063a614be4f146101d0578063dadab849146101ee578063f2fde38b1461020c576100b4565b8063090d23b9146100b95780633ee992ee146100d55780635437988d146100f35780635f0229201461010f578063715018a61461012b578063757c422814610135575b600080fd5b6100d360048036038101906100ce9190611950565b610228565b005b6100dd610357565b6040516100ea9190611cf5565b60405180910390f35b61010d60048036038101906101089190611950565b6109b1565b005b61012960048036038101906101249190611d43565b610ae0565b005b6101336110c4565b005b61014f600480360381019061014a9190611d43565b61114c565b60405161015c9190611d8b565b60405180910390f35b61017f600480360381019061017a9190611d43565b611180565b60405161018d929190611dc4565b60405180910390f35b61019e6111d4565b6040516101ab9190611ded565b60405180910390f35b6101ce60048036038101906101c991906120e6565b6111fd565b005b6101d86115a3565b6040516101e5919061218d565b60405180910390f35b6101f66115a9565b604051610203919061218d565b60405180910390f35b61022660048036038101906102219190611950565b6115af565b005b6102306116a6565b73ffffffffffffffffffffffffffffffffffffffff1661024e6111d4565b73ffffffffffffffffffffffffffffffffffffffff16146102a4576040517f08c379a000000000000000000000000000000000000000000000000000000000815260040161029b90612205565b60405180910390fd5b600073ffffffffffffffffffffffffffffffffffffffff168173ffffffffffffffffffffffffffffffffffffffff1603610313576040517f08c379a000000000000000000000000000000000000000000000000000000000815260040161030a90612271565b60405180910390fd5b80600660006101000a81548173ffffffffffffffffffffffffffffffffffffffff021916908373ffffffffffffffffffffffffffffffffffffffff16021790555050565b606060006002540361062c576007805480602002602001604051908101604052809291908181526020016000905b8282101561062157838290600052602060002090600502016040518060a00160405290816000820160009054906101000a900473ffffffffffffffffffffffffffffffffffffffff1673ffffffffffffffffffffffffffffffffffffffff1673ffffffffffffffffffffffffffffffffffffffff16815260200160018201805480602002602001604051908101604052809291908181526020016000905b828210156104cf578382906000526020600020018054610442906122c0565b80601f016020809104026020016040519081016040528092919081815260200182805461046e906122c0565b80156104bb5780601f10610490576101008083540402835291602001916104bb565b820191906000526020600020905b81548152906001019060200180831161049e57829003601f168201915b505050505081526020019060010190610423565b50505050815260200160028201805480602002602001604051908101604052809291908181526020016000905b828210156105a857838290600052602060002001805461051b906122c0565b80601f0160208091040260200160405190810160405280929190818152602001828054610547906122c0565b80156105945780601f1061056957610100808354040283529160200191610594565b820191906000526020600020905b81548152906001019060200180831161057757829003601f168201915b5050505050815260200190600101906104fc565b505050508152602001600382018054806020026020016040519081016040528092919081815260200182805480156105ff57602002820191906000526020600020905b8154815260200190600101908083116105eb575b5050505050815260200160048201548152505081526020019060010190610385565b5050505090506109ae565b600060025467ffffffffffffffff81111561064a57610649611e0d565b5b60405190808252806020026020018201604052801561068357816020015b610670611772565b8152602001906001900390816106685790505b5090506000805b6004805490508110156109a757600481815481106106ab576106aa6122f1565b5b90600052602060002090602091828204019190069054906101000a900460ff161561099457600381815481106106e4576106e36122f1565b5b90600052602060002090600502016040518060a00160405290816000820160009054906101000a900473ffffffffffffffffffffffffffffffffffffffff1673ffffffffffffffffffffffffffffffffffffffff1673ffffffffffffffffffffffffffffffffffffffff16815260200160018201805480602002602001604051908101604052809291908181526020016000905b82821015610824578382906000526020600020018054610797906122c0565b80601f01602080910402602001604051908101604052809291908181526020018280546107c3906122c0565b80156108105780601f106107e557610100808354040283529160200191610810565b820191906000526020600020905b8154815290600101906020018083116107f357829003601f168201915b505050505081526020019060010190610778565b50505050815260200160028201805480602002602001604051908101604052809291908181526020016000905b828210156108fd578382906000526020600020018054610870906122c0565b80601f016020809104026020016040519081016040528092919081815260200182805461089c906122c0565b80156108e95780601f106108be576101008083540402835291602001916108e9565b820191906000526020600020905b8154815290600101906020018083116108cc57829003601f168201915b505050505081526020019060010190610851565b5050505081526020016003820180548060200260200160405190810160405280929190818152602001828054801561095457602002820191906000526020600020905b815481526020019060010190808311610940575b5050505050815260200160048201548152505083838151811061097a576109796122f1565b5b602002602001018190525081806109909061234f565b9250505b808061099f9061234f565b91505061068a565b5081925050505b90565b6109b96116a6565b73ffffffffffffffffffffffffffffffffffffffff166109d76111d4565b73ffffffffffffffffffffffffffffffffffffffff1614610a2d576040517f08c379a0000000000000000000000000000000000000000000000000000000008152600401610a2490612205565b60405180910390fd5b600073ffffffffffffffffffffffffffffffffffffffff168173ffffffffffffffffffffffffffffffffffffffff1603610a9c576040517f08c379a0000000000000000000000000000000000000000000000000000000008152600401610a9390612409565b60405180910390fd5b80600560006101000a81548173ffffffffffffffffffffffffffffffffffffffff021916908373ffffffffffffffffffffffffffffffffffffffff16021790555050565b60048181548110610af457610af36122f1565b5b90600052602060002090602091828204019190069054906101000a900460ff16610b53576040517f08c379a0000000000000000000000000000000000000000000000000000000008152600401610b4a90612475565b60405180910390fd5b600060038281548110610b6957610b686122f1565b5b90600052602060002090600502016040518060a00160405290816000820160009054906101000a900473ffffffffffffffffffffffffffffffffffffffff1673ffffffffffffffffffffffffffffffffffffffff1673ffffffffffffffffffffffffffffffffffffffff16815260200160018201805480602002602001604051908101604052809291908181526020016000905b82821015610ca9578382906000526020600020018054610c1c906122c0565b80601f0160208091040260200160405190810160405280929190818152602001828054610c48906122c0565b8015610c955780601f10610c6a57610100808354040283529160200191610c95565b820191906000526020600020905b815481529060010190602001808311610c7857829003601f168201915b505050505081526020019060010190610bfd565b50505050815260200160028201805480602002602001604051908101604052809291908181526020016000905b82821015610d82578382906000526020600020018054610cf5906122c0565b80601f0160208091040260200160405190810160405280929190818152602001828054610d21906122c0565b8015610d6e5780601f10610d4357610100808354040283529160200191610d6e565b820191906000526020600020905b815481529060010190602001808311610d5157829003601f168201915b505050505081526020019060010190610cd6565b50505050815260200160038201805480602002602001604051908101604052809291908181526020018280548015610dd957602002820191906000526020600020905b815481526020019060010190808311610dc5575b50505050508152602001600482015481525050905060005b816020015151811015610f1257600082602001518281518110610e1757610e166122f1565b5b60200260200101519050600560009054906101000a900473ffffffffffffffffffffffffffffffffffffffff1673ffffffffffffffffffffffffffffffffffffffff1663d241a98d33836040518363ffffffff1660e01b8152600401610e7e9291906124ce565b602060405180830381865afa158015610e9b573d6000803e3d6000fd5b505050506040513d601f19601f82011682018060405250810190610ebf919061252a565b610efe576040517f08c379a0000000000000000000000000000000000000000000000000000000008152600401610ef5906125c9565b60405180910390fd5b508080610f0a9061234f565b915050610df1565b5060008160200151511180610f2c57506000816040015151115b15610fd557600660009054906101000a900473ffffffffffffffffffffffffffffffffffffffff1673ffffffffffffffffffffffffffffffffffffffff1663d714e8e9338360600151846020015185604001516040518563ffffffff1660e01b8152600401610f9e94939291906126de565b600060405180830381600087803b158015610fb857600080fd5b505af1158015610fcc573d6000803e3d6000fd5b50505050611069565b600660009054906101000a900473ffffffffffffffffffffffffffffffffffffffff1673ffffffffffffffffffffffffffffffffffffffff16636aa2932c3383606001516040518363ffffffff1660e01b8152600401611036929190612738565b600060405180830381600087803b15801561105057600080fd5b505af1158015611064573d6000803e3d6000fd5b505050505b60006004838154811061107f5761107e6122f1565b5b90600052602060002090602091828204019190066101000a81548160ff021916908315150217905550600260008154809291906110bb90612768565b91905055505050565b6110cc6116a6565b73ffffffffffffffffffffffffffffffffffffffff166110ea6111d4565b73ffffffffffffffffffffffffffffffffffffffff1614611140576040517f08c379a000000000000000000000000000000000000000000000000000000000815260040161113790612205565b60405180910390fd5b61114a60006116ae565b565b6004818154811061115c57600080fd5b9060005260206000209060209182820401919006915054906101000a900460ff1681565b6003818154811061119057600080fd5b90600052602060002090600502016000915090508060000160009054906101000a900473ffffffffffffffffffffffffffffffffffffffff16908060040154905082565b60008060009054906101000a900473ffffffffffffffffffffffffffffffffffffffff16905090565b6000815103611241576040517f08c379a0000000000000000000000000000000000000000000000000000000008152600401611238906127dd565b60405180910390fd5b60005b8151811015611385573373ffffffffffffffffffffffffffffffffffffffff16600660009054906101000a900473ffffffffffffffffffffffffffffffffffffffff1673ffffffffffffffffffffffffffffffffffffffff1663025e7c278484815181106112b5576112b46122f1565b5b60200260200101516040518263ffffffff1660e01b81526004016112d9919061218d565b6020604051808303816000875af11580156112f8573d6000803e3d6000fd5b505050506040513d601f19601f8201168201806040525081019061131c9190612812565b73ffffffffffffffffffffffffffffffffffffffff1614611372576040517f08c379a0000000000000000000000000000000000000000000000000000000008152600401611369906128b1565b60405180910390fd5b808061137d9061234f565b915050611244565b50600660009054906101000a900473ffffffffffffffffffffffffffffffffffffffff1673ffffffffffffffffffffffffffffffffffffffff16636aa2932c30836040518363ffffffff1660e01b81526004016113e3929190612738565b600060405180830381600087803b1580156113fd57600080fd5b505af1158015611411573d6000803e3d6000fd5b5050505060036040518060a001604052803373ffffffffffffffffffffffffffffffffffffffff168152602001858152602001848152602001838152602001600154815250908060018154018082558091505060019003906000526020600020906005020160009091909190915060008201518160000160006101000a81548173ffffffffffffffffffffffffffffffffffffffff021916908373ffffffffffffffffffffffffffffffffffffffff16021790555060208201518160010190805190602001906114e29291906117b7565b5060408201518160020190805190602001906114ff9291906117b7565b50606082015181600301908051906020019061151c929190611810565b506080820151816004015550506004600190806001815401808255809150506001900390600052602060002090602091828204019190069091909190916101000a81548160ff021916908315150217905550600160008154809291906115819061234f565b9190505550600260008154809291906115999061234f565b9190505550505050565b60015481565b60025481565b6115b76116a6565b73ffffffffffffffffffffffffffffffffffffffff166115d56111d4565b73ffffffffffffffffffffffffffffffffffffffff161461162b576040517f08c379a000000000000000000000000000000000000000000000000000000000815260040161162290612205565b60405180910390fd5b600073ffffffffffffffffffffffffffffffffffffffff168173ffffffffffffffffffffffffffffffffffffffff160361169a576040517f08c379a000000000000000000000000000000000000000000000000000000000815260040161169190612943565b60405180910390fd5b6116a3816116ae565b50565b600033905090565b60008060009054906101000a900473ffffffffffffffffffffffffffffffffffffffff169050816000806101000a81548173ffffffffffffffffffffffffffffffffffffffff021916908373ffffffffffffffffffffffffffffffffffffffff1602179055508173ffffffffffffffffffffffffffffffffffffffff168173ffffffffffffffffffffffffffffffffffffffff167f8be0079c531659141344cd1fd0a4f28419497f9722a3daafe3b4186f6b6457e060405160405180910390a35050565b6040518060a00160405280600073ffffffffffffffffffffffffffffffffffffffff168152602001606081526020016060815260200160608152602001600081525090565b8280548282559060005260206000209081019282156117ff579160200282015b828111156117fe5782518290816117ee9190612b0f565b50916020019190600101906117d7565b5b50905061180c919061185d565b5090565b82805482825590600052602060002090810192821561184c579160200282015b8281111561184b578251825591602001919060010190611830565b5b5090506118599190611881565b5090565b5b8082111561187d5760008181611874919061189e565b5060010161185e565b5090565b5b8082111561189a576000816000905550600101611882565b5090565b5080546118aa906122c0565b6000825580601f106118bc57506118db565b601f0160209004906000526020600020908101906118da9190611881565b5b50565b6000604051905090565b600080fd5b600080fd5b600073ffffffffffffffffffffffffffffffffffffffff82169050919050565b600061191d826118f2565b9050919050565b61192d81611912565b811461193857600080fd5b50565b60008135905061194a81611924565b92915050565b600060208284031215611966576119656118e8565b5b60006119748482850161193b565b91505092915050565b600081519050919050565b600082825260208201905092915050565b6000819050602082019050919050565b6119b281611912565b82525050565b600081519050919050565b600082825260208201905092915050565b6000819050602082019050919050565b600081519050919050565b600082825260208201905092915050565b60005b83811015611a1e578082015181840152602081019050611a03565b83811115611a2d576000848401525b50505050565b6000601f19601f8301169050919050565b6000611a4f826119e4565b611a5981856119ef565b9350611a69818560208601611a00565b611a7281611a33565b840191505092915050565b6000611a898383611a44565b905092915050565b6000602082019050919050565b6000611aa9826119b8565b611ab381856119c3565b935083602082028501611ac5856119d4565b8060005b85811015611b015784840389528151611ae28582611a7d565b9450611aed83611a91565b925060208a01995050600181019050611ac9565b50829750879550505050505092915050565b600081519050919050565b600082825260208201905092915050565b6000819050602082019050919050565b6000819050919050565b611b5281611b3f565b82525050565b6000611b648383611b49565b60208301905092915050565b6000602082019050919050565b6000611b8882611b13565b611b928185611b1e565b9350611b9d83611b2f565b8060005b83811015611bce578151611bb58882611b58565b9750611bc083611b70565b925050600181019050611ba1565b5085935050505092915050565b600060a083016000830151611bf360008601826119a9565b5060208301518482036020860152611c0b8282611a9e565b91505060408301518482036040860152611c258282611a9e565b91505060608301518482036060860152611c3f8282611b7d565b9150506080830151611c546080860182611b49565b508091505092915050565b6000611c6b8383611bdb565b905092915050565b6000602082019050919050565b6000611c8b8261197d565b611c958185611988565b935083602082028501611ca785611999565b8060005b85811015611ce35784840389528151611cc48582611c5f565b9450611ccf83611c73565b925060208a01995050600181019050611cab565b50829750879550505050505092915050565b60006020820190508181036000830152611d0f8184611c80565b905092915050565b611d2081611b3f565b8114611d2b57600080fd5b50565b600081359050611d3d81611d17565b92915050565b600060208284031215611d5957611d586118e8565b5b6000611d6784828501611d2e565b91505092915050565b60008115159050919050565b611d8581611d70565b82525050565b6000602082019050611da06000830184611d7c565b92915050565b611daf81611912565b82525050565b611dbe81611b3f565b82525050565b6000604082019050611dd96000830185611da6565b611de66020830184611db5565b9392505050565b6000602082019050611e026000830184611da6565b92915050565b600080fd5b7f4e487b7100000000000000000000000000000000000000000000000000000000600052604160045260246000fd5b611e4582611a33565b810181811067ffffffffffffffff82111715611e6457611e63611e0d565b5b80604052505050565b6000611e776118de565b9050611e838282611e3c565b919050565b600067ffffffffffffffff821115611ea357611ea2611e0d565b5b602082029050602081019050919050565b600080fd5b600080fd5b600067ffffffffffffffff821115611ed957611ed8611e0d565b5b611ee282611a33565b9050602081019050919050565b82818337600083830152505050565b6000611f11611f0c84611ebe565b611e6d565b905082815260208101848484011115611f2d57611f2c611eb9565b5b611f38848285611eef565b509392505050565b600082601f830112611f5557611f54611e08565b5b8135611f65848260208601611efe565b91505092915050565b6000611f81611f7c84611e88565b611e6d565b90508083825260208201905060208402830185811115611fa457611fa3611eb4565b5b835b81811015611feb57803567ffffffffffffffff811115611fc957611fc8611e08565b5b808601611fd68982611f40565b85526020850194505050602081019050611fa6565b5050509392505050565b600082601f83011261200a57612009611e08565b5b813561201a848260208601611f6e565b91505092915050565b600067ffffffffffffffff82111561203e5761203d611e0d565b5b602082029050602081019050919050565b600061206261205d84612023565b611e6d565b9050808382526020820190506020840283018581111561208557612084611eb4565b5b835b818110156120ae578061209a8882611d2e565b845260208401935050602081019050612087565b5050509392505050565b600082601f8301126120cd576120cc611e08565b5b81356120dd84826020860161204f565b91505092915050565b6000806000606084860312156120ff576120fe6118e8565b5b600084013567ffffffffffffffff81111561211d5761211c6118ed565b5b61212986828701611ff5565b935050602084013567ffffffffffffffff81111561214a576121496118ed565b5b61215686828701611ff5565b925050604084013567ffffffffffffffff811115612177576121766118ed565b5b612183868287016120b8565b9150509250925092565b60006020820190506121a26000830184611db5565b92915050565b600082825260208201905092915050565b7f4f776e61626c653a2063616c6c6572206973206e6f7420746865206f776e6572600082015250565b60006121ef6020836121a8565b91506121fa826121b9565b602082019050919050565b6000602082019050818103600083015261221e816121e2565b9050919050565b7f43616e6e6f74207365742042616e6b20746f2074686973206164647265737300600082015250565b600061225b601f836121a8565b915061226682612225565b602082019050919050565b6000602082019050818103600083015261228a8161224e565b9050919050565b7f4e487b7100000000000000000000000000000000000000000000000000000000600052602260045260246000fd5b600060028204905060018216806122d857607f821691505b6020821081036122eb576122ea612291565b5b50919050565b7f4e487b7100000000000000000000000000000000000000000000000000000000600052603260045260246000fd5b7f4e487b7100000000000000000000000000000000000000000000000000000000600052601160045260246000fd5b600061235a82611b3f565b91507fffffffffffffffffffffffffffffffffffffffffffffffffffffffffffffffff820361238c5761238b612320565b5b600182019050919050565b7f43616e6e6f742073657420566572696669657220746f2074686973206164647260008201527f6573730000000000000000000000000000000000000000000000000000000000602082015250565b60006123f36023836121a8565b91506123fe82612397565b604082019050919050565b60006020820190508181036000830152612422816123e6565b9050919050565b7f4f66666572206973206e6f7420617661696c61626c6500000000000000000000600082015250565b600061245f6016836121a8565b915061246a82612429565b602082019050919050565b6000602082019050818103600083015261248e81612452565b9050919050565b60006124a0826119e4565b6124aa81856121a8565b93506124ba818560208601611a00565b6124c381611a33565b840191505092915050565b60006040820190506124e36000830185611da6565b81810360208301526124f58184612495565b90509392505050565b61250781611d70565b811461251257600080fd5b50565b600081519050612524816124fe565b92915050565b6000602082840312156125405761253f6118e8565b5b600061254e84828501612515565b91505092915050565b7f596f7520646f206e6f742066756c6c66696c6c20616c6c20636f6e646974696f60008201527f6e73000000000000000000000000000000000000000000000000000000000000602082015250565b60006125b36022836121a8565b91506125be82612557565b604082019050919050565b600060208201905081810360008301526125e2816125a6565b9050919050565b600082825260208201905092915050565b600061260582611b13565b61260f81856125e9565b935061261a83611b2f565b8060005b8381101561264b5781516126328882611b58565b975061263d83611b70565b92505060018101905061261e565b5085935050505092915050565b600082825260208201905092915050565b6000612674826119b8565b61267e8185612658565b935083602082028501612690856119d4565b8060005b858110156126cc57848403895281516126ad8582611a7d565b94506126b883611a91565b925060208a01995050600181019050612694565b50829750879550505050505092915050565b60006080820190506126f36000830187611da6565b818103602083015261270581866125fa565b905081810360408301526127198185612669565b9050818103606083015261272d8184612669565b905095945050505050565b600060408201905061274d6000830185611da6565b818103602083015261275f81846125fa565b90509392505050565b600061277382611b3f565b91506000820361278657612785612320565b5b600182039050919050565b7f4e65656420746f207265717569726520646f6e6174696f6e20616d6f756e7400600082015250565b60006127c7601f836121a8565b91506127d282612791565b602082019050919050565b600060208201905081810360008301526127f6816127ba565b9050919050565b60008151905061280c81611924565b92915050565b600060208284031215612828576128276118e8565b5b6000612836848285016127fd565b91505092915050565b7f596f7520617265206e6f7420746865206f776e6572206f6620616c6c20636f6960008201527f6e73000000000000000000000000000000000000000000000000000000000000602082015250565b600061289b6022836121a8565b91506128a68261283f565b604082019050919050565b600060208201905081810360008301526128ca8161288e565b9050919050565b7f4f776e61626c653a206e6577206f776e657220697320746865207a65726f206160008201527f6464726573730000000000000000000000000000000000000000000000000000602082015250565b600061292d6026836121a8565b9150612938826128d1565b604082019050919050565b6000602082019050818103600083015261295c81612920565b9050919050565b60008190508160005260206000209050919050565b60006020601f8301049050919050565b600082821b905092915050565b6000600883026129c57fffffffffffffffffffffffffffffffffffffffffffffffffffffffffffffffff82612988565b6129cf8683612988565b95508019841693508086168417925050509392505050565b6000819050919050565b6000612a0c612a07612a0284611b3f565b6129e7565b611b3f565b9050919050565b6000819050919050565b612a26836129f1565b612a3a612a3282612a13565b848454612995565b825550505050565b600090565b612a4f612a42565b612a5a818484612a1d565b505050565b5b81811015612a7e57612a73600082612a47565b600181019050612a60565b5050565b601f821115612ac357612a9481612963565b612a9d84612978565b81016020851015612aac578190505b612ac0612ab885612978565b830182612a5f565b50505b505050565b600082821c905092915050565b6000612ae660001984600802612ac8565b1980831691505092915050565b6000612aff8383612ad5565b9150826002028217905092915050565b612b18826119e4565b67ffffffffffffffff811115612b3157612b30611e0d565b5b612b3b82546122c0565b612b46828285612a82565b600060209050601f831160018114612b795760008415612b67578287015190505b612b718582612af3565b865550612bd9565b601f198416612b8786612963565b60005b82811015612baf57848901518255600182019150602085019450602081019050612b8a565b86831015612bcc5784890151612bc8601f891682612ad5565b8355505b6001600288020188555050505b50505050505056fea26469706673582212206d2078ec15276b41a27614ede133c9390ed68f66dd0d42dd3b61785b54047b5964736f6c634300080f0033",
  "immutableReferences": {},
  "source": "// SPDX-License-Identifier: MIT\r\npragma solidity ^0.8.0;\r\n\r\nimport \"../client/node_modules/@openzeppelin/contracts/access/Ownable.sol\";\r\n\r\ncontract Sponsor is Ownable {\r\n\r\n    struct Offer {\r\n        address donor;\r\n        string[] senderConditions;\r\n        string[] receiverConditions;\r\n        uint256[] coinIDs;\r\n        uint256 offerID;\r\n    }\r\n\r\n    uint256 public offerID;\r\n    uint256 public activeNumber;\r\n    Offer[] public offers;\r\n    bool[] public activeOffers;\r\n    VerifySponsor private verifier;\r\n    BankSponsor private bank;\r\n    Offer[] private empty;\r\n\r\n    function setVerifier(address _verifier) public onlyOwner() {\r\n        require(_verifier != address(0), \"Cannot set Verifier to this address\");\r\n        verifier = VerifySponsor(_verifier);\r\n    }\r\n\r\n    function setBank(address _bank) public onlyOwner() {\r\n        require(_bank != address(0), \"Cannot set Bank to this address\");\r\n        bank = BankSponsor(_bank);\r\n    }\r\n\r\n    // WARNING: In Theory it is possible to set singular strings to the empty string. Checking this in the backend is too \r\n    // resource intensive, so the front end will assure sanity for conditions.\r\n    // It is completely possible to set no conditions\r\n\r\n    function createOffer(string[] memory _senderConditions, string[] memory _receiverConditions, uint256[] memory _coinIDs) public {\r\n        // Confirm amount is specified\r\n        require(_coinIDs.length != 0, \"Need to require donation amount\");\r\n        // Confirm person who called function is owner of coins\r\n        for(uint256 i = 0; i < _coinIDs.length; i++){\r\n            require(bank.owners(_coinIDs[i]) == msg.sender, \"You are not the owner of all coins\");\r\n        }\r\n        bank.normalTransfer(address(this), _coinIDs);\r\n        offers.push(Offer(msg.sender, _senderConditions, _receiverConditions, _coinIDs, offerID));\r\n        activeOffers.push(true);\r\n        offerID++;\r\n        activeNumber++;\r\n    }\r\n\r\n    function applyOffer(uint256 _offerID) public {\r\n        require(activeOffers[_offerID], \"Offer is not available\");\r\n        Offer memory applied = offers[_offerID];\r\n        for(uint256 i = 0; i < applied.senderConditions.length; i++){\r\n            string memory currCondition = applied.senderConditions[i];\r\n            require(verifier.checkCertificate(msg.sender, currCondition), \"You do not fullfill all conditions\");\r\n        }\r\n        if(applied.senderConditions.length > 0 || applied.receiverConditions.length > 0){\r\n            bank.attachTransfer(msg.sender, applied.coinIDs, applied.senderConditions, applied.receiverConditions);\r\n        } else {\r\n            bank.normalTransfer(msg.sender, applied.coinIDs);\r\n        }\r\n        activeOffers[_offerID] = false;\r\n        activeNumber--;\r\n    }\r\n\r\n    function getOffers() public view returns (Offer[] memory) {\r\n        if(activeNumber == 0) {\r\n            return empty;\r\n        }\r\n        Offer[] memory currentOffers = new Offer[](activeNumber);\r\n        uint256 count = 0;\r\n        for(uint256 i = 0; i < activeOffers.length; i++){\r\n            if(activeOffers[i]){\r\n                currentOffers[count] = offers[i];\r\n                count++;\r\n            }\r\n        }\r\n        return currentOffers;\r\n    }\r\n}\r\n\r\ncontract VerifySponsor {\r\n    function checkCertificate(address user, string memory condition) public view returns (bool) {}\r\n}\r\n\r\ncontract BankSponsor {\r\n    function owners(uint256 _index) external returns (address) {}\r\n    function normalTransfer(address _receiver, uint256[] memory _payment) public {}\r\n    function attachTransfer(address _receiver, uint256[] memory _payment, string[] memory senderConditions, string[] memory receiverConditions) public {}\r\n}",
  "sourcePath": "C:\\Bachelor_Code\\Smart-Sponsor-v3\\contracts\\Sponsor.sol",
  "compiler": {
    "name": "solc",
    "version": "0.8.15+commit.e14f2714.Emscripten.clang"
  },
  "schemaVersion": "3.4.4",
  "updatedAt": "2022-07-17T22:26:37.092Z",
  "networkType": "ethereum",
  "devdoc": {
    "kind": "dev",
    "methods": {
      "owner()": {
        "details": "Returns the address of the current owner."
      },
      "renounceOwnership()": {
        "details": "Leaves the contract without owner. It will not be possible to call `onlyOwner` functions anymore. Can only be called by the current owner. NOTE: Renouncing ownership will leave the contract without an owner, thereby removing any functionality that is only available to the owner."
      },
      "transferOwnership(address)": {
        "details": "Transfers ownership of the contract to a new account (`newOwner`). Can only be called by the current owner."
      }
    },
    "version": 1
  },
  "userdoc": {
    "kind": "user",
    "methods": {},
    "version": 1
  }
}