{
  "contractName": "Sponsor",
  "abi": [
    {
      "anonymous": false,
      "inputs": [
        {
          "indexed": true,
          "internalType": "address",
          "name": "previousOwner",
          "type": "address"
        },
        {
          "indexed": true,
          "internalType": "address",
          "name": "newOwner",
          "type": "address"
        }
      ],
      "name": "OwnershipTransferred",
      "type": "event"
    },
    {
      "inputs": [],
      "name": "activeNumber",
      "outputs": [
        {
          "internalType": "uint256",
          "name": "",
          "type": "uint256"
        }
      ],
      "stateMutability": "view",
      "type": "function",
      "constant": true
    },
    {
      "inputs": [
        {
          "internalType": "uint256",
          "name": "",
          "type": "uint256"
        }
      ],
      "name": "activeOffers",
      "outputs": [
        {
          "internalType": "bool",
          "name": "",
          "type": "bool"
        }
      ],
      "stateMutability": "view",
      "type": "function",
      "constant": true
    },
    {
      "inputs": [],
      "name": "offerID",
      "outputs": [
        {
          "internalType": "uint256",
          "name": "",
          "type": "uint256"
        }
      ],
      "stateMutability": "view",
      "type": "function",
      "constant": true
    },
    {
      "inputs": [
        {
          "internalType": "uint256",
          "name": "",
          "type": "uint256"
        }
      ],
      "name": "offers",
      "outputs": [
        {
          "internalType": "address",
          "name": "donor",
          "type": "address"
        },
        {
          "internalType": "uint256",
          "name": "offerID",
          "type": "uint256"
        }
      ],
      "stateMutability": "view",
      "type": "function",
      "constant": true
    },
    {
      "inputs": [],
      "name": "owner",
      "outputs": [
        {
          "internalType": "address",
          "name": "",
          "type": "address"
        }
      ],
      "stateMutability": "view",
      "type": "function",
      "constant": true
    },
    {
      "inputs": [],
      "name": "renounceOwnership",
      "outputs": [],
      "stateMutability": "nonpayable",
      "type": "function"
    },
    {
      "inputs": [
        {
          "internalType": "address",
          "name": "newOwner",
          "type": "address"
        }
      ],
      "name": "transferOwnership",
      "outputs": [],
      "stateMutability": "nonpayable",
      "type": "function"
    },
    {
      "inputs": [
        {
          "internalType": "address",
          "name": "_verifier",
          "type": "address"
        }
      ],
      "name": "setVerifier",
      "outputs": [],
      "stateMutability": "nonpayable",
      "type": "function"
    },
    {
      "inputs": [
        {
          "internalType": "address",
          "name": "_bank",
          "type": "address"
        }
      ],
      "name": "setBank",
      "outputs": [],
      "stateMutability": "nonpayable",
      "type": "function"
    },
    {
      "inputs": [
        {
          "internalType": "string[]",
          "name": "_senderConditions",
          "type": "string[]"
        },
        {
          "internalType": "string[]",
          "name": "_receiverConditions",
          "type": "string[]"
        },
        {
          "internalType": "uint256[]",
          "name": "_coinIDs",
          "type": "uint256[]"
        }
      ],
      "name": "createOffer",
      "outputs": [],
      "stateMutability": "nonpayable",
      "type": "function"
    },
    {
      "inputs": [
        {
          "internalType": "uint256",
          "name": "_offerID",
          "type": "uint256"
        }
      ],
      "name": "applyOffer",
      "outputs": [],
      "stateMutability": "nonpayable",
      "type": "function"
    },
    {
      "inputs": [],
      "name": "getOffers",
      "outputs": [
        {
          "components": [
            {
              "internalType": "address",
              "name": "donor",
              "type": "address"
            },
            {
              "internalType": "string[]",
              "name": "senderConditions",
              "type": "string[]"
            },
            {
              "internalType": "string[]",
              "name": "receiverConditions",
              "type": "string[]"
            },
            {
              "internalType": "uint256[]",
              "name": "coinIDs",
              "type": "uint256[]"
            },
            {
              "internalType": "uint256",
              "name": "offerID",
              "type": "uint256"
            }
          ],
          "internalType": "struct Sponsor.Offer[]",
          "name": "",
          "type": "tuple[]"
        }
      ],
      "stateMutability": "view",
      "type": "function",
      "constant": true
    }
  ],
  "bytecode": "0x60806040523480156200001157600080fd5b5062000032620000266200003860201b60201c565b6200004060201b60201c565b62000104565b600033905090565b60008060009054906101000a900473ffffffffffffffffffffffffffffffffffffffff169050816000806101000a81548173ffffffffffffffffffffffffffffffffffffffff021916908373ffffffffffffffffffffffffffffffffffffffff1602179055508173ffffffffffffffffffffffffffffffffffffffff168173ffffffffffffffffffffffffffffffffffffffff167f8be0079c531659141344cd1fd0a4f28419497f9722a3daafe3b4186f6b6457e060405160405180910390a35050565b61279380620001146000396000f3fe608060405234801561001057600080fd5b50600436106100b45760003560e01c80638a72ea6a116100715780638a72ea6a146101655780638da5cb5b146101965780638e713d65146101b4578063a614be4f146101d0578063dadab849146101ee578063f2fde38b1461020c576100b4565b8063090d23b9146100b95780633ee992ee146100d55780635437988d146100f35780635f0229201461010f578063715018a61461012b578063757c422814610135575b600080fd5b6100d360048036038101906100ce9190611848565b610228565b005b6100dd6102e8565b6040516100ea9190611bed565b60405180910390f35b61010d60048036038101906101089190611848565b610942565b005b61012960048036038101906101249190611c3b565b610a02565b005b610133610f2f565b005b61014f600480360381019061014a9190611c3b565b610fb7565b60405161015c9190611c83565b60405180910390f35b61017f600480360381019061017a9190611c3b565b610feb565b60405161018d929190611cbc565b60405180910390f35b61019e61103f565b6040516101ab9190611ce5565b60405180910390f35b6101ce60048036038101906101c99190611fde565b611068565b005b6101d861140e565b6040516101e59190612085565b60405180910390f35b6101f6611414565b6040516102039190612085565b60405180910390f35b61022660048036038101906102219190611848565b61141a565b005b610230611511565b73ffffffffffffffffffffffffffffffffffffffff1661024e61103f565b73ffffffffffffffffffffffffffffffffffffffff16146102a4576040517f08c379a000000000000000000000000000000000000000000000000000000000815260040161029b906120fd565b60405180910390fd5b80600660006101000a81548173ffffffffffffffffffffffffffffffffffffffff021916908373ffffffffffffffffffffffffffffffffffffffff16021790555050565b60606000600254036105bd576007805480602002602001604051908101604052809291908181526020016000905b828210156105b257838290600052602060002090600502016040518060a00160405290816000820160009054906101000a900473ffffffffffffffffffffffffffffffffffffffff1673ffffffffffffffffffffffffffffffffffffffff1673ffffffffffffffffffffffffffffffffffffffff16815260200160018201805480602002602001604051908101604052809291908181526020016000905b828210156104605783829060005260206000200180546103d39061214c565b80601f01602080910402602001604051908101604052809291908181526020018280546103ff9061214c565b801561044c5780601f106104215761010080835404028352916020019161044c565b820191906000526020600020905b81548152906001019060200180831161042f57829003601f168201915b5050505050815260200190600101906103b4565b50505050815260200160028201805480602002602001604051908101604052809291908181526020016000905b828210156105395783829060005260206000200180546104ac9061214c565b80601f01602080910402602001604051908101604052809291908181526020018280546104d89061214c565b80156105255780601f106104fa57610100808354040283529160200191610525565b820191906000526020600020905b81548152906001019060200180831161050857829003601f168201915b50505050508152602001906001019061048d565b5050505081526020016003820180548060200260200160405190810160405280929190818152602001828054801561059057602002820191906000526020600020905b81548152602001906001019080831161057c575b5050505050815260200160048201548152505081526020019060010190610316565b50505050905061093f565b600060025467ffffffffffffffff8111156105db576105da611d05565b5b60405190808252806020026020018201604052801561061457816020015b6106016115dd565b8152602001906001900390816105f95790505b5090506000805b600480549050811015610938576004818154811061063c5761063b61217d565b5b90600052602060002090602091828204019190069054906101000a900460ff161561092557600381815481106106755761067461217d565b5b90600052602060002090600502016040518060a00160405290816000820160009054906101000a900473ffffffffffffffffffffffffffffffffffffffff1673ffffffffffffffffffffffffffffffffffffffff1673ffffffffffffffffffffffffffffffffffffffff16815260200160018201805480602002602001604051908101604052809291908181526020016000905b828210156107b55783829060005260206000200180546107289061214c565b80601f01602080910402602001604051908101604052809291908181526020018280546107549061214c565b80156107a15780601f10610776576101008083540402835291602001916107a1565b820191906000526020600020905b81548152906001019060200180831161078457829003601f168201915b505050505081526020019060010190610709565b50505050815260200160028201805480602002602001604051908101604052809291908181526020016000905b8282101561088e5783829060005260206000200180546108019061214c565b80601f016020809104026020016040519081016040528092919081815260200182805461082d9061214c565b801561087a5780601f1061084f5761010080835404028352916020019161087a565b820191906000526020600020905b81548152906001019060200180831161085d57829003601f168201915b5050505050815260200190600101906107e2565b505050508152602001600382018054806020026020016040519081016040528092919081815260200182805480156108e557602002820191906000526020600020905b8154815260200190600101908083116108d1575b5050505050815260200160048201548152505083838151811061090b5761090a61217d565b5b60200260200101819052508180610921906121db565b9250505b8080610930906121db565b91505061061b565b5081925050505b90565b61094a611511565b73ffffffffffffffffffffffffffffffffffffffff1661096861103f565b73ffffffffffffffffffffffffffffffffffffffff16146109be576040517f08c379a00000000000000000000000000000000000000000000000000000000081526004016109b5906120fd565b60405180910390fd5b80600560006101000a81548173ffffffffffffffffffffffffffffffffffffffff021916908373ffffffffffffffffffffffffffffffffffffffff16021790555050565b60048181548110610a1657610a1561217d565b5b90600052602060002090602091828204019190069054906101000a900460ff16610a75576040517f08c379a0000000000000000000000000000000000000000000000000000000008152600401610a6c9061226f565b60405180910390fd5b600060038281548110610a8b57610a8a61217d565b5b90600052602060002090600502016040518060a00160405290816000820160009054906101000a900473ffffffffffffffffffffffffffffffffffffffff1673ffffffffffffffffffffffffffffffffffffffff1673ffffffffffffffffffffffffffffffffffffffff16815260200160018201805480602002602001604051908101604052809291908181526020016000905b82821015610bcb578382906000526020600020018054610b3e9061214c565b80601f0160208091040260200160405190810160405280929190818152602001828054610b6a9061214c565b8015610bb75780601f10610b8c57610100808354040283529160200191610bb7565b820191906000526020600020905b815481529060010190602001808311610b9a57829003601f168201915b505050505081526020019060010190610b1f565b50505050815260200160028201805480602002602001604051908101604052809291908181526020016000905b82821015610ca4578382906000526020600020018054610c179061214c565b80601f0160208091040260200160405190810160405280929190818152602001828054610c439061214c565b8015610c905780601f10610c6557610100808354040283529160200191610c90565b820191906000526020600020905b815481529060010190602001808311610c7357829003601f168201915b505050505081526020019060010190610bf8565b50505050815260200160038201805480602002602001604051908101604052809291908181526020018280548015610cfb57602002820191906000526020600020905b815481526020019060010190808311610ce7575b50505050508152602001600482015481525050905060005b816020015151811015610e3457600082602001518281518110610d3957610d3861217d565b5b60200260200101519050600560009054906101000a900473ffffffffffffffffffffffffffffffffffffffff1673ffffffffffffffffffffffffffffffffffffffff1663d241a98d33836040518363ffffffff1660e01b8152600401610da09291906122c8565b602060405180830381865afa158015610dbd573d6000803e3d6000fd5b505050506040513d601f19601f82011682018060405250810190610de19190612324565b610e20576040517f08c379a0000000000000000000000000000000000000000000000000000000008152600401610e17906123c3565b60405180910390fd5b508080610e2c906121db565b915050610d13565b50600660009054906101000a900473ffffffffffffffffffffffffffffffffffffffff1673ffffffffffffffffffffffffffffffffffffffff1663d714e8e9338360600151846020015185604001516040518563ffffffff1660e01b8152600401610ea294939291906124d8565b600060405180830381600087803b158015610ebc57600080fd5b505af1158015610ed0573d6000803e3d6000fd5b50505050600060048381548110610eea57610ee961217d565b5b90600052602060002090602091828204019190066101000a81548160ff02191690831515021790555060026000815480929190610f2690612532565b91905055505050565b610f37611511565b73ffffffffffffffffffffffffffffffffffffffff16610f5561103f565b73ffffffffffffffffffffffffffffffffffffffff1614610fab576040517f08c379a0000000000000000000000000000000000000000000000000000000008152600401610fa2906120fd565b60405180910390fd5b610fb56000611519565b565b60048181548110610fc757600080fd5b9060005260206000209060209182820401919006915054906101000a900460ff1681565b60038181548110610ffb57600080fd5b90600052602060002090600502016000915090508060000160009054906101000a900473ffffffffffffffffffffffffffffffffffffffff16908060040154905082565b60008060009054906101000a900473ffffffffffffffffffffffffffffffffffffffff16905090565b60008151036110ac576040517f08c379a00000000000000000000000000000000000000000000000000000000081526004016110a3906125a7565b60405180910390fd5b60005b81518110156111f0573373ffffffffffffffffffffffffffffffffffffffff16600660009054906101000a900473ffffffffffffffffffffffffffffffffffffffff1673ffffffffffffffffffffffffffffffffffffffff1663025e7c278484815181106111205761111f61217d565b5b60200260200101516040518263ffffffff1660e01b81526004016111449190612085565b6020604051808303816000875af1158015611163573d6000803e3d6000fd5b505050506040513d601f19601f8201168201806040525081019061118791906125dc565b73ffffffffffffffffffffffffffffffffffffffff16146111dd576040517f08c379a00000000000000000000000000000000000000000000000000000000081526004016111d49061267b565b60405180910390fd5b80806111e8906121db565b9150506110af565b50600660009054906101000a900473ffffffffffffffffffffffffffffffffffffffff1673ffffffffffffffffffffffffffffffffffffffff16636aa2932c30836040518363ffffffff1660e01b815260040161124e92919061269b565b600060405180830381600087803b15801561126857600080fd5b505af115801561127c573d6000803e3d6000fd5b5050505060036040518060a001604052803373ffffffffffffffffffffffffffffffffffffffff168152602001858152602001848152602001838152602001600154815250908060018154018082558091505060019003906000526020600020906005020160009091909190915060008201518160000160006101000a81548173ffffffffffffffffffffffffffffffffffffffff021916908373ffffffffffffffffffffffffffffffffffffffff160217905550602082015181600101908051906020019061134d929190611622565b50604082015181600201908051906020019061136a929190611622565b506060820151816003019080519060200190611387929190611682565b506080820151816004015550506004600190806001815401808255809150506001900390600052602060002090602091828204019190069091909190916101000a81548160ff021916908315150217905550600160008154809291906113ec906121db565b919050555060026000815480929190611404906121db565b9190505550505050565b60015481565b60025481565b611422611511565b73ffffffffffffffffffffffffffffffffffffffff1661144061103f565b73ffffffffffffffffffffffffffffffffffffffff1614611496576040517f08c379a000000000000000000000000000000000000000000000000000000000815260040161148d906120fd565b60405180910390fd5b600073ffffffffffffffffffffffffffffffffffffffff168173ffffffffffffffffffffffffffffffffffffffff1603611505576040517f08c379a00000000000000000000000000000000000000000000000000000000081526004016114fc9061273d565b60405180910390fd5b61150e81611519565b50565b600033905090565b60008060009054906101000a900473ffffffffffffffffffffffffffffffffffffffff169050816000806101000a81548173ffffffffffffffffffffffffffffffffffffffff021916908373ffffffffffffffffffffffffffffffffffffffff1602179055508173ffffffffffffffffffffffffffffffffffffffff168173ffffffffffffffffffffffffffffffffffffffff167f8be0079c531659141344cd1fd0a4f28419497f9722a3daafe3b4186f6b6457e060405160405180910390a35050565b6040518060a00160405280600073ffffffffffffffffffffffffffffffffffffffff168152602001606081526020016060815260200160608152602001600081525090565b828054828255906000526020600020908101928215611671579160200282015b828111156116705782518290805190602001906116609291906116cf565b5091602001919060010190611642565b5b50905061167e9190611755565b5090565b8280548282559060005260206000209081019282156116be579160200282015b828111156116bd5782518255916020019190600101906116a2565b5b5090506116cb9190611779565b5090565b8280546116db9061214c565b90600052602060002090601f0160209004810192826116fd5760008555611744565b82601f1061171657805160ff1916838001178555611744565b82800160010185558215611744579182015b82811115611743578251825591602001919060010190611728565b5b5090506117519190611779565b5090565b5b80821115611775576000818161176c9190611796565b50600101611756565b5090565b5b8082111561179257600081600090555060010161177a565b5090565b5080546117a29061214c565b6000825580601f106117b457506117d3565b601f0160209004906000526020600020908101906117d29190611779565b5b50565b6000604051905090565b600080fd5b600080fd5b600073ffffffffffffffffffffffffffffffffffffffff82169050919050565b6000611815826117ea565b9050919050565b6118258161180a565b811461183057600080fd5b50565b6000813590506118428161181c565b92915050565b60006020828403121561185e5761185d6117e0565b5b600061186c84828501611833565b91505092915050565b600081519050919050565b600082825260208201905092915050565b6000819050602082019050919050565b6118aa8161180a565b82525050565b600081519050919050565b600082825260208201905092915050565b6000819050602082019050919050565b600081519050919050565b600082825260208201905092915050565b60005b838110156119165780820151818401526020810190506118fb565b83811115611925576000848401525b50505050565b6000601f19601f8301169050919050565b6000611947826118dc565b61195181856118e7565b93506119618185602086016118f8565b61196a8161192b565b840191505092915050565b6000611981838361193c565b905092915050565b6000602082019050919050565b60006119a1826118b0565b6119ab81856118bb565b9350836020820285016119bd856118cc565b8060005b858110156119f957848403895281516119da8582611975565b94506119e583611989565b925060208a019950506001810190506119c1565b50829750879550505050505092915050565b600081519050919050565b600082825260208201905092915050565b6000819050602082019050919050565b6000819050919050565b611a4a81611a37565b82525050565b6000611a5c8383611a41565b60208301905092915050565b6000602082019050919050565b6000611a8082611a0b565b611a8a8185611a16565b9350611a9583611a27565b8060005b83811015611ac6578151611aad8882611a50565b9750611ab883611a68565b925050600181019050611a99565b5085935050505092915050565b600060a083016000830151611aeb60008601826118a1565b5060208301518482036020860152611b038282611996565b91505060408301518482036040860152611b1d8282611996565b91505060608301518482036060860152611b378282611a75565b9150506080830151611b4c6080860182611a41565b508091505092915050565b6000611b638383611ad3565b905092915050565b6000602082019050919050565b6000611b8382611875565b611b8d8185611880565b935083602082028501611b9f85611891565b8060005b85811015611bdb5784840389528151611bbc8582611b57565b9450611bc783611b6b565b925060208a01995050600181019050611ba3565b50829750879550505050505092915050565b60006020820190508181036000830152611c078184611b78565b905092915050565b611c1881611a37565b8114611c2357600080fd5b50565b600081359050611c3581611c0f565b92915050565b600060208284031215611c5157611c506117e0565b5b6000611c5f84828501611c26565b91505092915050565b60008115159050919050565b611c7d81611c68565b82525050565b6000602082019050611c986000830184611c74565b92915050565b611ca78161180a565b82525050565b611cb681611a37565b82525050565b6000604082019050611cd16000830185611c9e565b611cde6020830184611cad565b9392505050565b6000602082019050611cfa6000830184611c9e565b92915050565b600080fd5b7f4e487b7100000000000000000000000000000000000000000000000000000000600052604160045260246000fd5b611d3d8261192b565b810181811067ffffffffffffffff82111715611d5c57611d5b611d05565b5b80604052505050565b6000611d6f6117d6565b9050611d7b8282611d34565b919050565b600067ffffffffffffffff821115611d9b57611d9a611d05565b5b602082029050602081019050919050565b600080fd5b600080fd5b600067ffffffffffffffff821115611dd157611dd0611d05565b5b611dda8261192b565b9050602081019050919050565b82818337600083830152505050565b6000611e09611e0484611db6565b611d65565b905082815260208101848484011115611e2557611e24611db1565b5b611e30848285611de7565b509392505050565b600082601f830112611e4d57611e4c611d00565b5b8135611e5d848260208601611df6565b91505092915050565b6000611e79611e7484611d80565b611d65565b90508083825260208201905060208402830185811115611e9c57611e9b611dac565b5b835b81811015611ee357803567ffffffffffffffff811115611ec157611ec0611d00565b5b808601611ece8982611e38565b85526020850194505050602081019050611e9e565b5050509392505050565b600082601f830112611f0257611f01611d00565b5b8135611f12848260208601611e66565b91505092915050565b600067ffffffffffffffff821115611f3657611f35611d05565b5b602082029050602081019050919050565b6000611f5a611f5584611f1b565b611d65565b90508083825260208201905060208402830185811115611f7d57611f7c611dac565b5b835b81811015611fa65780611f928882611c26565b845260208401935050602081019050611f7f565b5050509392505050565b600082601f830112611fc557611fc4611d00565b5b8135611fd5848260208601611f47565b91505092915050565b600080600060608486031215611ff757611ff66117e0565b5b600084013567ffffffffffffffff811115612015576120146117e5565b5b61202186828701611eed565b935050602084013567ffffffffffffffff811115612042576120416117e5565b5b61204e86828701611eed565b925050604084013567ffffffffffffffff81111561206f5761206e6117e5565b5b61207b86828701611fb0565b9150509250925092565b600060208201905061209a6000830184611cad565b92915050565b600082825260208201905092915050565b7f4f776e61626c653a2063616c6c6572206973206e6f7420746865206f776e6572600082015250565b60006120e76020836120a0565b91506120f2826120b1565b602082019050919050565b60006020820190508181036000830152612116816120da565b9050919050565b7f4e487b7100000000000000000000000000000000000000000000000000000000600052602260045260246000fd5b6000600282049050600182168061216457607f821691505b6020821081036121775761217661211d565b5b50919050565b7f4e487b7100000000000000000000000000000000000000000000000000000000600052603260045260246000fd5b7f4e487b7100000000000000000000000000000000000000000000000000000000600052601160045260246000fd5b60006121e682611a37565b91507fffffffffffffffffffffffffffffffffffffffffffffffffffffffffffffffff8203612218576122176121ac565b5b600182019050919050565b7f4f66666572206973206e6f7420617661696c61626c6500000000000000000000600082015250565b60006122596016836120a0565b915061226482612223565b602082019050919050565b600060208201905081810360008301526122888161224c565b9050919050565b600061229a826118dc565b6122a481856120a0565b93506122b48185602086016118f8565b6122bd8161192b565b840191505092915050565b60006040820190506122dd6000830185611c9e565b81810360208301526122ef818461228f565b90509392505050565b61230181611c68565b811461230c57600080fd5b50565b60008151905061231e816122f8565b92915050565b60006020828403121561233a576123396117e0565b5b60006123488482850161230f565b91505092915050565b7f596f7520646f206e6f742066756c6c66696c6c20616c6c20636f6e646974696f60008201527f6e73000000000000000000000000000000000000000000000000000000000000602082015250565b60006123ad6022836120a0565b91506123b882612351565b604082019050919050565b600060208201905081810360008301526123dc816123a0565b9050919050565b600082825260208201905092915050565b60006123ff82611a0b565b61240981856123e3565b935061241483611a27565b8060005b8381101561244557815161242c8882611a50565b975061243783611a68565b925050600181019050612418565b5085935050505092915050565b600082825260208201905092915050565b600061246e826118b0565b6124788185612452565b93508360208202850161248a856118cc565b8060005b858110156124c657848403895281516124a78582611975565b94506124b283611989565b925060208a0199505060018101905061248e565b50829750879550505050505092915050565b60006080820190506124ed6000830187611c9e565b81810360208301526124ff81866123f4565b905081810360408301526125138185612463565b905081810360608301526125278184612463565b905095945050505050565b600061253d82611a37565b9150600082036125505761254f6121ac565b5b600182039050919050565b7f4e65656420746f207265717569726520646f6e6174696f6e20616d6f756e7400600082015250565b6000612591601f836120a0565b915061259c8261255b565b602082019050919050565b600060208201905081810360008301526125c081612584565b9050919050565b6000815190506125d68161181c565b92915050565b6000602082840312156125f2576125f16117e0565b5b6000612600848285016125c7565b91505092915050565b7f596f7520617265206e6f7420746865206f776e6572206f6620616c6c20636f6960008201527f6e73000000000000000000000000000000000000000000000000000000000000602082015250565b60006126656022836120a0565b915061267082612609565b604082019050919050565b6000602082019050818103600083015261269481612658565b9050919050565b60006040820190506126b06000830185611c9e565b81810360208301526126c281846123f4565b90509392505050565b7f4f776e61626c653a206e6577206f776e657220697320746865207a65726f206160008201527f6464726573730000000000000000000000000000000000000000000000000000602082015250565b60006127276026836120a0565b9150612732826126cb565b604082019050919050565b600060208201905081810360008301526127568161271a565b905091905056fea26469706673582212208941ee4bcd14b850aec9efea8b21d3a7c9c016788c255996b0bb5ddc35ec0cc864736f6c634300080d0033",
  "immutableReferences": {},
  "source": "// SPDX-License-Identifier: MIT\r\npragma solidity ^0.8.0;\r\n\r\nimport \"../client/node_modules/@openzeppelin/contracts/access/Ownable.sol\";\r\n\r\ncontract Sponsor is Ownable {\r\n\r\n    struct Offer {\r\n        address donor;\r\n        string[] senderConditions;\r\n        string[] receiverConditions;\r\n        uint256[] coinIDs;\r\n        uint256 offerID;\r\n    }\r\n\r\n    uint256 public offerID;\r\n    uint256 public activeNumber;\r\n    Offer[] public offers;\r\n    bool[] public activeOffers;\r\n    VerifySponsor private verifier;\r\n    BankSponsor private bank;\r\n    Offer[] private empty;\r\n\r\n    function setVerifier(address _verifier) public onlyOwner() {\r\n        verifier = VerifySponsor(_verifier);\r\n    }\r\n\r\n    function setBank(address _bank) public onlyOwner() {\r\n        bank = BankSponsor(_bank);\r\n    }\r\n\r\n    function createOffer(string[] memory _senderConditions, string[] memory _receiverConditions, uint256[] memory _coinIDs) public {\r\n        // Confirm amount is specified\r\n        require(_coinIDs.length != 0, \"Need to require donation amount\");\r\n        // Confirm person who called function is owner of coins\r\n        for(uint256 i = 0; i < _coinIDs.length; i++){\r\n            require(bank.owners(_coinIDs[i]) == msg.sender, \"You are not the owner of all coins\");\r\n        }\r\n        bank.normalTransfer(address(this), _coinIDs);\r\n        offers.push(Offer(msg.sender, _senderConditions, _receiverConditions, _coinIDs, offerID));\r\n        activeOffers.push(true);\r\n        offerID++;\r\n        activeNumber++;\r\n    }\r\n\r\n    function applyOffer(uint256 _offerID) public {\r\n        require(activeOffers[_offerID], \"Offer is not available\");\r\n        Offer memory applied = offers[_offerID];\r\n        for(uint256 i = 0; i < applied.senderConditions.length; i++){\r\n            string memory currCondition = applied.senderConditions[i];\r\n            require(verifier.checkCertificate(msg.sender, currCondition), \"You do not fullfill all conditions\");\r\n        }\r\n        bank.attachTransfer(msg.sender, applied.coinIDs, applied.senderConditions, applied.receiverConditions);\r\n        activeOffers[_offerID] = false;\r\n        activeNumber--;\r\n    }\r\n\r\n    function getOffers() public view returns (Offer[] memory) {\r\n        if(activeNumber == 0) {\r\n            return empty;\r\n        }\r\n        Offer[] memory currentOffers = new Offer[](activeNumber);\r\n        uint256 count = 0;\r\n        for(uint256 i = 0; i < activeOffers.length; i++){\r\n            if(activeOffers[i]){\r\n                currentOffers[count] = offers[i];\r\n                count++;\r\n            }\r\n        }\r\n        return currentOffers;\r\n    }\r\n}\r\n\r\ncontract VerifySponsor {\r\n    function checkCertificate(address user, string memory condition) public view returns (bool) {}\r\n}\r\n\r\ncontract BankSponsor {\r\n    function owners(uint256 _index) external returns (address) {}\r\n    function normalTransfer(address _receiver, uint256[] memory _payment) public {}\r\n    function attachTransfer(address _receiver, uint256[] memory _payment, string[] memory senderConditions, string[] memory receiverConditions) public {}\r\n}",
  "sourcePath": "C:\\Bachelor_Code\\Smart-Sponsor-v3\\contracts\\Sponsor.sol",
  "compiler": {
    "name": "solc",
    "version": "0.8.13+commit.abaa5c0e.Emscripten.clang"
  },
  "schemaVersion": "3.4.4",
  "updatedAt": "2022-05-07T20:58:26.685Z",
  "networkType": "ethereum",
  "devdoc": {
    "kind": "dev",
    "methods": {
      "owner()": {
        "details": "Returns the address of the current owner."
      },
      "renounceOwnership()": {
        "details": "Leaves the contract without owner. It will not be possible to call `onlyOwner` functions anymore. Can only be called by the current owner. NOTE: Renouncing ownership will leave the contract without an owner, thereby removing any functionality that is only available to the owner."
      },
      "transferOwnership(address)": {
        "details": "Transfers ownership of the contract to a new account (`newOwner`). Can only be called by the current owner."
      }
    },
    "version": 1
  },
  "userdoc": {
    "kind": "user",
    "methods": {},
    "version": 1
  }
}