{
  "contractName": "Verify",
  "abi": [
    {
      "anonymous": false,
      "inputs": [
        {
          "indexed": true,
          "internalType": "address",
          "name": "previousOwner",
          "type": "address"
        },
        {
          "indexed": true,
          "internalType": "address",
          "name": "newOwner",
          "type": "address"
        }
      ],
      "name": "OwnershipTransferred",
      "type": "event"
    },
    {
      "inputs": [
        {
          "internalType": "uint256",
          "name": "",
          "type": "uint256"
        }
      ],
      "name": "certificateArray",
      "outputs": [
        {
          "internalType": "bytes32",
          "name": "",
          "type": "bytes32"
        }
      ],
      "stateMutability": "view",
      "type": "function",
      "constant": true
    },
    {
      "inputs": [
        {
          "internalType": "bytes32",
          "name": "",
          "type": "bytes32"
        }
      ],
      "name": "certificates",
      "outputs": [
        {
          "internalType": "bool",
          "name": "",
          "type": "bool"
        }
      ],
      "stateMutability": "view",
      "type": "function",
      "constant": true
    },
    {
      "inputs": [],
      "name": "owner",
      "outputs": [
        {
          "internalType": "address",
          "name": "",
          "type": "address"
        }
      ],
      "stateMutability": "view",
      "type": "function",
      "constant": true
    },
    {
      "inputs": [],
      "name": "renounceOwnership",
      "outputs": [],
      "stateMutability": "nonpayable",
      "type": "function"
    },
    {
      "inputs": [
        {
          "internalType": "address",
          "name": "newOwner",
          "type": "address"
        }
      ],
      "name": "transferOwnership",
      "outputs": [],
      "stateMutability": "nonpayable",
      "type": "function"
    },
    {
      "inputs": [
        {
          "internalType": "bytes32",
          "name": "",
          "type": "bytes32"
        }
      ],
      "name": "validTime",
      "outputs": [
        {
          "internalType": "uint256",
          "name": "",
          "type": "uint256"
        }
      ],
      "stateMutability": "view",
      "type": "function",
      "constant": true
    },
    {
      "inputs": [
        {
          "internalType": "address",
          "name": "_user",
          "type": "address"
        },
        {
          "internalType": "string",
          "name": "_condition",
          "type": "string"
        },
        {
          "internalType": "uint256",
          "name": "_expiry",
          "type": "uint256"
        }
      ],
      "name": "addCertificate",
      "outputs": [
        {
          "internalType": "bytes32",
          "name": "",
          "type": "bytes32"
        }
      ],
      "stateMutability": "nonpayable",
      "type": "function"
    },
    {
      "inputs": [
        {
          "internalType": "address",
          "name": "_user",
          "type": "address"
        },
        {
          "internalType": "string",
          "name": "_condition",
          "type": "string"
        }
      ],
      "name": "checkCertificate",
      "outputs": [
        {
          "internalType": "bool",
          "name": "",
          "type": "bool"
        }
      ],
      "stateMutability": "view",
      "type": "function",
      "constant": true
    },
    {
      "inputs": [],
      "name": "updateTime",
      "outputs": [],
      "stateMutability": "nonpayable",
      "type": "function"
    },
    {
      "inputs": [
        {
          "internalType": "address",
          "name": "_user",
          "type": "address"
        },
        {
          "internalType": "string",
          "name": "_condition",
          "type": "string"
        }
      ],
      "name": "calculateHash",
      "outputs": [
        {
          "internalType": "bytes32",
          "name": "",
          "type": "bytes32"
        }
      ],
      "stateMutability": "pure",
      "type": "function",
      "constant": true
    }
  ],
  "bytecode": "0x6080604052601e60045534801561001557600080fd5b5061003261002761003760201b60201c565b61003f60201b60201c565b610103565b600033905090565b60008060009054906101000a900473ffffffffffffffffffffffffffffffffffffffff169050816000806101000a81548173ffffffffffffffffffffffffffffffffffffffff021916908373ffffffffffffffffffffffffffffffffffffffff1602179055508173ffffffffffffffffffffffffffffffffffffffff168173ffffffffffffffffffffffffffffffffffffffff167f8be0079c531659141344cd1fd0a4f28419497f9722a3daafe3b4186f6b6457e060405160405180910390a35050565b611261806101126000396000f3fe608060405234801561001057600080fd5b506004361061009e5760003560e01c8063ba77c4fd11610066578063ba77c4fd1461015b578063d241a98d1461018b578063dc555090146101bb578063f067cd94146101c5578063f2fde38b146101f55761009e565b8063672ae884146100a3578063715018a6146100d3578063742f0688146100dd5780638da5cb5b1461010d5780639763a6641461012b575b600080fd5b6100bd60048036038101906100b89190610b9a565b610211565b6040516100ca9190610c0f565b60405180910390f35b6100db610244565b005b6100f760048036038101906100f29190610c56565b6102cc565b6040516101049190610c9e565b60405180910390f35b6101156102ec565b6040516101229190610cc8565b60405180910390f35b61014560048036038101906101409190610c56565b610315565b6040516101529190610cfc565b60405180910390f35b61017560048036038101906101709190610d43565b61032d565b6040516101829190610c0f565b60405180910390f35b6101a560048036038101906101a09190610b9a565b610351565b6040516101b29190610c9e565b60405180910390f35b6101c3610486565b005b6101df60048036038101906101da9190610d70565b6105bb565b6040516101ec9190610c0f565b60405180910390f35b61020f600480360381019061020a9190610ddf565b61081f565b005b60008282604051602001610226929190610ece565b60405160208183030381529060405280519060200120905092915050565b61024c610916565b73ffffffffffffffffffffffffffffffffffffffff1661026a6102ec565b73ffffffffffffffffffffffffffffffffffffffff16146102c0576040517f08c379a00000000000000000000000000000000000000000000000000000000081526004016102b790610f53565b60405180910390fd5b6102ca600061091e565b565b60016020528060005260406000206000915054906101000a900460ff1681565b60008060009054906101000a900473ffffffffffffffffffffffffffffffffffffffff16905090565b60026020528060005260406000206000915090505481565b6003818154811061033d57600080fd5b906000526020600020016000915090505481565b600060405160200161036290610f99565b60405160208183030381529060405280519060200120826040516020016103899190610fae565b60405160208183030381529060405280519060200120036103df576040517f08c379a00000000000000000000000000000000000000000000000000000000081526004016103d690611011565b60405180910390fd5b600073ffffffffffffffffffffffffffffffffffffffff168373ffffffffffffffffffffffffffffffffffffffff160361044e576040517f08c379a00000000000000000000000000000000000000000000000000000000081526004016104459061107d565b60405180910390fd5b600061045a8484610211565b90506001600082815260200190815260200160002060009054906101000a900460ff1691505092915050565b61048e610916565b73ffffffffffffffffffffffffffffffffffffffff166104ac6102ec565b73ffffffffffffffffffffffffffffffffffffffff1614610502576040517f08c379a00000000000000000000000000000000000000000000000000000000081526004016104f990610f53565b60405180910390fd5b60005b6003805490508110156105b8576000600382815481106105285761052761109d565b5b906000526020600020015490506001600082815260200190815260200160002060009054906101000a900460ff16156105a45742600260008381526020019081526020016000205410156105a35760006001600083815260200190815260200160002060006101000a81548160ff0219169083151502179055505b5b5080806105b0906110fb565b915050610505565b50565b60006105c5610916565b73ffffffffffffffffffffffffffffffffffffffff166105e36102ec565b73ffffffffffffffffffffffffffffffffffffffff1614610639576040517f08c379a000000000000000000000000000000000000000000000000000000000815260040161063090610f53565b60405180910390fd5b60405160200161064890610f99565b604051602081830303815290604052805190602001208360405160200161066f9190610fae565b60405160208183030381529060405280519060200120036106c5576040517f08c379a00000000000000000000000000000000000000000000000000000000081526004016106bc90611011565b60405180910390fd5b600073ffffffffffffffffffffffffffffffffffffffff168473ffffffffffffffffffffffffffffffffffffffff1603610734576040517f08c379a000000000000000000000000000000000000000000000000000000000815260040161072b9061107d565b60405180910390fd5b60006107408585610211565b9050600454831015610776576004544261075a9190611143565b600260008381526020019081526020016000208190555061079a565b82426107829190611143565b60026000838152602001908152602001600020819055505b6001600082815260200190815260200160002060009054906101000a900460ff1661081457600180600083815260200190815260200160002060006101000a81548160ff02191690831515021790555060038190806001815401808255809150506001900390600052602060002001600090919091909150555b809150509392505050565b610827610916565b73ffffffffffffffffffffffffffffffffffffffff166108456102ec565b73ffffffffffffffffffffffffffffffffffffffff161461089b576040517f08c379a000000000000000000000000000000000000000000000000000000000815260040161089290610f53565b60405180910390fd5b600073ffffffffffffffffffffffffffffffffffffffff168173ffffffffffffffffffffffffffffffffffffffff160361090a576040517f08c379a00000000000000000000000000000000000000000000000000000000081526004016109019061120b565b60405180910390fd5b6109138161091e565b50565b600033905090565b60008060009054906101000a900473ffffffffffffffffffffffffffffffffffffffff169050816000806101000a81548173ffffffffffffffffffffffffffffffffffffffff021916908373ffffffffffffffffffffffffffffffffffffffff1602179055508173ffffffffffffffffffffffffffffffffffffffff168173ffffffffffffffffffffffffffffffffffffffff167f8be0079c531659141344cd1fd0a4f28419497f9722a3daafe3b4186f6b6457e060405160405180910390a35050565b6000604051905090565b600080fd5b600080fd5b600073ffffffffffffffffffffffffffffffffffffffff82169050919050565b6000610a21826109f6565b9050919050565b610a3181610a16565b8114610a3c57600080fd5b50565b600081359050610a4e81610a28565b92915050565b600080fd5b600080fd5b6000601f19601f8301169050919050565b7f4e487b7100000000000000000000000000000000000000000000000000000000600052604160045260246000fd5b610aa782610a5e565b810181811067ffffffffffffffff82111715610ac657610ac5610a6f565b5b80604052505050565b6000610ad96109e2565b9050610ae58282610a9e565b919050565b600067ffffffffffffffff821115610b0557610b04610a6f565b5b610b0e82610a5e565b9050602081019050919050565b82818337600083830152505050565b6000610b3d610b3884610aea565b610acf565b905082815260208101848484011115610b5957610b58610a59565b5b610b64848285610b1b565b509392505050565b600082601f830112610b8157610b80610a54565b5b8135610b91848260208601610b2a565b91505092915050565b60008060408385031215610bb157610bb06109ec565b5b6000610bbf85828601610a3f565b925050602083013567ffffffffffffffff811115610be057610bdf6109f1565b5b610bec85828601610b6c565b9150509250929050565b6000819050919050565b610c0981610bf6565b82525050565b6000602082019050610c246000830184610c00565b92915050565b610c3381610bf6565b8114610c3e57600080fd5b50565b600081359050610c5081610c2a565b92915050565b600060208284031215610c6c57610c6b6109ec565b5b6000610c7a84828501610c41565b91505092915050565b60008115159050919050565b610c9881610c83565b82525050565b6000602082019050610cb36000830184610c8f565b92915050565b610cc281610a16565b82525050565b6000602082019050610cdd6000830184610cb9565b92915050565b6000819050919050565b610cf681610ce3565b82525050565b6000602082019050610d116000830184610ced565b92915050565b610d2081610ce3565b8114610d2b57600080fd5b50565b600081359050610d3d81610d17565b92915050565b600060208284031215610d5957610d586109ec565b5b6000610d6784828501610d2e565b91505092915050565b600080600060608486031215610d8957610d886109ec565b5b6000610d9786828701610a3f565b935050602084013567ffffffffffffffff811115610db857610db76109f1565b5b610dc486828701610b6c565b9250506040610dd586828701610d2e565b9150509250925092565b600060208284031215610df557610df46109ec565b5b6000610e0384828501610a3f565b91505092915050565b60008160601b9050919050565b6000610e2482610e0c565b9050919050565b6000610e3682610e19565b9050919050565b610e4e610e4982610a16565b610e2b565b82525050565b600081519050919050565b600081905092915050565b60005b83811015610e88578082015181840152602081019050610e6d565b83811115610e97576000848401525b50505050565b6000610ea882610e54565b610eb28185610e5f565b9350610ec2818560208601610e6a565b80840191505092915050565b6000610eda8285610e3d565b601482019150610eea8284610e9d565b91508190509392505050565b600082825260208201905092915050565b7f4f776e61626c653a2063616c6c6572206973206e6f7420746865206f776e6572600082015250565b6000610f3d602083610ef6565b9150610f4882610f07565b602082019050919050565b60006020820190508181036000830152610f6c81610f30565b9050919050565b50565b6000610f83600083610e5f565b9150610f8e82610f73565b600082019050919050565b6000610fa482610f76565b9150819050919050565b6000610fba8284610e9d565b915081905092915050565b7f43616e6e6f742076657269667920656d70747920636f6e646974696f6e730000600082015250565b6000610ffb601e83610ef6565b915061100682610fc5565b602082019050919050565b6000602082019050818103600083015261102a81610fee565b9050919050565b7f43616e6e6f742076657269667920666f72206e6f205573657200000000000000600082015250565b6000611067601983610ef6565b915061107282611031565b602082019050919050565b600060208201905081810360008301526110968161105a565b9050919050565b7f4e487b7100000000000000000000000000000000000000000000000000000000600052603260045260246000fd5b7f4e487b7100000000000000000000000000000000000000000000000000000000600052601160045260246000fd5b600061110682610ce3565b91507fffffffffffffffffffffffffffffffffffffffffffffffffffffffffffffffff8203611138576111376110cc565b5b600182019050919050565b600061114e82610ce3565b915061115983610ce3565b9250827fffffffffffffffffffffffffffffffffffffffffffffffffffffffffffffffff0382111561118e5761118d6110cc565b5b828201905092915050565b7f4f776e61626c653a206e6577206f776e657220697320746865207a65726f206160008201527f6464726573730000000000000000000000000000000000000000000000000000602082015250565b60006111f5602683610ef6565b915061120082611199565b604082019050919050565b60006020820190508181036000830152611224816111e8565b905091905056fea26469706673582212208878e615a783c6b66cf30638174435235db4e7c42c16b2547f1d4b20787c6dc364736f6c634300080f0033",
  "immutableReferences": {},
  "source": "// SPDX-License-Identifier: MIT\r\npragma solidity ^0.8.0;\r\n\r\nimport \"../client/node_modules/@openzeppelin/contracts/access/Ownable.sol\";\r\n\r\ncontract Verify is Ownable {\r\n    mapping(bytes32 => bool) public certificates;\r\n    mapping(bytes32 => uint256) public validTime;\r\n    bytes32[] public certificateArray; \r\n    uint256 private certificateLength = 30; // this is in seconds\r\n\r\n    function addCertificate(address _user, string memory _condition, uint256 _expiry) public onlyOwner returns (bytes32) {\r\n        // Confirm condition string is not empty string\r\n        require(keccak256(abi.encodePacked(_condition)) != keccak256(abi.encodePacked('')), \"Cannot verify empty conditions\");\r\n        // Confirm user is actual account\r\n        require(_user != address(0), \"Cannot verify for no User\");\r\n        // Hash over user and condition and set hash in lookup-table\r\n        bytes32 newCertificate = calculateHash(_user, _condition);\r\n        // Set time for this certificate to be valid\r\n        if(_expiry < certificateLength){\r\n            validTime[newCertificate] = (block.timestamp + certificateLength);\r\n        } else {\r\n            validTime[newCertificate] = (block.timestamp + _expiry);\r\n        }\r\n        if(!certificates[newCertificate]){\r\n            certificates[newCertificate] = true;\r\n            certificateArray.push(newCertificate);\r\n        }\r\n        return newCertificate;\r\n    }\r\n\r\n    function checkCertificate(address _user, string memory _condition) public view returns (bool) {\r\n        // Calculate hash to look up\r\n        // Confirm condition string is not empty string\r\n        require(keccak256(abi.encodePacked(_condition)) != keccak256(abi.encodePacked('')), \"Cannot verify empty conditions\");\r\n        // Confirm user is actual account\r\n        require(_user != address(0), \"Cannot verify for no User\");\r\n        bytes32 containedCertificate = calculateHash(_user, _condition);\r\n        return certificates[containedCertificate];\r\n    }\r\n\r\n    function updateTime() public onlyOwner {\r\n        for(uint256 i = 0; i < certificateArray.length; i++) {\r\n            // Check if current certificate is active\r\n            bytes32 current = certificateArray[i];\r\n            if(certificates[current]){\r\n                // Check if Certificate expired\r\n                if(validTime[current] < block.timestamp){\r\n                    certificates[current] = false;\r\n                }\r\n            }\r\n        }\r\n    } \r\n\r\n    function calculateHash(address _user, string memory _condition) public pure returns (bytes32) {\r\n        return keccak256(abi.encodePacked(_user, _condition));\r\n    }\r\n}\r\n",
  "sourcePath": "C:\\Bachelor_Code\\Smart-Sponsor-v3\\contracts\\Verify.sol",
  "compiler": {
    "name": "solc",
    "version": "0.8.15+commit.e14f2714.Emscripten.clang"
  },
  "schemaVersion": "3.4.4",
  "updatedAt": "2022-07-17T22:26:34.749Z",
  "networkType": "ethereum",
  "devdoc": {
    "kind": "dev",
    "methods": {
      "owner()": {
        "details": "Returns the address of the current owner."
      },
      "renounceOwnership()": {
        "details": "Leaves the contract without owner. It will not be possible to call `onlyOwner` functions anymore. Can only be called by the current owner. NOTE: Renouncing ownership will leave the contract without an owner, thereby removing any functionality that is only available to the owner."
      },
      "transferOwnership(address)": {
        "details": "Transfers ownership of the contract to a new account (`newOwner`). Can only be called by the current owner."
      }
    },
    "version": 1
  },
  "userdoc": {
    "kind": "user",
    "methods": {},
    "version": 1
  }
}