{
  "contractName": "VerifyBank",
  "abi": [
    {
      "inputs": [
        {
          "internalType": "address",
          "name": "user",
          "type": "address"
        },
        {
          "internalType": "string",
          "name": "condition",
          "type": "string"
        }
      ],
      "name": "checkCertificate",
      "outputs": [
        {
          "internalType": "bool",
          "name": "",
          "type": "bool"
        }
      ],
      "stateMutability": "view",
      "type": "function"
    }
  ],
  "bytecode": "0x608060405234801561001057600080fd5b506102e8806100206000396000f3fe608060405234801561001057600080fd5b506004361061002b5760003560e01c8063d241a98d14610030575b600080fd5b61004a60048036038101906100459190610220565b610060565b6040516100579190610297565b60405180910390f35b600092915050565b6000604051905090565b600080fd5b600080fd5b600073ffffffffffffffffffffffffffffffffffffffff82169050919050565b60006100a78261007c565b9050919050565b6100b78161009c565b81146100c257600080fd5b50565b6000813590506100d4816100ae565b92915050565b600080fd5b600080fd5b6000601f19601f8301169050919050565b7f4e487b7100000000000000000000000000000000000000000000000000000000600052604160045260246000fd5b61012d826100e4565b810181811067ffffffffffffffff8211171561014c5761014b6100f5565b5b80604052505050565b600061015f610068565b905061016b8282610124565b919050565b600067ffffffffffffffff82111561018b5761018a6100f5565b5b610194826100e4565b9050602081019050919050565b82818337600083830152505050565b60006101c36101be84610170565b610155565b9050828152602081018484840111156101df576101de6100df565b5b6101ea8482856101a1565b509392505050565b600082601f830112610207576102066100da565b5b81356102178482602086016101b0565b91505092915050565b6000806040838503121561023757610236610072565b5b6000610245858286016100c5565b925050602083013567ffffffffffffffff81111561026657610265610077565b5b610272858286016101f2565b9150509250929050565b60008115159050919050565b6102918161027c565b82525050565b60006020820190506102ac6000830184610288565b9291505056fea2646970667358221220f1c38558ef0eff448d500063cfec415a00af4c9f6973abc70631d5f87e95108664736f6c634300080f0033",
  "immutableReferences": {},
  "source": "// SPDX-License-Identifier: MIT\r\npragma solidity ^0.8.0;\r\n\r\nimport \"../client/node_modules/@openzeppelin/contracts/access/Ownable.sol\";\r\n\r\ncontract Bank is Ownable {\r\n\r\n    struct Coin {\r\n        uint256 coinID;\r\n        address permit;\r\n        string[] senderConditions;\r\n        string[] receiverConditions;\r\n    }\r\n\r\n    uint256 public coinID;\r\n    Coin[] public coins;\r\n    address[] public owners;\r\n    address[] public allowed;\r\n    VerifyBank public verifier;\r\n    string[] private empty;\r\n\r\n    function setVerifier(address _verifier) public onlyOwner() {\r\n        require(_verifier != address(0), \"Cannot set Verifier to this address\");\r\n        verifier = VerifyBank(_verifier);\r\n    }\r\n\r\n    // WARNING: In Theory it is possible to set singular strings to the empty string. Checking this in the backend is too \r\n    // resource intensive, so the front end will assure sanity for conditions.\r\n\r\n    function mint(address _owner, uint256 _amount, string[] memory _senderConditions, string[] memory _receiverConditions) public onlyOwner() {\r\n        // Confirm user is actual account\r\n        require(_owner != address(0), \"Cannot mint to this address\");\r\n        // Confirm amount is set\r\n        require(_amount != 0, \"Mint-amount unspecified\");\r\n        // Create new Coins and push them to array\r\n        for(uint256 i = 0; i < _amount; i++){\r\n            coins.push(Coin(coinID, address(0), _senderConditions, _receiverConditions));\r\n            owners.push(_owner);\r\n            allowed.push(address(0));\r\n            coinID++;\r\n        }\r\n    }\r\n\r\n    function normalTransfer(address _receiver, uint256[] memory _payment) public {\r\n        // Confirm target address exists\r\n        require(_receiver != address(0), \"Cannot send coins to this address\");\r\n        // Confirm Coins to send are specified\r\n        require(_payment.length != 0, \"Specify an amount to send\");\r\n        for(uint256 i = 0; i < _payment.length; i++){\r\n            uint256 currID = _payment[i];\r\n            // Confirm permission to use this coin\r\n            require(owners[currID] == msg.sender || allowed[currID] == msg.sender, \"You do not have permission over all these coins\");\r\n            // Confirm Receiver is not current Owner\r\n            require(owners[currID] != _receiver, \"You cannot send coins to yourself\");\r\n            Coin memory currCoin = coins[currID];\r\n            // Confirm sender/receiver conditions are fulfilled\r\n            for(uint256 j = 0; j < currCoin.senderConditions.length; j++){\r\n                require(verifier.checkCertificate(owners[currID], currCoin.senderConditions[j]), \"Not all sender-conditions fulfilled\");\r\n            }\r\n            for(uint256 j = 0; j < currCoin.receiverConditions.length; j++){\r\n                require(verifier.checkCertificate(_receiver, currCoin.receiverConditions[j]), \"Not all receiver-conditions fulfilled\");\r\n            }\r\n            coins[currID].senderConditions = empty;\r\n            coins[currID].receiverConditions = empty;\r\n            coins[currID].permit = address(0);\r\n            owners[currID] = _receiver;\r\n            allowed[currID] = address(0);\r\n        }\r\n    }\r\n\r\n    // WARNING: In Theory it is possible to set singular strings to the empty string. Checking this in the backend is too \r\n    // resource intensive, so the front end will assure sanity for conditions.\r\n\r\n    function attachTransfer(address _receiver, uint256[] memory _payment, string[] memory _senderConditions, string[] memory _receiverConditions) public {\r\n        // Confirm target address exists\r\n        require(_receiver != address(0), \"Cannot send coins to this address\");\r\n        // Confirm Coins to send are specified\r\n        require(_payment.length != 0, \"Specify an amount to send\");\r\n        // At least one of the condition sets should contain strings.\r\n        require(_senderConditions.length > 0 || _receiverConditions.length > 0, \"At least one of the condition sets should contain conditions\");\r\n        for(uint256 i = 0; i < _payment.length; i++){\r\n            uint256 currID = _payment[i];\r\n            // Confirm permission to use this coin\r\n            require(owners[currID] == msg.sender || allowed[currID] == msg.sender, \"You do not have permission over all these coins\");\r\n            // Confirm Receiver is not current Owner\r\n            require(owners[currID] != _receiver, \"You cannot send coins to yourself\");\r\n            Coin memory currCoin = coins[currID];\r\n            // Confirm sender/receiver conditions are fulfilled\r\n            for(uint256 j = 0; j < currCoin.senderConditions.length; j++){\r\n                require(verifier.checkCertificate(owners[currID], currCoin.senderConditions[j]), \"Not all sender-conditions fulfilled\");\r\n            }\r\n            for(uint256 j = 0; j < currCoin.receiverConditions.length; j++){\r\n                require(verifier.checkCertificate(_receiver, currCoin.receiverConditions[j]), \"Not all receiver-conditions fulfilled\");\r\n            }\r\n            coins[currID].senderConditions = _senderConditions;\r\n            coins[currID].receiverConditions = _receiverConditions;\r\n            coins[currID].permit = address(0);\r\n            owners[currID] = _receiver;\r\n            allowed[currID] = address(0);\r\n        }\r\n    }\r\n\r\n    function permit(address _target, uint256[] memory _coins) public {\r\n        // Confirm target address exists\r\n        require(_target != address(0), \"Cannot send coins to this address\");\r\n        // Confirm coins are specified\r\n        require(_coins.length != 0, \"Specify coins you want to give permission for\");\r\n        for(uint256 i = 0; i < _coins.length; i++){\r\n            uint256 currID = _coins[i];\r\n            require(owners[currID] == msg.sender, \"You are not the owner of all specified coins\");\r\n            coins[currID].permit = _target;\r\n            allowed[currID] = _target;\r\n        }\r\n    }\r\n\r\n    function wallet() public view returns (Coin[] memory) { \r\n        uint256 amount = 0;\r\n        for(uint i = 0; i < coinID; i++){\r\n            if(owners[i] == msg.sender){\r\n                amount++;\r\n            }\r\n        }\r\n        Coin[] memory balance = new Coin[](amount);\r\n        uint256 count = 0;\r\n        for(uint i = 0; count < amount; i++){\r\n            if(owners[i] == msg.sender){\r\n                balance[count] = coins[i];\r\n                count++;\r\n            }\r\n        }\r\n        return balance;\r\n    } \r\n}\r\n\r\ncontract VerifyBank {\r\n    function checkCertificate(address user, string memory condition) public view returns (bool) {}\r\n}",
  "sourcePath": "C:\\Bachelor_Code\\Smart-Sponsor-v3\\contracts\\Bank.sol",
  "compiler": {
    "name": "solc",
    "version": "0.8.15+commit.e14f2714.Emscripten.clang"
  },
  "schemaVersion": "3.4.4",
  "updatedAt": "2022-06-22T16:24:38.060Z",
  "devdoc": {
    "kind": "dev",
    "methods": {},
    "version": 1
  },
  "userdoc": {
    "kind": "user",
    "methods": {},
    "version": 1
  }
}