{
  "contractName": "Verify",
  "abi": [
    {
      "anonymous": false,
      "inputs": [
        {
          "indexed": true,
          "internalType": "address",
          "name": "previousOwner",
          "type": "address"
        },
        {
          "indexed": true,
          "internalType": "address",
          "name": "newOwner",
          "type": "address"
        }
      ],
      "name": "OwnershipTransferred",
      "type": "event"
    },
    {
      "inputs": [
        {
          "internalType": "uint256",
          "name": "",
          "type": "uint256"
        }
      ],
      "name": "certificateArray",
      "outputs": [
        {
          "internalType": "bytes32",
          "name": "",
          "type": "bytes32"
        }
      ],
      "stateMutability": "view",
      "type": "function",
      "constant": true
    },
    {
      "inputs": [
        {
          "internalType": "bytes32",
          "name": "",
          "type": "bytes32"
        }
      ],
      "name": "certificates",
      "outputs": [
        {
          "internalType": "bool",
          "name": "",
          "type": "bool"
        }
      ],
      "stateMutability": "view",
      "type": "function",
      "constant": true
    },
    {
      "inputs": [],
      "name": "owner",
      "outputs": [
        {
          "internalType": "address",
          "name": "",
          "type": "address"
        }
      ],
      "stateMutability": "view",
      "type": "function",
      "constant": true
    },
    {
      "inputs": [],
      "name": "renounceOwnership",
      "outputs": [],
      "stateMutability": "nonpayable",
      "type": "function"
    },
    {
      "inputs": [
        {
          "internalType": "address",
          "name": "newOwner",
          "type": "address"
        }
      ],
      "name": "transferOwnership",
      "outputs": [],
      "stateMutability": "nonpayable",
      "type": "function"
    },
    {
      "inputs": [
        {
          "internalType": "bytes32",
          "name": "",
          "type": "bytes32"
        }
      ],
      "name": "validTime",
      "outputs": [
        {
          "internalType": "uint256",
          "name": "",
          "type": "uint256"
        }
      ],
      "stateMutability": "view",
      "type": "function",
      "constant": true
    },
    {
      "inputs": [
        {
          "internalType": "address",
          "name": "_user",
          "type": "address"
        },
        {
          "internalType": "string",
          "name": "_condition",
          "type": "string"
        }
      ],
      "name": "addCertificate",
      "outputs": [
        {
          "internalType": "bytes32",
          "name": "",
          "type": "bytes32"
        }
      ],
      "stateMutability": "nonpayable",
      "type": "function"
    },
    {
      "inputs": [
        {
          "internalType": "address",
          "name": "_user",
          "type": "address"
        },
        {
          "internalType": "string",
          "name": "_condition",
          "type": "string"
        }
      ],
      "name": "checkCertificate",
      "outputs": [
        {
          "internalType": "bool",
          "name": "",
          "type": "bool"
        }
      ],
      "stateMutability": "view",
      "type": "function",
      "constant": true
    },
    {
      "inputs": [],
      "name": "updateTime",
      "outputs": [],
      "stateMutability": "nonpayable",
      "type": "function"
    },
    {
      "inputs": [
        {
          "internalType": "address",
          "name": "_user",
          "type": "address"
        },
        {
          "internalType": "string",
          "name": "_condition",
          "type": "string"
        }
      ],
      "name": "calculateHash",
      "outputs": [
        {
          "internalType": "bytes32",
          "name": "",
          "type": "bytes32"
        }
      ],
      "stateMutability": "pure",
      "type": "function",
      "constant": true
    }
  ],
  "bytecode": "0x6080604052601e60045534801561001557600080fd5b5061003261002761003760201b60201c565b61003f60201b60201c565b610103565b600033905090565b60008060009054906101000a900473ffffffffffffffffffffffffffffffffffffffff169050816000806101000a81548173ffffffffffffffffffffffffffffffffffffffff021916908373ffffffffffffffffffffffffffffffffffffffff1602179055508173ffffffffffffffffffffffffffffffffffffffff168173ffffffffffffffffffffffffffffffffffffffff167f8be0079c531659141344cd1fd0a4f28419497f9722a3daafe3b4186f6b6457e060405160405180910390a35050565b6111be806101126000396000f3fe608060405234801561001057600080fd5b506004361061009e5760003560e01c80639763a664116100665780639763a6641461015b578063ba77c4fd1461018b578063d241a98d146101bb578063dc555090146101eb578063f2fde38b146101f55761009e565b80634a14188d146100a3578063672ae884146100d3578063715018a614610103578063742f06881461010d5780638da5cb5b1461013d575b600080fd5b6100bd60048036038101906100b89190610b66565b610211565b6040516100ca9190610bdb565b60405180910390f35b6100ed60048036038101906100e89190610b66565b610441565b6040516100fa9190610bdb565b60405180910390f35b61010b610474565b005b61012760048036038101906101229190610c22565b6104fc565b6040516101349190610c6a565b60405180910390f35b61014561051c565b6040516101529190610c94565b60405180910390f35b61017560048036038101906101709190610c22565b610545565b6040516101829190610cc8565b60405180910390f35b6101a560048036038101906101a09190610d0f565b61055d565b6040516101b29190610bdb565b60405180910390f35b6101d560048036038101906101d09190610b66565b610581565b6040516101e29190610c6a565b60405180910390f35b6101f36106b6565b005b61020f600480360381019061020a9190610d3c565b6107eb565b005b600061021b6108e2565b73ffffffffffffffffffffffffffffffffffffffff1661023961051c565b73ffffffffffffffffffffffffffffffffffffffff161461028f576040517f08c379a000000000000000000000000000000000000000000000000000000000815260040161028690610dc6565b60405180910390fd5b60405160200161029e90610e17565b60405160208183030381529060405280519060200120826040516020016102c59190610e9b565b604051602081830303815290604052805190602001200361031b576040517f08c379a000000000000000000000000000000000000000000000000000000000815260040161031290610efe565b60405180910390fd5b600073ffffffffffffffffffffffffffffffffffffffff168373ffffffffffffffffffffffffffffffffffffffff160361038a576040517f08c379a000000000000000000000000000000000000000000000000000000000815260040161038190610f6a565b60405180910390fd5b60006103968484610441565b9050600454426103a69190610fb9565b60026000838152602001908152602001600020819055506001600082815260200190815260200160002060009054906101000a900460ff1661043757600180600083815260200190815260200160002060006101000a81548160ff02191690831515021790555060038190806001815401808255809150506001900390600052602060002001600090919091909150555b8091505092915050565b60008282604051602001610456929190611057565b60405160208183030381529060405280519060200120905092915050565b61047c6108e2565b73ffffffffffffffffffffffffffffffffffffffff1661049a61051c565b73ffffffffffffffffffffffffffffffffffffffff16146104f0576040517f08c379a00000000000000000000000000000000000000000000000000000000081526004016104e790610dc6565b60405180910390fd5b6104fa60006108ea565b565b60016020528060005260406000206000915054906101000a900460ff1681565b60008060009054906101000a900473ffffffffffffffffffffffffffffffffffffffff16905090565b60026020528060005260406000206000915090505481565b6003818154811061056d57600080fd5b906000526020600020016000915090505481565b600060405160200161059290610e17565b60405160208183030381529060405280519060200120826040516020016105b99190610e9b565b604051602081830303815290604052805190602001200361060f576040517f08c379a000000000000000000000000000000000000000000000000000000000815260040161060690610efe565b60405180910390fd5b600073ffffffffffffffffffffffffffffffffffffffff168373ffffffffffffffffffffffffffffffffffffffff160361067e576040517f08c379a000000000000000000000000000000000000000000000000000000000815260040161067590610f6a565b60405180910390fd5b600061068a8484610441565b90506001600082815260200190815260200160002060009054906101000a900460ff1691505092915050565b6106be6108e2565b73ffffffffffffffffffffffffffffffffffffffff166106dc61051c565b73ffffffffffffffffffffffffffffffffffffffff1614610732576040517f08c379a000000000000000000000000000000000000000000000000000000000815260040161072990610dc6565b60405180910390fd5b60005b6003805490508110156107e8576000600382815481106107585761075761107f565b5b906000526020600020015490506001600082815260200190815260200160002060009054906101000a900460ff16156107d45742600260008381526020019081526020016000205410156107d35760006001600083815260200190815260200160002060006101000a81548160ff0219169083151502179055505b5b5080806107e0906110ae565b915050610735565b50565b6107f36108e2565b73ffffffffffffffffffffffffffffffffffffffff1661081161051c565b73ffffffffffffffffffffffffffffffffffffffff1614610867576040517f08c379a000000000000000000000000000000000000000000000000000000000815260040161085e90610dc6565b60405180910390fd5b600073ffffffffffffffffffffffffffffffffffffffff168173ffffffffffffffffffffffffffffffffffffffff16036108d6576040517f08c379a00000000000000000000000000000000000000000000000000000000081526004016108cd90611168565b60405180910390fd5b6108df816108ea565b50565b600033905090565b60008060009054906101000a900473ffffffffffffffffffffffffffffffffffffffff169050816000806101000a81548173ffffffffffffffffffffffffffffffffffffffff021916908373ffffffffffffffffffffffffffffffffffffffff1602179055508173ffffffffffffffffffffffffffffffffffffffff168173ffffffffffffffffffffffffffffffffffffffff167f8be0079c531659141344cd1fd0a4f28419497f9722a3daafe3b4186f6b6457e060405160405180910390a35050565b6000604051905090565b600080fd5b600080fd5b600073ffffffffffffffffffffffffffffffffffffffff82169050919050565b60006109ed826109c2565b9050919050565b6109fd816109e2565b8114610a0857600080fd5b50565b600081359050610a1a816109f4565b92915050565b600080fd5b600080fd5b6000601f19601f8301169050919050565b7f4e487b7100000000000000000000000000000000000000000000000000000000600052604160045260246000fd5b610a7382610a2a565b810181811067ffffffffffffffff82111715610a9257610a91610a3b565b5b80604052505050565b6000610aa56109ae565b9050610ab18282610a6a565b919050565b600067ffffffffffffffff821115610ad157610ad0610a3b565b5b610ada82610a2a565b9050602081019050919050565b82818337600083830152505050565b6000610b09610b0484610ab6565b610a9b565b905082815260208101848484011115610b2557610b24610a25565b5b610b30848285610ae7565b509392505050565b600082601f830112610b4d57610b4c610a20565b5b8135610b5d848260208601610af6565b91505092915050565b60008060408385031215610b7d57610b7c6109b8565b5b6000610b8b85828601610a0b565b925050602083013567ffffffffffffffff811115610bac57610bab6109bd565b5b610bb885828601610b38565b9150509250929050565b6000819050919050565b610bd581610bc2565b82525050565b6000602082019050610bf06000830184610bcc565b92915050565b610bff81610bc2565b8114610c0a57600080fd5b50565b600081359050610c1c81610bf6565b92915050565b600060208284031215610c3857610c376109b8565b5b6000610c4684828501610c0d565b91505092915050565b60008115159050919050565b610c6481610c4f565b82525050565b6000602082019050610c7f6000830184610c5b565b92915050565b610c8e816109e2565b82525050565b6000602082019050610ca96000830184610c85565b92915050565b6000819050919050565b610cc281610caf565b82525050565b6000602082019050610cdd6000830184610cb9565b92915050565b610cec81610caf565b8114610cf757600080fd5b50565b600081359050610d0981610ce3565b92915050565b600060208284031215610d2557610d246109b8565b5b6000610d3384828501610cfa565b91505092915050565b600060208284031215610d5257610d516109b8565b5b6000610d6084828501610a0b565b91505092915050565b600082825260208201905092915050565b7f4f776e61626c653a2063616c6c6572206973206e6f7420746865206f776e6572600082015250565b6000610db0602083610d69565b9150610dbb82610d7a565b602082019050919050565b60006020820190508181036000830152610ddf81610da3565b9050919050565b600081905092915050565b50565b6000610e01600083610de6565b9150610e0c82610df1565b600082019050919050565b6000610e2282610df4565b9150819050919050565b600081519050919050565b60005b83811015610e55578082015181840152602081019050610e3a565b83811115610e64576000848401525b50505050565b6000610e7582610e2c565b610e7f8185610de6565b9350610e8f818560208601610e37565b80840191505092915050565b6000610ea78284610e6a565b915081905092915050565b7f43616e6e6f742076657269667920656d70747920636f6e646974696f6e730000600082015250565b6000610ee8601e83610d69565b9150610ef382610eb2565b602082019050919050565b60006020820190508181036000830152610f1781610edb565b9050919050565b7f43616e6e6f742076657269667920666f72206e6f205573657200000000000000600082015250565b6000610f54601983610d69565b9150610f5f82610f1e565b602082019050919050565b60006020820190508181036000830152610f8381610f47565b9050919050565b7f4e487b7100000000000000000000000000000000000000000000000000000000600052601160045260246000fd5b6000610fc482610caf565b9150610fcf83610caf565b9250827fffffffffffffffffffffffffffffffffffffffffffffffffffffffffffffffff0382111561100457611003610f8a565b5b828201905092915050565b60008160601b9050919050565b60006110278261100f565b9050919050565b60006110398261101c565b9050919050565b61105161104c826109e2565b61102e565b82525050565b60006110638285611040565b6014820191506110738284610e6a565b91508190509392505050565b7f4e487b7100000000000000000000000000000000000000000000000000000000600052603260045260246000fd5b60006110b982610caf565b91507fffffffffffffffffffffffffffffffffffffffffffffffffffffffffffffffff82036110eb576110ea610f8a565b5b600182019050919050565b7f4f776e61626c653a206e6577206f776e657220697320746865207a65726f206160008201527f6464726573730000000000000000000000000000000000000000000000000000602082015250565b6000611152602683610d69565b915061115d826110f6565b604082019050919050565b6000602082019050818103600083015261118181611145565b905091905056fea26469706673582212207b1e59090763b6766a8d7aa4cbb705b4ce0a4e0cfca31270d4fa537de90711cc64736f6c634300080f0033",
  "immutableReferences": {},
  "source": "// SPDX-License-Identifier: MIT\r\npragma solidity ^0.8.0;\r\n\r\nimport \"../client/node_modules/@openzeppelin/contracts/access/Ownable.sol\";\r\n\r\ncontract Verify is Ownable {\r\n    mapping(bytes32 => bool) public certificates;\r\n    mapping(bytes32 => uint256) public validTime;\r\n    bytes32[] public certificateArray; \r\n    uint256 private certificateLength = 30; // this is in seconds\r\n\r\n    function addCertificate(address _user, string memory _condition) public onlyOwner returns (bytes32) {\r\n        // Confirm condition string is not empty string\r\n        require(keccak256(abi.encodePacked(_condition)) != keccak256(abi.encodePacked('')), \"Cannot verify empty conditions\");\r\n        // Confirm user is actual account\r\n        require(_user != address(0), \"Cannot verify for no User\");\r\n        // Hash over user and condition and set hash in lookup-table\r\n        bytes32 newCertificate = calculateHash(_user, _condition);\r\n        // Set time for this certificate to be valid\r\n        validTime[newCertificate] = (block.timestamp + certificateLength);\r\n        if(!certificates[newCertificate]){\r\n            certificates[newCertificate] = true;\r\n            certificateArray.push(newCertificate);\r\n        }\r\n        return newCertificate;\r\n    }\r\n\r\n    function checkCertificate(address _user, string memory _condition) public view returns (bool) {\r\n        // Calculate hash to look up\r\n        // Confirm condition string is not empty string\r\n        require(keccak256(abi.encodePacked(_condition)) != keccak256(abi.encodePacked('')), \"Cannot verify empty conditions\");\r\n        // Confirm user is actual account\r\n        require(_user != address(0), \"Cannot verify for no User\");\r\n        bytes32 containedCertificate = calculateHash(_user, _condition);\r\n        return certificates[containedCertificate];\r\n    }\r\n\r\n    function updateTime() public onlyOwner {\r\n        for(uint256 i = 0; i < certificateArray.length; i++) {\r\n            // Check if current certificate is active\r\n            bytes32 current = certificateArray[i];\r\n            if(certificates[current]){\r\n                // Check if Certificate expired\r\n                if(validTime[current] < block.timestamp){\r\n                    certificates[current] = false;\r\n                }\r\n            }\r\n        }\r\n    } \r\n\r\n    function calculateHash(address _user, string memory _condition) public pure returns (bytes32) {\r\n        return keccak256(abi.encodePacked(_user, _condition));\r\n    }\r\n}\r\n",
  "sourcePath": "C:\\Bachelor_Code\\Smart-Sponsor-v3\\contracts\\Verify.sol",
  "compiler": {
    "name": "solc",
    "version": "0.8.15+commit.e14f2714.Emscripten.clang"
  },
  "schemaVersion": "3.4.4",
  "updatedAt": "2022-06-17T07:50:46.927Z",
  "networkType": "ethereum",
  "devdoc": {
    "kind": "dev",
    "methods": {
      "owner()": {
        "details": "Returns the address of the current owner."
      },
      "renounceOwnership()": {
        "details": "Leaves the contract without owner. It will not be possible to call `onlyOwner` functions anymore. Can only be called by the current owner. NOTE: Renouncing ownership will leave the contract without an owner, thereby removing any functionality that is only available to the owner."
      },
      "transferOwnership(address)": {
        "details": "Transfers ownership of the contract to a new account (`newOwner`). Can only be called by the current owner."
      }
    },
    "version": 1
  },
  "userdoc": {
    "kind": "user",
    "methods": {},
    "version": 1
  }
}