{
  "contractName": "VerifySponsor",
  "abi": [
    {
      "inputs": [
        {
          "internalType": "address",
          "name": "user",
          "type": "address"
        },
        {
          "internalType": "string",
          "name": "condition",
          "type": "string"
        }
      ],
      "name": "checkCertificate",
      "outputs": [
        {
          "internalType": "bool",
          "name": "",
          "type": "bool"
        }
      ],
      "stateMutability": "view",
      "type": "function"
    }
  ],
  "bytecode": "0x608060405234801561001057600080fd5b506102e8806100206000396000f3fe608060405234801561001057600080fd5b506004361061002b5760003560e01c8063d241a98d14610030575b600080fd5b61004a60048036038101906100459190610220565b610060565b6040516100579190610297565b60405180910390f35b600092915050565b6000604051905090565b600080fd5b600080fd5b600073ffffffffffffffffffffffffffffffffffffffff82169050919050565b60006100a78261007c565b9050919050565b6100b78161009c565b81146100c257600080fd5b50565b6000813590506100d4816100ae565b92915050565b600080fd5b600080fd5b6000601f19601f8301169050919050565b7f4e487b7100000000000000000000000000000000000000000000000000000000600052604160045260246000fd5b61012d826100e4565b810181811067ffffffffffffffff8211171561014c5761014b6100f5565b5b80604052505050565b600061015f610068565b905061016b8282610124565b919050565b600067ffffffffffffffff82111561018b5761018a6100f5565b5b610194826100e4565b9050602081019050919050565b82818337600083830152505050565b60006101c36101be84610170565b610155565b9050828152602081018484840111156101df576101de6100df565b5b6101ea8482856101a1565b509392505050565b600082601f830112610207576102066100da565b5b81356102178482602086016101b0565b91505092915050565b6000806040838503121561023757610236610072565b5b6000610245858286016100c5565b925050602083013567ffffffffffffffff81111561026657610265610077565b5b610272858286016101f2565b9150509250929050565b60008115159050919050565b6102918161027c565b82525050565b60006020820190506102ac6000830184610288565b9291505056fea2646970667358221220cd52a8de43dd6fa01f4b7eec3fd726704bdbff960ed21945900d9b31a0df52b664736f6c634300080d0033",
  "immutableReferences": {},
  "source": "// SPDX-License-Identifier: MIT\r\npragma solidity ^0.8.0;\r\n\r\nimport \"../client/node_modules/@openzeppelin/contracts/access/Ownable.sol\";\r\n\r\ncontract Sponsor is Ownable {\r\n\r\n    struct Offer {\r\n        address donor;\r\n        string[] senderConditions;\r\n        string[] receiverConditions;\r\n        uint256[] coinIDs;\r\n        uint256 offerID;\r\n    }\r\n\r\n    uint256 public offerID;\r\n    uint256 public activeNumber;\r\n    Offer[] public offers;\r\n    bool[] public activeOffers;\r\n    VerifySponsor private verifier;\r\n    BankSponsor private bank;\r\n    Offer[] private empty;\r\n\r\n    function setVerifier(address _verifier) public onlyOwner() {\r\n        verifier = VerifySponsor(_verifier);\r\n    }\r\n\r\n    function setBank(address _bank) public onlyOwner() {\r\n        bank = BankSponsor(_bank);\r\n    }\r\n\r\n    function createOffer(string[] memory _senderConditions, string[] memory _receiverConditions, uint256[] memory _coinIDs) public {\r\n        // Confirm amount is specified\r\n        require(_coinIDs.length != 0, \"Need to require donation amount\");\r\n        // Confirm person who called function is owner of coins\r\n        for(uint256 i = 0; i < _coinIDs.length; i++){\r\n            require(bank.owners(_coinIDs[i]) == msg.sender, \"You are not the owner of all coins\");\r\n        }\r\n        bank.normalTransfer(address(this), _coinIDs);\r\n        offers.push(Offer(msg.sender, _senderConditions, _receiverConditions, _coinIDs, offerID));\r\n        activeOffers.push(true);\r\n        offerID++;\r\n        activeNumber++;\r\n    }\r\n\r\n    function applyOffer(uint256 _offerID) public {\r\n        require(activeOffers[_offerID], \"Offer is not available\");\r\n        Offer memory applied = offers[_offerID];\r\n        for(uint256 i = 0; i < applied.senderConditions.length; i++){\r\n            string memory currCondition = applied.senderConditions[i];\r\n            require(verifier.checkCertificate(msg.sender, currCondition), \"You do not fullfill all conditions\");\r\n        }\r\n        bank.attachTransfer(msg.sender, applied.coinIDs, applied.senderConditions, applied.receiverConditions);\r\n        activeOffers[_offerID] = false;\r\n        activeNumber--;\r\n    }\r\n\r\n    function getOffers() public view returns (Offer[] memory) {\r\n        if(activeNumber == 0) {\r\n            return empty;\r\n        }\r\n        Offer[] memory currentOffers = new Offer[](activeNumber);\r\n        uint256 count = 0;\r\n        for(uint256 i = 0; i < activeOffers.length; i++){\r\n            if(activeOffers[i]){\r\n                currentOffers[count] = offers[i];\r\n                count++;\r\n            }\r\n        }\r\n        return currentOffers;\r\n    }\r\n}\r\n\r\ncontract VerifySponsor {\r\n    function checkCertificate(address user, string memory condition) public view returns (bool) {}\r\n}\r\n\r\ncontract BankSponsor {\r\n    function owners(uint256 _index) external returns (address) {}\r\n    function normalTransfer(address _receiver, uint256[] memory _payment) public {}\r\n    function attachTransfer(address _receiver, uint256[] memory _payment, string[] memory senderConditions, string[] memory receiverConditions) public {}\r\n}",
  "sourcePath": "C:\\Bachelor_Code\\Smart-Sponsor-v3\\contracts\\Sponsor.sol",
  "compiler": {
    "name": "solc",
    "version": "0.8.13+commit.abaa5c0e.Emscripten.clang"
  },
  "schemaVersion": "3.4.4",
  "updatedAt": "2022-05-07T20:57:35.069Z",
  "devdoc": {
    "kind": "dev",
    "methods": {},
    "version": 1
  },
  "userdoc": {
    "kind": "user",
    "methods": {},
    "version": 1
  }
}