{
  "contractName": "Verify",
  "abi": [
    {
      "anonymous": false,
      "inputs": [
        {
          "indexed": true,
          "internalType": "address",
          "name": "previousOwner",
          "type": "address"
        },
        {
          "indexed": true,
          "internalType": "address",
          "name": "newOwner",
          "type": "address"
        }
      ],
      "name": "OwnershipTransferred",
      "type": "event"
    },
    {
      "anonymous": false,
      "inputs": [
        {
          "indexed": true,
          "internalType": "bytes32",
          "name": "hash",
          "type": "bytes32"
        }
      ],
      "name": "verifyEvent",
      "type": "event"
    },
    {
      "inputs": [
        {
          "internalType": "uint256",
          "name": "",
          "type": "uint256"
        }
      ],
      "name": "certificateArray",
      "outputs": [
        {
          "internalType": "bytes32",
          "name": "",
          "type": "bytes32"
        }
      ],
      "stateMutability": "view",
      "type": "function",
      "constant": true
    },
    {
      "inputs": [
        {
          "internalType": "bytes32",
          "name": "",
          "type": "bytes32"
        }
      ],
      "name": "certificates",
      "outputs": [
        {
          "internalType": "bool",
          "name": "",
          "type": "bool"
        }
      ],
      "stateMutability": "view",
      "type": "function",
      "constant": true
    },
    {
      "inputs": [],
      "name": "owner",
      "outputs": [
        {
          "internalType": "address",
          "name": "",
          "type": "address"
        }
      ],
      "stateMutability": "view",
      "type": "function",
      "constant": true
    },
    {
      "inputs": [],
      "name": "renounceOwnership",
      "outputs": [],
      "stateMutability": "nonpayable",
      "type": "function"
    },
    {
      "inputs": [
        {
          "internalType": "address",
          "name": "newOwner",
          "type": "address"
        }
      ],
      "name": "transferOwnership",
      "outputs": [],
      "stateMutability": "nonpayable",
      "type": "function"
    },
    {
      "inputs": [
        {
          "internalType": "bytes32",
          "name": "",
          "type": "bytes32"
        }
      ],
      "name": "validTime",
      "outputs": [
        {
          "internalType": "uint256",
          "name": "",
          "type": "uint256"
        }
      ],
      "stateMutability": "view",
      "type": "function",
      "constant": true
    },
    {
      "inputs": [
        {
          "internalType": "address",
          "name": "_user",
          "type": "address"
        },
        {
          "internalType": "string",
          "name": "_condition",
          "type": "string"
        }
      ],
      "name": "addCertificate",
      "outputs": [
        {
          "internalType": "bytes32",
          "name": "",
          "type": "bytes32"
        }
      ],
      "stateMutability": "nonpayable",
      "type": "function"
    },
    {
      "inputs": [
        {
          "internalType": "address",
          "name": "_user",
          "type": "address"
        },
        {
          "internalType": "string",
          "name": "_condition",
          "type": "string"
        }
      ],
      "name": "checkCertificate",
      "outputs": [
        {
          "internalType": "bool",
          "name": "",
          "type": "bool"
        }
      ],
      "stateMutability": "view",
      "type": "function",
      "constant": true
    },
    {
      "inputs": [],
      "name": "updateTime",
      "outputs": [],
      "stateMutability": "nonpayable",
      "type": "function"
    },
    {
      "inputs": [
        {
          "internalType": "address",
          "name": "_user",
          "type": "address"
        },
        {
          "internalType": "string",
          "name": "_condition",
          "type": "string"
        }
      ],
      "name": "calculateHash",
      "outputs": [
        {
          "internalType": "bytes32",
          "name": "",
          "type": "bytes32"
        }
      ],
      "stateMutability": "pure",
      "type": "function",
      "constant": true
    }
  ],
  "bytecode": "0x6080604052601e60045534801561001557600080fd5b5061003261002761003760201b60201c565b61003f60201b60201c565b610103565b600033905090565b60008060009054906101000a900473ffffffffffffffffffffffffffffffffffffffff169050816000806101000a81548173ffffffffffffffffffffffffffffffffffffffff021916908373ffffffffffffffffffffffffffffffffffffffff1602179055508173ffffffffffffffffffffffffffffffffffffffff168173ffffffffffffffffffffffffffffffffffffffff167f8be0079c531659141344cd1fd0a4f28419497f9722a3daafe3b4186f6b6457e060405160405180910390a35050565b6111eb806101126000396000f3fe608060405234801561001057600080fd5b506004361061009e5760003560e01c80639763a664116100665780639763a6641461015b578063ba77c4fd1461018b578063d241a98d146101bb578063dc555090146101eb578063f2fde38b146101f55761009e565b80634a14188d146100a3578063672ae884146100d3578063715018a614610103578063742f06881461010d5780638da5cb5b1461013d575b600080fd5b6100bd60048036038101906100b89190610b93565b610211565b6040516100ca9190610c08565b60405180910390f35b6100ed60048036038101906100e89190610b93565b61046e565b6040516100fa9190610c08565b60405180910390f35b61010b6104a1565b005b61012760048036038101906101229190610c4f565b610529565b6040516101349190610c97565b60405180910390f35b610145610549565b6040516101529190610cc1565b60405180910390f35b61017560048036038101906101709190610c4f565b610572565b6040516101829190610cf5565b60405180910390f35b6101a560048036038101906101a09190610d3c565b61058a565b6040516101b29190610c08565b60405180910390f35b6101d560048036038101906101d09190610b93565b6105ae565b6040516101e29190610c97565b60405180910390f35b6101f36106e3565b005b61020f600480360381019061020a9190610d69565b610818565b005b600061021b61090f565b73ffffffffffffffffffffffffffffffffffffffff16610239610549565b73ffffffffffffffffffffffffffffffffffffffff161461028f576040517f08c379a000000000000000000000000000000000000000000000000000000000815260040161028690610df3565b60405180910390fd5b60405160200161029e90610e44565b60405160208183030381529060405280519060200120826040516020016102c59190610ec8565b604051602081830303815290604052805190602001200361031b576040517f08c379a000000000000000000000000000000000000000000000000000000000815260040161031290610f2b565b60405180910390fd5b600073ffffffffffffffffffffffffffffffffffffffff168373ffffffffffffffffffffffffffffffffffffffff160361038a576040517f08c379a000000000000000000000000000000000000000000000000000000000815260040161038190610f97565b60405180910390fd5b6000610396848461046e565b9050600454426103a69190610fe6565b60026000838152602001908152602001600020819055506001600082815260200190815260200160002060009054906101000a900460ff1661043757600180600083815260200190815260200160002060006101000a81548160ff02191690831515021790555060038190806001815401808255809150506001900390600052602060002001600090919091909150555b807f45b5e71093caef3a88c20e3e738a4926f3b6eae6ec97c5032e0b81e0af0d402660405160405180910390a28091505092915050565b60008282604051602001610483929190611084565b60405160208183030381529060405280519060200120905092915050565b6104a961090f565b73ffffffffffffffffffffffffffffffffffffffff166104c7610549565b73ffffffffffffffffffffffffffffffffffffffff161461051d576040517f08c379a000000000000000000000000000000000000000000000000000000000815260040161051490610df3565b60405180910390fd5b6105276000610917565b565b60016020528060005260406000206000915054906101000a900460ff1681565b60008060009054906101000a900473ffffffffffffffffffffffffffffffffffffffff16905090565b60026020528060005260406000206000915090505481565b6003818154811061059a57600080fd5b906000526020600020016000915090505481565b60006040516020016105bf90610e44565b60405160208183030381529060405280519060200120826040516020016105e69190610ec8565b604051602081830303815290604052805190602001200361063c576040517f08c379a000000000000000000000000000000000000000000000000000000000815260040161063390610f2b565b60405180910390fd5b600073ffffffffffffffffffffffffffffffffffffffff168373ffffffffffffffffffffffffffffffffffffffff16036106ab576040517f08c379a00000000000000000000000000000000000000000000000000000000081526004016106a290610f97565b60405180910390fd5b60006106b7848461046e565b90506001600082815260200190815260200160002060009054906101000a900460ff1691505092915050565b6106eb61090f565b73ffffffffffffffffffffffffffffffffffffffff16610709610549565b73ffffffffffffffffffffffffffffffffffffffff161461075f576040517f08c379a000000000000000000000000000000000000000000000000000000000815260040161075690610df3565b60405180910390fd5b60005b60038054905081101561081557600060038281548110610785576107846110ac565b5b906000526020600020015490506001600082815260200190815260200160002060009054906101000a900460ff16156108015742600260008381526020019081526020016000205410156108005760006001600083815260200190815260200160002060006101000a81548160ff0219169083151502179055505b5b50808061080d906110db565b915050610762565b50565b61082061090f565b73ffffffffffffffffffffffffffffffffffffffff1661083e610549565b73ffffffffffffffffffffffffffffffffffffffff1614610894576040517f08c379a000000000000000000000000000000000000000000000000000000000815260040161088b90610df3565b60405180910390fd5b600073ffffffffffffffffffffffffffffffffffffffff168173ffffffffffffffffffffffffffffffffffffffff1603610903576040517f08c379a00000000000000000000000000000000000000000000000000000000081526004016108fa90611195565b60405180910390fd5b61090c81610917565b50565b600033905090565b60008060009054906101000a900473ffffffffffffffffffffffffffffffffffffffff169050816000806101000a81548173ffffffffffffffffffffffffffffffffffffffff021916908373ffffffffffffffffffffffffffffffffffffffff1602179055508173ffffffffffffffffffffffffffffffffffffffff168173ffffffffffffffffffffffffffffffffffffffff167f8be0079c531659141344cd1fd0a4f28419497f9722a3daafe3b4186f6b6457e060405160405180910390a35050565b6000604051905090565b600080fd5b600080fd5b600073ffffffffffffffffffffffffffffffffffffffff82169050919050565b6000610a1a826109ef565b9050919050565b610a2a81610a0f565b8114610a3557600080fd5b50565b600081359050610a4781610a21565b92915050565b600080fd5b600080fd5b6000601f19601f8301169050919050565b7f4e487b7100000000000000000000000000000000000000000000000000000000600052604160045260246000fd5b610aa082610a57565b810181811067ffffffffffffffff82111715610abf57610abe610a68565b5b80604052505050565b6000610ad26109db565b9050610ade8282610a97565b919050565b600067ffffffffffffffff821115610afe57610afd610a68565b5b610b0782610a57565b9050602081019050919050565b82818337600083830152505050565b6000610b36610b3184610ae3565b610ac8565b905082815260208101848484011115610b5257610b51610a52565b5b610b5d848285610b14565b509392505050565b600082601f830112610b7a57610b79610a4d565b5b8135610b8a848260208601610b23565b91505092915050565b60008060408385031215610baa57610ba96109e5565b5b6000610bb885828601610a38565b925050602083013567ffffffffffffffff811115610bd957610bd86109ea565b5b610be585828601610b65565b9150509250929050565b6000819050919050565b610c0281610bef565b82525050565b6000602082019050610c1d6000830184610bf9565b92915050565b610c2c81610bef565b8114610c3757600080fd5b50565b600081359050610c4981610c23565b92915050565b600060208284031215610c6557610c646109e5565b5b6000610c7384828501610c3a565b91505092915050565b60008115159050919050565b610c9181610c7c565b82525050565b6000602082019050610cac6000830184610c88565b92915050565b610cbb81610a0f565b82525050565b6000602082019050610cd66000830184610cb2565b92915050565b6000819050919050565b610cef81610cdc565b82525050565b6000602082019050610d0a6000830184610ce6565b92915050565b610d1981610cdc565b8114610d2457600080fd5b50565b600081359050610d3681610d10565b92915050565b600060208284031215610d5257610d516109e5565b5b6000610d6084828501610d27565b91505092915050565b600060208284031215610d7f57610d7e6109e5565b5b6000610d8d84828501610a38565b91505092915050565b600082825260208201905092915050565b7f4f776e61626c653a2063616c6c6572206973206e6f7420746865206f776e6572600082015250565b6000610ddd602083610d96565b9150610de882610da7565b602082019050919050565b60006020820190508181036000830152610e0c81610dd0565b9050919050565b600081905092915050565b50565b6000610e2e600083610e13565b9150610e3982610e1e565b600082019050919050565b6000610e4f82610e21565b9150819050919050565b600081519050919050565b60005b83811015610e82578082015181840152602081019050610e67565b83811115610e91576000848401525b50505050565b6000610ea282610e59565b610eac8185610e13565b9350610ebc818560208601610e64565b80840191505092915050565b6000610ed48284610e97565b915081905092915050565b7f43616e6e6f742076657269667920656d70747920636f6e646974696f6e730000600082015250565b6000610f15601e83610d96565b9150610f2082610edf565b602082019050919050565b60006020820190508181036000830152610f4481610f08565b9050919050565b7f43616e6e6f742076657269667920666f72206e6f205573657200000000000000600082015250565b6000610f81601983610d96565b9150610f8c82610f4b565b602082019050919050565b60006020820190508181036000830152610fb081610f74565b9050919050565b7f4e487b7100000000000000000000000000000000000000000000000000000000600052601160045260246000fd5b6000610ff182610cdc565b9150610ffc83610cdc565b9250827fffffffffffffffffffffffffffffffffffffffffffffffffffffffffffffffff0382111561103157611030610fb7565b5b828201905092915050565b60008160601b9050919050565b60006110548261103c565b9050919050565b600061106682611049565b9050919050565b61107e61107982610a0f565b61105b565b82525050565b6000611090828561106d565b6014820191506110a08284610e97565b91508190509392505050565b7f4e487b7100000000000000000000000000000000000000000000000000000000600052603260045260246000fd5b60006110e682610cdc565b91507fffffffffffffffffffffffffffffffffffffffffffffffffffffffffffffffff820361111857611117610fb7565b5b600182019050919050565b7f4f776e61626c653a206e6577206f776e657220697320746865207a65726f206160008201527f6464726573730000000000000000000000000000000000000000000000000000602082015250565b600061117f602683610d96565b915061118a82611123565b604082019050919050565b600060208201905081810360008301526111ae81611172565b905091905056fea264697066735822122010901c142b0582dfcbda203b529b45bfbf4716102578edfa0be9c992195b62bd64736f6c634300080e0033",
  "immutableReferences": {},
  "source": "// SPDX-License-Identifier: MIT\r\npragma solidity ^0.8.0;\r\n\r\nimport \"../client/node_modules/@openzeppelin/contracts/access/Ownable.sol\";\r\n\r\ncontract Verify is Ownable {\r\n    mapping(bytes32 => bool) public certificates;\r\n    mapping(bytes32 => uint256) public validTime;\r\n    bytes32[] public certificateArray; \r\n    uint256 private certificateLength = 30; // this is in seconds\r\n\r\n    event verifyEvent(\r\n        bytes32 indexed hash\r\n    );\r\n\r\n    function addCertificate(address _user, string memory _condition) public onlyOwner returns (bytes32) {\r\n        // Confirm condition string is not empty string\r\n        require(keccak256(abi.encodePacked(_condition)) != keccak256(abi.encodePacked('')), \"Cannot verify empty conditions\");\r\n        // Confirm user is actual account\r\n        require(_user != address(0), \"Cannot verify for no User\");\r\n        // Hash over user and condition and set hash in lookup-table\r\n        bytes32 newCertificate = calculateHash(_user, _condition);\r\n        // Set time for this certificate to be valid\r\n        validTime[newCertificate] = (block.timestamp + certificateLength);\r\n        if(!certificates[newCertificate]){\r\n            certificates[newCertificate] = true;\r\n            certificateArray.push(newCertificate);\r\n        }\r\n        emit verifyEvent(newCertificate);\r\n        return newCertificate;\r\n    }\r\n\r\n    function checkCertificate(address _user, string memory _condition) public view returns (bool) {\r\n        // Calculate hash to look up\r\n        // Confirm condition string is not empty string\r\n        require(keccak256(abi.encodePacked(_condition)) != keccak256(abi.encodePacked('')), \"Cannot verify empty conditions\");\r\n        // Confirm user is actual account\r\n        require(_user != address(0), \"Cannot verify for no User\");\r\n        bytes32 containedCertificate = calculateHash(_user, _condition);\r\n        return certificates[containedCertificate];\r\n    }\r\n\r\n    function updateTime() public onlyOwner {\r\n        for(uint256 i = 0; i < certificateArray.length; i++) {\r\n            // Check if current certificate is active\r\n            bytes32 current = certificateArray[i];\r\n            if(certificates[current]){\r\n                // Check if Certificate expired\r\n                if(validTime[current] < block.timestamp){\r\n                    certificates[current] = false;\r\n                }\r\n            }\r\n        }\r\n    } \r\n\r\n    function calculateHash(address _user, string memory _condition) public pure returns (bytes32) {\r\n        return keccak256(abi.encodePacked(_user, _condition));\r\n    }\r\n}\r\n",
  "sourcePath": "C:\\Bachelor_Code\\Smart-Sponsor-v3\\contracts\\Verify.sol",
  "compiler": {
    "name": "solc",
    "version": "0.8.14+commit.80d49f37.Emscripten.clang"
  },
  "schemaVersion": "3.4.4",
  "updatedAt": "2022-05-23T19:17:27.048Z",
  "networkType": "ethereum",
  "devdoc": {
    "kind": "dev",
    "methods": {
      "owner()": {
        "details": "Returns the address of the current owner."
      },
      "renounceOwnership()": {
        "details": "Leaves the contract without owner. It will not be possible to call `onlyOwner` functions anymore. Can only be called by the current owner. NOTE: Renouncing ownership will leave the contract without an owner, thereby removing any functionality that is only available to the owner."
      },
      "transferOwnership(address)": {
        "details": "Transfers ownership of the contract to a new account (`newOwner`). Can only be called by the current owner."
      }
    },
    "version": 1
  },
  "userdoc": {
    "kind": "user",
    "methods": {},
    "version": 1
  }
}